:020000040800F2
:1000000000000220B9020008BF020008C302000875
:1000100035030008390300088103000800000000D0
:10002000000000000000000000000000B1180008FF
:10003000CD0300080000000051190008B5190008A0
:10004000E5030008E5030008E5030008E5030008F0
:10005000E5030008E5030008E5030008E5030008E0
:10006000E5030008E5030008E5030008E5030008D0
:10007000E5030008E5030008E5030008E5030008C0
:10008000E5030008E5030008E5030008E5030008B0
:10009000E5030008E5030008E5030008E5030008A0
:1000A000E5030008E5030008E5030008E503000890
:1000B000E5030008E5030008E5030008E503000880
:1000C000E5030008E5030008E5030008E503000870
:1000D000E5030008E5030008E5030008E503000860
:1000E000E5030008E5030008E5030008E503000850
:1000F000E5030008E5030008E5030008E503000840
:10010000E5030008E5030008E5030008E50300082F
:10011000E5030008E5030008E5030008E50300081F
:10012000E5030008E5030008E5030008E50300080F
:10013000E5030008E5030008E5030008E5030008FF
:10014000E5030008E5030008E5030008E5030008EF
:10015000E5030008E5030008E5030008E5030008DF
:10016000E5030008E5030008E5030008E5030008CF
:10017000E5030008E5030008E503000800000000AF
:10018000E5030008E503000800B583B001F0C2F9FB
:10019000384B394A1360394A1360394906E052F83E
:1001A000041B43F8041B9842F9D86146354B994229
:1001B00005D20A684B6801F10C0C8868F3E72E4BF6
:1001C0001A68314B9A4200D0FEE72C4B1A682F4B2D
:1001D0009A42F9D1274B2E4A13602E4A13602E4AB9
:1001E00000E002462D4B9A4209D2104650F8083BD7
:1001F00051689942F5D9002243F8042BF9E7244BC2
:100200001B6813B9234B1B6803B1FEE701F036FAF4
:10021000694601A800F0A8FE214C224BE41AA41064
:10022000002504E01F4B53F8253098470135AC42B8
:10023000F8DC1D4C1D4BE41AA410002504E01B4BF8
:1002400053F8253098470135AC42F8DC0099019805
:1002500001F026FA0546164C164BE41AA41004E0E9
:10026000013C144B53F824309847002CF8DC284606
:1002700000F016FEBABADECA0000002070000020AE
:10028000E8030008000400087856341232547698C7
:100290007400002030300120000400081004000821
:1002A00010040008100400081004000810040008DE
:1002B000100400081004000808B5FFF765FF00BE31
:1002C000FEE71EF0040F0CBFEFF30880EFF3098088
:1002D0007146414A10472DE9F04182B004460D466F
:1002E000124B5F6BD3F838809E6A1B6B13F0020FC2
:1002F00003D00E4BDB6A002B0BDB0D4800F0F4FF44
:10030000009543463A463146204601F019F800BEB2
:10031000FEE74BF6AB6101F08DF80028EDD0034B02
:100320004FF00042DA6202B0BDE8F08100ED00E07B
:100330001034000800BEFEE71EF0040F0CBFEFF300
:100340000880EFF309807146244A10472DE9F041F7
:1003500082B004460D46084B5F6BD3F838809E6A26
:10036000064800F0C1FF009543463A463146204614
:1003700000F0E6FF00BEFEE700ED00E020340008DC
:100380001EF0040F0CBFEFF30880EFF309807146F5
:10039000134A10472DE9F04182B004460D46084B40
:1003A0005F6BD3F838809E6A064800F09DFF009589
:1003B00043463A463146204600F0C2FF00BEFEE703
:1003C00000ED00E02C34000800BEFEE700BEFEE7B2
:1003D00000BEFEE770470000D70200084D0300088A
:0803E0009503000800BEFEE7D2
:1003E800D43500080000002074000020D43500082F
:1003F80000000010000000107400002034300120BC
:080408000000001000000010CC
:1004100010B504460E4B1A784FF47A73B3FBF2F31F
:100420000C4A1068B0FBF3F000F0AEF868B90F2C7E
:1004300001D901200AE0002221464FF0FF3000F0F0
:100440007FF8054B1C60002000E0012010BD00BFBC
:10045000040000200C0000200800002008B50B4B11
:100460001A6842F400721A601A6842F480621A60D4
:100470001A6842F480721A60032000F043F80F20DB
:10048000FFF7C6FF01F023F9002008BD003C024041
:10049000014B1868704700BF78000020002808DB77
:1004A0000901C9B200F1604000F5614080F8001315
:1004B000704700F00F000901C9B2014B1954704791
:1004C00014ED00E000B500F00700C0F1070CBCF12E
:1004D000040F28BF4FF0040C031D062B0FD9C31EB9
:1004E0004FF0FF3E0EFA0CF021EA000199400EFA9F
:1004F00003FE22EA0E0241EA02005DF804FB00233B
:10050000EEE7000010B50446C31E042B0FD80A4ABC
:10051000D36823F4E0631B041B0C240204F4E0649E
:10052000234343F0BF6343F40033D36010BD9221F3
:10053000024801F0ABF8EAE700ED00E08C32000879
:1005400070B506460C4615460F2A0ED80F2C11D84A
:100550000B4BD8682A462146C0F30220FFF7B2FFB2
:1005600001463046FFF79AFF70BDAA21054801F009
:100570008DF8EBE7AB21034801F088F8E8E700BF0E
:1005800000ED00E08C3200080138B0F1807F0BD222
:100590004FF0E0235861054AF02182F82310002033
:1005A000986107221A6170470120704700ED00E052
:1005B00008B5042807D068B94FF0E022136923F08A
:1005C0000403136108BD4FF0E022136943F00403F4
:1005D0001361F7E740F2C911014801F057F8EBE762
:1005E0008C320008002800F05B8270B582B00446AF
:1005F00003680F2B39D8236813F0010F4DD06368BF
:100600002BB1B3F5803F02D0B3F5A02F32D1804B90
:100610009B6803F00C03042B36D07D4B9B6803F0E2
:100620000C03082B2BD06368B3F5803F5FD0B3F584
:10063000A02F62D0764B1A6822F480321A601A68B2
:1006400022F480221A606368002B60D0FFF720FF3D
:1006500005466F4B1B6813F4003F1ED1FFF718FFD0
:10066000401B6428F5D9032021E2E821694801F004
:100670000DF8C0E7ED21674801F008F8C7E7644BC3
:100680005B6813F4800FCED0614B1B6813F4003FFE
:1006900003D06368002B00F00582236813F0020F7B
:1006A00066D0E368012B41D823691F2B44D8584BEF
:1006B0009B6813F00C0F4AD0554B9B6803F00C035A
:1006C000082B3FD0E368002B77D0534B01221A60F0
:1006D000FFF7DEFE05464E4B1B6813F0020F63D199
:1006E000FFF7D6FE401B0228F5D90320DFE1484A78
:1006F000136843F480331360A5E7454B1A6842F44E
:1007000080221A601A6842F480321A609BE7FFF771
:10071000BFFE05463E4B1B6813F4003FBDD0FFF7FC
:10072000B7FE401B6428F5D90320C0E140F21F1139
:10073000384800F0ABFFB7E74FF49071354800F050
:10074000A5FFB4E7324B5B6813F4800FBAD1304B8E
:100750001B6813F0020F03D0E368012B40F0A48163
:100760002B4A136823F0F803216943EAC10313609D
:10077000236813F0080F51D06369012B2FD86369E8
:100780009BB3254B0122C3F8802EFFF781FE05465F
:100790001F4B5B6F13F0020F40D1FFF779FE401B38
:1007A0000228F5D9032082E1194A136823F0F803DF
:1007B000216943EAC1031360DAE7174B00221A608C
:1007C000FFF766FE0546124B1B6813F0020FCFD0F1
:1007D000FFF75EFE401B0228F5D9032067E14FF4C6
:1007E000B0710C4800F052FFC9E70B4B0022C3F870
:1007F000802EFFF74DFE0546054B5B6F13F0020F91
:100800000CD0FFF745FE401B0228F5D903204EE12E
:1008100000380240C032000800004742236813F04D
:10082000040F7CD0A368012B01D9052B38D1A44B30
:100830001B6C13F0805F39D100230193A04B1A6C1D
:1008400042F080521A641B6C03F080530193019BA9
:1008500001259C4B1B6813F4807F29D0A368012BD2
:100860003AD0052B3ED0964B1A6F22F001021A6740
:100870001A6F22F004021A67A368002B3CD0FFF71E
:1008800007FE06468E4B1B6F13F0020F45D1FFF794
:10089000FFFD801B41F288339842F3D9032006E123
:1008A0004FF4C671884800F0F1FEC0E70025D0E79C
:1008B000844A136843F480731360FFF7E9FD06462A
:1008C000804B1B6813F4807FC8D1FFF7E1FD801BCC
:1008D0000228F5D90320EAE0794A136F43F00103B7
:1008E0001367C9E7764B1A6F42F004021A671A6F52
:1008F00042F001021A67BFE7FFF7CAFD0646704BD8
:100900001B6F13F0020F08D0FFF7C2FD801B41F2EE
:1009100088339842F3D90320C9E0002D3ED1A36962
:10092000022B41D8A369002B00F0C080644A926872
:1009300002F00C02082A00F09380022B7CD1E369BC
:1009400013B1B3F5800F35D1236A3F2B38D8636AD2
:10095000323BB3F5BF7F39D8A36A022B08D0082BEE
:100960003AD84FF4A87222FA03F313F0010F33D0F0
:10097000E36A023B0D2B35D8544B00221A66FFF771
:1009800087FD05464E4B1B6813F0007F30D0FFF704
:100990007FFD401B0228F5D9032088E0484A136CEC
:1009A00023F080531364BAE740F2CF11464800F0B9
:1009B0006DFEB7E74FF4EC71434800F067FEC3E704
:1009C00040F2D911404800F061FEC0E74FF4ED71EC
:1009D0003D4800F05BFEBFE740F2DB113A4800F013
:1009E00055FEC5E74FF4EE71374800F04FFEC3E700
:1009F000E369226A1343626A43EA8213A26A5208D5
:100A0000013A43EA0243E26A43EA02632C4A536032
:100A10002E4B01221A66FFF73BFD0446284B1B684C
:100A200013F0007F06D1FFF733FD001B0228F5D934
:100A300003203CE000203AE0244B00221A66FFF736
:100A400027FD04461E4B1B6813F0007F06D0FFF7FE
:100A50001FFD001B0228F5D9032028E0002026E016
:100A6000012B26D0164B5B6803F48001E2699142AA
:100A700021D103F03F02216A8A421ED1616A47F602
:100A8000C0721A408A4223D103F44032A16A8A42DA
:100A900020D103F07063E26A93421DD1002006E08A
:100AA00001207047012002E0012000E0002002B098
:100AB00070BD0120FBE70120F9E70120F7E700BF47
:100AC0000038024000700040C03200080000474279
:100AD0000120ECE70120EAE70120E8E708B5334B05
:100AE0009B6803F00C03042B5BD0082B5BD12F4BCE
:100AF0005A6802F03F025B6813F4800F2CD02B4B36
:100B00005868C0F388104FEA401CBCEB000C6EEB39
:100B10000E0E4FEA8E1343EA9C634FEA8C11B1EB41
:100B20000C0163EB0E03DB0043EA5173C90011EBC8
:100B3000000C43F10003590200234FEA4C2041EA24
:100B4000DC5101F0C7F9194B5B68C3F30143013372
:100B50005B00B0FBF3F027E0144B5868C0F388103B
:100B60004FEA401CBCEB000C6EEB0E0E4FEA8E13EE
:100B700043EA9C634FEA8C11B1EB0C0163EB0E036B
:100B8000DB0043EA5173C90011EB000C43F1000391
:100B9000990200234FEA8C2041EA9C5101F09AF916
:100BA000D1E7034800E0034808BD00BF0038024019
:100BB00000127A000024F400002800F0FA8070B5DA
:100BC0000D4604460368013B0E2B30D8072D34D860
:100BD0007C4B1B6803F00F03AB4208D2EBB2794A9F
:100BE0001370136803F00F03AB4240F0E4802368F6
:100BF00013F0020F32D013F0040F04D0724A93683E
:100C000043F4E0539360236813F0080F04D06E4A56
:100C1000936843F460439360A368C3B1C02B16D0BC
:100C200049D8A02B13D00ED9B02B10D049E040F2F8
:100C30005121664800F02AFDC8E740F2522163487E
:100C400000F024FDC4E7802B01D0902B39D15E4AFF
:100C5000936823F0F003A1680B439360236813F0BB
:100C6000010F48D06368032B31D86368012B34D05F
:100C70009A1E012A38D9544A126812F0020F00F065
:100C80009C8051498A6822F0030213438B60FFF76E
:100C9000FFFB06464C4B9B6803F00C036268B3EB0A
:100CA000820F28D0FFF7F4FB801B41F28833984273
:100CB000F0D9032070E0E02BC9D0F02BC7D0D02BA7
:100CC000C5D040F27521414800F0E0FCBFE74FF489
:100CD0001F713E4800F0DAFCC7E73B4A126812F485
:100CE000003FCED1012057E0374A126812F0007F52
:100CF000C7D1012050E0334B1B6803F00F03AB4218
:100D000007D9EAB22F4B1A701B6803F00F03AB42EE
:100D100055D1236813F0040F14D0E3685BB1B3F529
:100D2000805F08D0B3F5A05F05D0B3F5C05F02D0F7
:100D3000B3F5E05F31D1244A936823F4E053E168CE
:100D40000B439360236813F0080F15D023695BB140
:100D5000B3F5805F08D0B3F5A05F05D0B3F5C05FF1
:100D600002D0B3F5E05F1ED1174A936823F46043C5
:100D7000216943EAC1039360FFF7B0FE124B9B6801
:100D8000C3F30313124AD35CD840124B1860124BC2
:100D90001868FFF73DFB002070BD40F2BA210B48F8
:100DA00000F074FCC7E740F2C121084800F06EFC77
:100DB000DAE7012070470120EEE70120ECE701208F
:100DC000EAE700BF003C024000380240C0320008A1
:100DD0003C3400080C00002008000020014B18687B
:100DE000704700BF0C00002008B503460C4A12688B
:100DF0005AB10B4A1068033323F003030344094A32
:100E0000934206D8064A136008BD054A0649116098
:100E1000EFE701F055FC0C2303604FF0FF30F3E7E0
:100E20007C00002000FC01203430012030B5132468
:100E3000002520462946ABBE0446204630BD38B5C5
:100E4000044601F03DFC0546FFF7F0FF2860204610
:100E500038BDB0F1FF3F00D0704708B5FFF7EFFF96
:100E600008BD000010B504460B4B186808B1436874
:100E70005BB1132C0CD8094B53F83430B3F1FF3F5E
:100E800008D0064800EBC40010BD01F027FAF0E7D7
:100E90000020F9E70020F7E72000002004010020EF
:100EA00000B530B9044D182420462946ABBE04468F
:100EB000FEE7024DF7E700BF260002002300020014
:100EC0002DE9F04184B0234F0197032603960023B8
:100ED0000293012401AD20462946ABBE80461E4B3D
:100EE000C3F8008001970396042302932046294605
:100EF000ABBE8046194BC3F80080019703960823C8
:100F0000029320462946ABBE0446154B1C60B4F143
:100F1000FF3F01D000230AE0104B1A68104B1A6003
:100F2000F8E7104A4FF0FF3142F833100133132B2A
:100F3000F7DD0C4B084A12681A6000225A60074914
:100F400009689960DA600649096819615A6104B054
:100F5000BDE8F081F032000800010020FC00002014
:100F6000F8000020040100202DE9F04383B0814601
:100F700088462A4B00934F23019315276C46384629
:100F80002146ABBE0746AFBB244B002283F84F205F
:100F9000009A3E463C463D4607E001321E46204B45
:100FA00043F8252001350124013292F90030FBB1CC
:100FB00064B91C49C9560029F6DB092BF4D0082D69
:100FC00016DC222BE9D0272BE9D1E6E736B19E4289
:100FD000EAD1002313703E463C46E5E71149C95665
:100FE000002901DB092BDFD1002313703446DBE736
:100FF0003DB900E00025094B00221A70084A136031
:101000000135074B002243F82520C9F80050C8F8E5
:101010000030FFF755FF03B0BDE8F083A8000020C3
:10102000800000209934000830B585B0019002910D
:101030000392062401AD20462946ABBE0446204655
:10104000FFF707FF05B030BD70B50D461446FFF73A
:1010500009FF68B10646224629460068FFF7E4FF0B
:10106000B0F1FF3F03D07368201A0344736070BD72
:1010700001F026FB092303604FF0FF30F7E7F0B5DE
:1010800083B00C461546FFF7EDFEC0B10646022DB3
:101090001CD8012D21D0022D29D033680093019452
:1010A0000A256F4628463946ABBE05462846FFF757
:1010B000D0FE00282BDB7460204603B0F0BD01F0A9
:1010C000FFFA092303604FF0FF30F6E701F0F8FA6A
:1010D000162303604FF0FF30EFE74368E418DCD5D8
:1010E00001F0EEFA162303604FF0FF30E5E70368E6
:1010F00000930C256F4628463946ABBE0546284668
:10110000FFF7A7FEB0F1FF3FD7D00444C5E74FF08B
:10111000FF30D2E708B5FFF7B2FF08BD30B585B0A4
:10112000019002910392052401AD20462946ABBEF1
:1011300004462046FFF78DFE05B030BD70B50D4664
:101140001446FFF78FFE70B1064622462946006816
:10115000FFF7E4FF031E11DB7268E01A02447260BD
:101160009C4207D070BD01F0ABFA092303604FF039
:10117000FF30F7E70020FFF762FEF3E74FF0FF30A4
:10118000F0E730B583B00190022401AD2046294636
:10119000ABBE04462046FFF75CFE03B030BD000046
:1011A00038B50446FFF75EFE80B10546601E012893
:1011B00004D80C4B9A681B699A420ED02868FFF736
:1011C000E0FF10B94FF0FF332B6038BD01F078FA23
:1011D000092303604FF0FF30F7E74FF0FF332B6038
:1011E0000020F2E70401002070B50C46FFF73AFE3C
:1011F000A8B10646636843F4005363604FF480630C
:10120000A3640C2528463146ABBE05462846FFF7A9
:1012100020FEB0F1FF3F01D02061002070BD01F041
:101220004FFA092303604FF0FF30F7E738B5054662
:101230000C4658220021204601F0F4F921462846A8
:10124000FFF7D2FF38BD38B5FFF70CFE80B1054679
:10125000092420462946ABBE04462046012C06D070
:1012600001F02EFA0446FFF7E1FD2060002038BDB2
:1012700001F026FA092303600020F8E72DE9F04386
:1012800085B004460F4643563BBB042528462146FD
:10129000ABBE0546384605B0BDE8F08314F901CB76
:1012A00003F110026A4402F810CC0133AB42F5D3CB
:1012B00010336B44002203F8102C4FF00408E94669
:1012C00040464946ABBE8046761B002EE2D03546EE
:1012D000102E28BF10250023E8E70E46F5E708B5D5
:1012E000FFF7CCFF08BD00000FB400B583B004AB1E
:1012F00053F8042B01938021074801F0F1F80028EE
:1013000004DC03B05DF804EB04B07047014602480A
:10131000FFF7E5FFF5E700BFA8010020BFF34F8FFF
:101320000549CA6802F4E062044B1343CB60BFF383
:101330004F8F00BFFDE700BF00ED00E00400FA059D
:10134000F8B504460D4617461E462748FFF7CCFF62
:1013500021682648FFF7C8FF61682548FFF7C4FFEA
:10136000A1682448FFF7C0FFE1682348FFF7BCFFEE
:1013700021692248FFF7B8FF61692148FFF7B4FFF0
:10138000A1692048FFF7B0FFE1691F48FFF7ACFFF4
:101390001E48FFF7A9FF29461D48FFF7A5FF1D4C72
:1013A000E16A1D48FFF7A0FF216B1C48FFF79CFF77
:1013B000E16B1B48FFF798FF15F0800F0AD115F479
:1013C000004F0CD11748FFF78FFF06991648FFF71B
:1013D0008BFFF8BD39461548FFF786FFEFE731462A
:1013E0001348FFF781FFEDE7F432000804330008EB
:1013F0001433000824330008343300084433000851
:101400005433000864330008743300088433000840
:101410009033000800ED00E0A0330008B03300086E
:10142000C0330008F0330008F8330008D033000858
:10143000E033000838B583691B888B4201D0002057
:1014400038BD044603684568013B302B5ED8DFE8B1
:1014500003F03B211C1C5330332D19195D19191948
:1014600019193619245D19275D395D5D5D5D5D5D76
:101470005D5D5D5D5D5D5D5D5D5D5D5D5D5D5D5D9C
:101480005D1919004FF0FF330360A3690233A361B4
:101490000120D5E700230360F7E700230360F4E7AA
:1014A00000232B606B60AB60EB60EEE70023036012
:1014B000EBE7AB680360E8E700230360E5E70023A0
:1014C0000360E2E7FFF72AFF1149286801F001F9FC
:1014D00040B96B6813B901232360D6E7042B05D00C
:1014E000082B06D04FF0FF332360CEE702232360A2
:1014F000CBE703232360C8E72B68023B012B02D90B
:10150000AB680360C1E700230360BEE7002097E7F4
:10151000F032000808B500F009F8024A024B9A6060
:1015200008BD00BF0000000800ED00E0024B4FF0D6
:1015300000629A60704700BF00ED00E0224B9B689C
:1015400003F00C03042B14D0082B16D01BB11F4B37
:101550001F4A1A6002E01D4B1D4A1A601A4B9B6815
:10156000C3F303131B4AD15C184A1368CB401360C2
:101570007047164B184A1A60F0E7134B59685A68BF
:1015800002F03F0211F4800F13D0134BB3FBF2F3C0
:101590000D4A5268C2F3881202FB03F30A4A5268EA
:1015A000C2F3014201325200B3FBF2F3074A136067
:1015B000D4E7074BB3FBF2F3034A5268C2F3881235
:1015C00002FB03F3EAE700BF003802400C000020F2
:1015D0000024F4003C34000800127A0030B595B0C5
:1015E00000240194224B1A6C42F080521A641B6C46
:1015F00003F080530193019B02941E4B1A6842F43E
:1016000080421A601B6803F480430293029B01230B
:1016100008934FF4803309934FF480030F9308230A
:1016200010934FF4A8731193022512950723139377
:101630000E9508A8FEF7D6FF0F2303930495059493
:101640004FF4A05306934FF480530793052103A84A
:10165000FFF7B2FAFFF7C2FB074BA3FB003080098C
:10166000FEF792FF0420FEF7A3FF15B030BD00BFC8
:101670000038024000700040D34D621008B5FEF7FC
:10168000EDFEFFF7ABFFFFF759FF08BD08B50A46AF
:1016900001460248FFF728FEFEE700BF4C34000871
:1016A00008B500220421032000F015FA044B18604D
:1016B00008B1002008BD034800F09CFEF9E700BF18
:1016C000280200207C340008FEE7FEE770477047E0
:1016D000124A12F0070F1ED0D11D21F00701C1F5EB
:1016E000963313440A460E480260002141601344B9
:1016F000083B23F007030B48036059601960991AEF
:1017000051601360084B1960084B1960084B4FF08B
:1017100000421A6070474FF49633E4E74402002019
:101720003C02002038020020300200203402002059
:101730002C020020164B1A461B688342FBD35168CB
:1017400002EB010C844509D0416800EB010C6345B4
:1017500009D00360904219D010607047406801447E
:1017600051601046F0E710B40A4C2468A3420BD035
:101770005B681944416013681B680360904200D0A5
:1017800010605DF8044B70470460F7E7704700BFD6
:101790003C0200203802002038B5044600F0D6F99B
:1017A0003B4B1B68ABB13B4B1B681C4214D1002C5C
:1017B00066D004F1080214F0070F02D022F00702ED
:1017C0000832D2B1344B1B6893421AD333490C68A8
:1017D0001DE0FFF77DFFE6E700F054FA0025FFF774
:1017E00073FF15F0070F51D04FF0500383F31188AA
:1017F000BFF36F8FBFF34F8FFEE700F043FA002572
:10180000EDE700F03FFA0025E9E721461C46636852
:10181000934202D22368002BF7D11D4B1B68A342D1
:1018200014D00D68083523680B6063689B1A102B71
:1018300014D9A01810F0070F0CD04FF0500383F309
:101840001188BFF36F8FBFF34F8FFEE700F01AFAD6
:101850000025C4E743606260FFF76CFF62680E49D1
:101860000B689B1A0B600E4909688B4201D20C4928
:101870000B60084B1B68134363600023236000E088
:10188000002500F0FFF9002DABD1A8E7284638BDB0
:10189000380200202C020020340200203C020020EC
:1018A00030020020000000000000000000000000E6
:1018B000074B19680868B0E8F04F80F30988BFF358
:1018C0006F8F4FF0000080F311887047AFF30080F6
:1018D000E42E01204FF0500383F31188BFF36F8F84
:1018E000BFF34F8F0B4A136801331360012B00D0F5
:1018F00070474FF0E023D3F8043D13F0FF0FF7D00B
:101900004FF0500383F31188BFF36F8FBFF34F8FF6
:10191000FEE700BF10000020094B1B6843B94FF0E1
:10192000500383F31188BFF36F8FBFF34F8FFEE730
:10193000013B034A13600BB983F31188704700BF62
:101940001000002000000000000000000000000067
:10195000EFF30980BFF36F8F154B1A681EF0100F5D
:1019600008BF20ED108A20E9F04F10604DF8043DCB
:101970004FF0500080F31188BFF34F8FBFF36F8F8C
:1019800000F0FCF94FF0000080F3118808BC1968E2
:101990000868B0E8F04F1EF0100F08BFB0EC108AD6
:1019A00080F30988BFF36F8F704700BFAFF30080EB
:1019B000E42E012008B54FF0500383F31188BFF3E4
:1019C0006F8FBFF34F8F00F0C9F828B14FF0E023BD
:1019D0004FF08052C3F8042D002383F3118808BD13
:1019E00000F1080343604FF0FF328260C36003617F
:1019F00000230360704743684B609A688A605160B7
:101A000099600861036801330360704703694168A6
:101A100082688A60416851605A68824205D000221B
:101A20000261186801381860704782685A60F6E7EA
:101A300038B5E0B10D460446FFF74CFF2368E26B72
:101A4000216C01FB023060600020A063A360013ABA
:101A500002FB0133E360FF2384F8443084F845300F
:101A6000FDB9236963B9FFF757FF012038BD4FF077
:101A7000500383F31188BFF36F8FBFF34F8FFEE7DF
:101A800004F1100000F0E0F90028ECD04FF0E02362
:101A90004FF08052C3F8042DBFF34F8FBFF36F8F09
:101AA000E1E704F11000FFF79BFF04F12400FFF7CA
:101AB00097FFD8E738B51D46049C0B4649B924600A
:101AC000E063236401212046FFF7B2FF84F84C5005
:101AD00038BD2260F4E740B94FF0500383F311881A
:101AE000BFF36F8FBFF34F8FFEE7F0B583B00C46A7
:101AF0001546064689B101FB00F05030FFF74CFE59
:101B0000074638B100902B4600F15002214630467E
:101B1000FFF7D0FF384603B0F0BD0846EDE7000000
:101B2000084B1B681B6823B9074B4FF0FF321A6044
:101B30007047044B1B68DB68DB685A68024B1A600D
:101B4000704700BF7C2E0120482E0120024A1368F6
:101B500001331360704700BF442E0120F8B53E4B9F
:101B60001B68002B6AD13D4B1D6801351D60C5B94E
:101B70003B4B1B681B6843B14FF0500383F3118844
:101B8000BFF36F8FBFF34F8FFEE7354A1168354BB8
:101B9000186810601960344A136801331360FFF746
:101BA000BFFF324B1B68AB423ED90027304B1B684E
:101BB000DB6A03EB83039A002E4B9B58012B00D961
:101BC00001272D4B1B68002B3FD1FFF77FFD3CE029
:101BD0000127234B1B681B6843B3214B1B68DB6841
:101BE000DC6863689D4226D3261D3046FFF70EFF52
:101BF000A36A1BB104F11800FFF708FFE36A012292
:101C00009A401E49086802430A6003EB83039A0066
:101C1000314618481044FFF7EEFEE26A144B1B6889
:101C2000DB6A9A42D4D2D4E70027D2E70F4B4FF0B9
:101C3000FF321A60BAE70D4A1360B7E70E4A13681D
:101C400001331360FFF742FD00270D4B1B6803B102
:101C500001273846F8BD00BF442E01205C2E01202C
:101C60007C2E0120782E01204C2E0120482E0120B0
:101C7000E42E0120802E0120542E0120582E012018
:101C8000502E012038B5354B1B6843B94FF0500337
:101C900083F31188BFF36F8FBFF34F8FFEE7FFF71A
:101CA00019FE2E4B1A68013A1A601B68002B4FD19F
:101CB0002B4B1B680BB900244BE00024294B1B68FD
:101CC0001BB3284BDB68DC6804F11800FFF79EFEAD
:101CD000251D2846FFF79AFEE06A01238340224A29
:101CE00011680B43136000EB800029461F4B03EB88
:101CF0008000FFF780FEE26A1D4B1B68DB6A9A4298
:101D0000DCD31C4B01221A60D8E70CB1FFF708FFA7
:101D1000194B1C6884B9174B1C68D4B14FF0E023F1
:101D20004FF08052C3F8042DBFF34F8FBFF36F8F76
:101D300001240EE0013C07D0FFF710FF0028F9D086
:101D40000C4B01221A60F5E70B4B00221A60E2E708
:101D50000024FFF7E1FD204638BD00BF442E0120DE
:101D6000602E0120642E0120582E0120802E01209B
:101D7000E42E0120502E0120542E012008B52D4BB9
:101D80001B681BB12C4B01221A6008BD2A4B002294
:101D90001A602A4B1B681B6B1A68B2F1A53F03D16E
:101DA0005A68B2F1A53F1BD0244B1868196834312A
:101DB000FFF78BFC224B1B68B3FA83F3DBB2C3F152
:101DC0001F0303EB83018A001E498A588AB94FF02A
:101DD000500383F31188BFF36F8FBFF34F8FFEE77C
:101DE0009A68B2F1A53FDFD1DB68B3F1A53FDBD143
:101DF000E0E7144803EB83018A0002445168496814
:101E0000516003EB830C4FEA8C020832024491428A
:101E100009D003EB83039A000A4B13445B68DA682A
:101E2000064B1A60B1E7486862469100054A0A44C9
:101E30005060EEE7442E0120502E0120E42E0120B8
:101E4000582E0120802E012038B5C368DC6824B3E9
:101E500004F118052846FFF7D9FD184B1B682BBB6A
:101E6000251D2846FFF7D2FDE06A01238340144A6E
:101E700011680B43136000EB80002946114B03EB04
:101E80008000FFF7B8FDE26A0F4B1B68DB6A9A42DD
:101E900011D901200D4B186038BD4FF0500383F36A
:101EA0001188BFF36F8FBFF34F8FFEE729460848B5
:101EB000FFF7A1FDE7E70020EEE700BF442E012079
:101EC000582E0120802E0120E42E0120502E0120CA
:101ED000642E012053B94AB9002908BF00281CBF4D
:101EE0004FF0FF314FF0FF3000F06AB9ADF1080C50
:101EF0006DE904CE00F006F8DDF804E0DDE9022328
:101F000004B070472DE9F047089D0C46002B4ED1D8
:101F100094468C458646B2FA82F262D94AB1C2F141
:101F20002003914020FA03F30CFA02FC194300FA53
:101F300002FE4FEA1C471FFA8CF6B1FBF7F44FEA9A
:101F40001E4307FB141143EA014304FB06F19942C7
:101F50000AD91CEB030304F1FF3080F0138199428E
:101F600040F21081023C6344591A1FFA8EF3B1FB10
:101F7000F7F007FB101143EA014300FB06F69E420F
:101F80000AD91CEB030300F1FF3180F0FD809E4273
:101F900040F2FA80634402389B1B40EA044000216F
:101FA0001DB1D3400022C5E90032BDE8F0878B4265
:101FB00005D90DB1C5E9000100210846F5E7B3FADE
:101FC00083F1002946D1A34202D39042C0F0F180B0
:101FD000861A64EB03030120002DE6D0C5E90063F7
:101FE000E3E7002A40F09180A1EB0C044FEA1C4883
:101FF0001FFA8CF70121B4FBF8F64FEA1E4308FBE9
:10200000164443EA044307FB06F0984208D91CEB48
:10201000030306F1FF3402D2984200F2CE80264636
:102020001C1A1FFA8EF3B4FBF8F008FB104443EAC5
:10203000044300FB07F79F4208D91CEB030300F1A0
:10204000FF3402D29F4200F2B1802046DB1B40EAFF
:102050000640A5E7C1F120068B4022FA06F71F4390
:1020600020FA06FC04FA01F343EA0C03F44000FAF8
:1020700001F8380C4FEA1349B4FBF0FE1FFA87FC55
:1020800000FB1E4449EA04440EFB0CF9A14502FA88
:1020900001F20AD93C190EF1FF3A80F08580A14582
:1020A00040F28280AEF1020E3C44A4EB09041FFA18
:1020B00083F9B4FBF0F300FB134449EA044403FB47
:1020C0000CFCA44507D93C1903F1FF3068D2A445A4
:1020D00066D9023B3C4443EA0E40A0FB0293A4EBCA
:1020E0000C049C42CE469C4652D34FD055B1B8EB1F
:1020F0000E0364EB0C0404FA06F6CB40CC401E43FE
:10210000C5E900640021BDE8F087C2F1200320FA90
:1021100003F10CFA02FC24FA03F394400C434FEA57
:102120001C4800FA02FE1FFA8CF7B3FBF8F008FB1C
:102130001031230C43EA014300FB07F1994208D90F
:102140001CEB030300F1FF362CD299422AD9023846
:1021500063445B1AA4B2B3FBF8F108FB113344EA01
:10216000034401FB07F3A34208D91CEB040401F16B
:10217000FF3613D2A34211D902396444E41A41EA6A
:10218000004138E70446EFE6084605E7C845ADD20A
:10219000B9EB020E63EB070C0138A7E73146EDE718
:1021A000034698E73046D4E7D6467EE763440238D4
:1021B0004CE70646234608460EE7023E63442FE7F7
:1021C000704700BF002310B50446C0E90033C0E9E2
:1021D0000433836081814366C2818361194608228A
:1021E0005C3000F01FFA0D4B63620D4BA3620D4B88
:1021F000E3620D4B23630D4B24629C4206D003F136
:102200006802944202D0D0339C4205D104F15800B8
:10221000BDE8104000F05ABA10BD00BF0524000808
:10222000272400085F24000883240008E82E0120EA
:10223000024A0349034800F069B800BF14000020B7
:10224000D12F00082400002041680C4B994210B5A2
:10225000044601D000F0BCFEA168094B994202D0AF
:10226000204600F0B5FEE168064B994204D02046B6
:10227000BDE8104000F0ACBE10BD00BFE82E01204C
:10228000502F0120B82F012010B50B4B0B4C0C4ADE
:102290001A60204600220421FFF794FF04F1680031
:1022A00001220921FFF78EFF04F1D0000222BDE8D0
:1022B00010401221FFF786BF20300120E82E0120B8
:1022C00031220008014800F002BA00BF2530012089
:1022D000014800F0FDB900BF2530012010B50446CB
:1022E000FFF7F0FF236A1BB1BDE81040FFF7F0BF16
:1022F000044B2362044B1B68002BF5D1FFF7C4FF8E
:10230000F2E700BF49220008203001202DE9F84300
:102310000746884614460026D4E90195B9F101091B
:1023200005D52468002CF7D13046BDE8F883AB8989
:10233000012B07D9B5F90E30013303D029463846B1
:10234000C04706436835E9E7036A70B58468054607
:102350000E460BB9FFF7C2FF636EDB0705D4A389F6
:10236000980502D4A06D00F0B2F9A389190702D52F
:102370002369002B35D12146284600F0FDF880B3B3
:102380004FF0FF35636EDA0705D4A3899B0502D4AD
:10239000A06D00F09DF9284670BD002B15DB236869
:1023A0005A1C22601970A36816F8011F013BA36034
:1023B0000029F2D1002B16DA22460A21284600F025
:1023C0009DF80130DCD00A25DCE7A2699A4201DCE5
:1023D0000A29E4D12246284600F090F80130E2D1E3
:1023E000CEE7013EDFE723685A1C22600A221A70FA
:1023F000E9E70000024B01461868FFF7A5BF00BFE0
:102400002000002010B50C46B1F90E1000F034F990
:102410000028ABBF636DA3891B1823F48053ACBFA6
:102420006365A38110BD2DE9F0411F468B89DB0553
:1024300005460C46164605D5B1F90E1002230022BA
:1024400000F008F9A389B4F90E1023F48053A38196
:1024500032463B462846BDE8F04100F01FB910B5B2
:102460000C46B1F90E1000F0F5F8431CA38915BF16
:10247000606523F4805343F48053A38118BFA38184
:1024800010BDB1F90E1000F0D5B830B51446002CCF
:102490009BB005461A4605DA8B2303604FF0FF30E8
:1024A0001BB030BD4FF40273ADF80C3014BF04F113
:1024B000FF332346029305934FF6FF730091049177
:1024C000ADF80E3069461E9B00F068FA431CBCBF95
:1024D0008B232B60002CE3D0009B00221A70DFE7D7
:1024E00007B5009313460A46014603480068FFF704
:1024F000CCFF03B05DF804FB20000020F8B50E46C9
:102500001446054618B1036A0BB9FFF7E7FEA36945
:10251000A360A3891A0701D5236943B92146284638
:1025200000F02AF818B14FF0FF373846F8BD23689D
:102530002269981A6369F6B28342374605DC214660
:10254000284600F045FD0028EDD1A368013BA360BB
:1025500023685A1C22601E706269431C9A4204D090
:10256000A389DB07E1D50A2EDFD12146284600F0FA
:102570002FFD0028D9D0D6E738B5294B0546186875
:102580000C4618B1036A0BB9FFF7A8FEB4F90C307A
:10259000190722D4DA0607D409222A6043F040033F
:1025A000A3814FF0FF3033E0580712D5616B41B182
:1025B00004F14403994202D0284600F0A3F8002316
:1025C0006363A38923F02403A38100236360236949
:1025D0002360A38943F00803A38123694BB9A3892E
:1025E00003F42073B3F5007F03D02146284600F0A2
:1025F0003DFDB4F90C3013F001020AD00022A260B4
:1026000062695242A261226942B913F08000C5D1C9
:1026100038BD990758BF6269A260F4E70020F7E768
:102620002000002002440346934200D1704703F883
:10263000011BF9E738B5064D0023044608462B6018
:10264000FEF7AEFD431C02D12B6803B1236038BDF9
:10265000A401002038B5074D044608461146002263
:102660002A601A46FEF756FD431C02D12B6803B1BF
:10267000236038BDA401002038B5074D0446084644
:10268000114600222A601A46FEF7DEFC431C02D1E6
:102690002B6803B1236038BDA401002038B5074D75
:1026A00004460846114600222A601A46FEF746FDF7
:1026B000431C02D12B6803B1236038BDA401002064
:1026C000014B1868704700BF20000020704770471A
:1026D000704710F8012B11F8013B012A28BF9A42DC
:1026E000F7D0D01A70470A44914200F1FF3300D16D
:1026F000704710B511F8014B03F8014F9142F9D121
:1027000010BD000038B50546002941D051F8043C01
:102710000C1F002BB8BFE41800F0D8F81D4A13684E
:1027200033B9636014602846BDE8384000F0D4B87F
:10273000A34208D9206821188B4201BF19685B6841
:1027400009182160EDE71A465B680BB1A342FAD97C
:1027500011685018A0420BD12068014450188342E0
:102760001160E0D118685B68536008441060DAE7D4
:1027700002D90C232B60D6E7206821188B4204BFB6
:1027800019685B68636004BF091821605460CAE778
:1027900038BD00BF2C30012070B50F4E0C4631689B
:1027A000054611B900F0DAFC30602146284600F0F9
:1027B000D5FC431C03D14FF0FF34204670BDC41C30
:1027C00024F00304A042F8D0211A284600F0C6FCE9
:1027D0000130F2D1EFE700BF283001202DE9F041B0
:1027E000CD1C25F0030508350C2D38BF0C25002D18
:1027F000064601DBA94204D90C2333600020BDE862
:10280000F081314F00F062F83B681C4644BB29461A
:102810003046FFF7C1FF431C044650D13C682146B7
:10282000002941D1002C44D02368304604EB030832
:1028300000F094FC80453CD121686D1A2946304651
:10284000FFF7AAFF013034D023682B4423603B6894
:10285000002B36D05A68A24229D100225A600EE0DD
:102860002268521B1DD40B2A16D96119A342256078
:1028700018BF5960636808BF396062514B603046C9
:1028800000F02AF804F10B00231D20F00700C21A03
:10289000B5D01B1AA350B2E7A3426268DED13A60FA
:1028A000EDE723466468B1E70C464968B8E713468C
:1028B000CEE70C233360304600F00EF89EE705604B
:1028C000DDE75B60FFDE00BF2C3001200148FFF731
:1028D000FEBE00BF243001200148FFF7F9BE00BF53
:1028E000243001202DE9F0478E681F46BE420B6858
:1028F00082460C4690462DD8B1F90C2012F4906F08
:1029000026D06569096905EB4505A3EB010905EBCF
:10291000D5757B1C4B446D109D4238BF1D46530539
:1029200027D52946FFF75AFF064660B321694A4674
:10293000FFF7D9FEA38923F4906343F08003A381BA
:10294000266165614E44A5EB09052660A5603E46FB
:10295000BE4200D93E4620683246414600F0C2FBE6
:10296000A3689B1BA3602368334423600020BDE859
:10297000F0872A4600F054FC06460028E0D1216981
:102980005046FFF7BFFE0C23CAF80030A38943F07E
:102990004003A3814FF0FF30E9E700002DE9F04F3D
:1029A00098468B891B069DB007460D46144610D5E8
:1029B0000B6973B94021FFF711FF2860286130B916
:1029C0000C233B604FF0FF301DB0BDE8F08F40237B
:1029D0006B610023099320238DF82930CDF80C80FA
:1029E0003023DFF89C818DF82A304FF0010923460F
:1029F0009A4613F8012B0AB1252AF9D1BAEB040B38
:102A00000BD05B46224629463846FFF76BFF013064
:102A100000F0A780099A5A4409929AF80030002BD6
:102A200000F09F8000234FF0FF32CDE905230AF12B
:102A3000010A049307938DF853301A9354460522E4
:102A400014F8011B4E4800F09BFB049AD8B9D0063D
:102A500044BF20238DF85330110744BF2B238DF83A
:102A600053309AF800302A2B15D0079A544600208C
:102A70004FF00A0C214611F8013B303B092B4BD992
:102A8000B0B1079214E0A0EB080309FA03F3134373
:102A90000493A246D2E7039B191D1B680391002BE8
:102AA000BBBF5B4242F0020207930793B8BF049298
:102AB00023782E2B0AD163782A2B32D1039B1A1D3F
:102AC0001B68039243EAE37302340593DFF8C0A066
:102AD00021780322504600F053FB38B1049BA0EB51
:102AE0000A004022824013430134049314F8011B6E
:102AF00024488DF82810062200F042FB002836D02A
:102B0000214B1BBB039B073323F0070308330393BD
:102B1000099B334409936AE70CFB02320C460120FF
:102B2000A8E700230134059319464FF00A0C20460C
:102B300010F8012B303A092A03D9002BC6D0059191
:102B4000C4E70CFB012104460123F0E703AB00932B
:102B50002A460E4B04A93846AFF30080421C0646B5
:102B6000D6D1AB895B063FF52DAF09982CE703ABB7
:102B700000932A46054B04A9384600F079F8EDE7A2
:102B800099350008A335000800000000E52800087A
:102B90009F3500082DE9F047164698468A680B696C
:102BA000DDF820909342B8BF1346336091F843207C
:102BB00007460C460AB1013333602368990642BFC9
:102BC000336802333360256815F0060506D104F139
:102BD000190AE36832689B1AAB4226DC94F843304A
:102BE0002268003B18BF012392062BD404F1430254
:102BF00041463846C84701301ED02368226903F099
:102C00000603042B02BFE5683368ED1AA3680CBF06
:102C100025EAE57500259342C4BF9B1AED180026EE
:102C20001A34B5421AD1002008E001235246414629
:102C30003846C847013003D14FF0FF30BDE8F08778
:102C40000135C6E7E1185A1C302081F843002244C0
:102C500094F8451082F843100233C7E70123224657
:102C600041463846C8470130E6D00136D9E7000072
:102C70002DE9FF470F7E0C9E782F914680460C462B
:102C80009A4601F1430207D8622F0AD8002F00F0BC
:102C9000DD80582F00F0C38004F1420684F84270B2
:102CA0003AE0A7F16303152BF6D801A151F823F000
:102CB000092D00081D2D0008992C0008992C0008EA
:102CC000992C0008992C00081D2D0008992C00084B
:102CD000992C0008992C0008992C0008332E000824
:102CE000AB2D0008EB2D0008992C0008992C00084A
:102CF000552E0008992C0008AB2D0008992C0008CF
:102D0000992C0008F32D000833681A1D1B683260E7
:102D100004F1420684F842300123A8E031682368B8
:102D2000081D30601E0601D50D6803E05D06FBD569
:102D3000B1F900506168002D78DA2D20002984F85F
:102D40004300A1602DDA5E486D420A231646B5FBAA
:102D5000F3F103FB1157C75D06F8017D2F46BB4217
:102D60000D46F4D9082B0BD12368DF0708D523695A
:102D700061689942DEBF302306F8013C06F1FF3658
:102D8000921B2261CDF800A04B4603AA2146404683
:102D9000FFF700FF01306FD14FF0FF3004B0BDE806
:102DA000F08723F004032360CDE721683368080629
:102DB00053F8045B02D4490648BFADB26F2F4048B8
:102DC000336014BF0A230823002184F84310666887
:102DD000A660002EBADB216821F004012160002DDD
:102DE000B4D1002EB2D11646BCE7236843F02003CD
:102DF00023603448782784F84570236831681F06BB
:102E000051F8045B02D45F0648BFADB23160D90708
:102E100044BF43F0200323601DB11023D4E72848AA
:102E2000E9E7236823F020032360F6E724480A2318
:102E3000CDE7336825686169181D30602E061B6870
:102E400001D5196002E06806FBD5198000232361D3
:102E5000164697E733681A1D32601E6862680021C3
:102E6000304600F08DF908B1801B60606368236113
:102E7000002384F8433085E72369324649464046BB
:102E8000D047013088D023689B0714D4E068039BA7
:102E90009842B8BF184681E701233246494640466A
:102EA000D04701303FF478AF0135E36803995B1AEE
:102EB000AB42F1DCEAE7002504F11906F5E700BFB3
:102EC000AA350008BB350008B1F90C202DE9F04106
:102ED000170705460C4656D44B68002B02DC0B6CDA
:102EE000002B3DDDE66A002E3AD0002312F480521A
:102EF0002F68216A2B6025D0626DA389580705D5FC
:102F00006368D21A636B0BB1236CD21A216AE66A2A
:102F100000232846B047411C24D000236360236966
:102F20002360A389DA0400D56065616B2F60B9B1B5
:102F300004F14403994202D02846FFF7E3FB002343
:102F400063630DE001232846B047461C0246D4D1F6
:102F50002B68002BD1D01D2B01D0162B2BD12F602D
:102F600000202FE02A68B4F90C3042B11D2A01D0AC
:102F7000162A22D10023636023692360D5E76260AB
:102F800022692260CEE70F69002FE9D093070E680F
:102F900008BF4B690F6018BF0023A6EB07088B60C2
:102FA000B8F1000FDCDD216AA66A43463A4628469E
:102FB000B047002808DCB4F90C3043F04003A3818B
:102FC0004FF0FF30BDE8F0810744A8EB0008E7E7C9
:102FD00038B50B6905460C4613B90025284638BD9F
:102FE00018B1036A0BB9FFF779F9B4F90C30002B6B
:102FF000F3D0626ED00704D4990502D4A06DFFF718
:1030000066FB28462146FFF75FFF636EDA07054639
:10301000E4D4A3899B05E1D4A06DFFF759FBDDE75C
:1030200070B50C46B1F90E10002996B015461E4633
:103030000DDAA38913F0800F4FF0000114BF402375
:103040004FF48063002031602B6016B070BD6A467B
:1030500000F062F80028ECDB019901F47041A1F561
:103060000053594259414FF48063EBE78B89F7B520
:103070009D0706460C4607D504F1470323602361EC
:103080000123636103B0F0BD01AB6A46FFF7C8FFDF
:10309000009F054639463046FFF7A0FB48B9B4F912
:1030A0000C309A05EED423F0030343F00203A3810E
:1030B000E2E7A389206043F08003A381019BC4E978
:1030C00004075BB1B4F90E10304600F037F828B1B0
:1030D000A38923F0030343F00103A381A3891D43C4
:1030E000A581CFE7884210B501EB020402D98442E2
:1030F000234607D8431EA14208D011F8012B03F83C
:10310000012FF8E7024401468A4200D110BD13F8AE
:10311000014D02F8014DF7E738B5074D002304468D
:10312000084611462B60FEF781F8431C02D12B683C
:1031300003B1236038BD00BFA401002038B5064D9F
:103140000023044608462B60FEF77DF8431C02D19D
:103150002B6803B1236038BDA401002038B5064DAB
:103160000023044608462B60FDF73EFE431C02D1B7
:103170002B6803B1236038BDA401002000000000CB
:1031800001F0FF01102A2BDB10F0070F08D010F818
:10319000013B013A8B422DD010F0070F42B3F6D11C
:1031A000F0B441EA012141EA014122F007047FF035
:1031B00000070023F0E80256083C85EA010586EA8C
:1031C000010685FA47F5A3FA87F586FA47F6A5FAC8
:1031D00087F68EB9EED1F0BC01F0FF0102F00702D4
:1031E00032B110F8013B013A83EA010313B1F8D17F
:1031F0000020704701387047002D06BF3546033860
:10320000073815F0010F07D1013015F4807F02BF98
:10321000013015F4C03F0130F0BC0138704700BFE9
:103220002DE9F041804615460C4621B9BDE8F04134
:103230001146FFF7D3BA2AB9FFF764FA00242046F3
:10324000BDE8F08100F01AF88542064602D8B5EBD9
:10325000500FF4D829464046FFF7C0FA0746002829
:10326000ECD0B5422A46214628BF3246FFF73BFA4A
:1032700021464046FFF746FA3C46E0E751F8043C59
:10328000181F002BBCBF0B58C01870472E2E2F7371
:10329000797374656D2F7372632F73746D33326637
:1032A000342D68616C2F73746D3332663478785FB7
:1032B00068616C5F636F727465782E630000000054
:1032C0002E2E2F73797374656D2F7372632F737441
:1032D0006D333266342D68616C2F73746D333266D2
:1032E0003478785F68616C5F7263632E63000000FE
:1032F0003A747400537461636B206672616D653A51
:103300000A000000205230203D2020253038580A85
:1033100000000000205231203D2020253038580A7E
:1033200000000000205232203D2020253038580A6D
:1033300000000000205233203D2020253038580A5C
:103340000000000020523132203D20253038580A3C
:1033500000000000204C52203D2020253038580A23
:1033600000000000205043203D2020253038580A1E
:103370000000000020505352203D20253038580ACC
:10338000000000004653522F4641523A0A00000006
:103390002043465352203D2020253038580A000053
:1033A0002048465352203D2020253038580A00003E
:1033B0002044465352203D2020253038580A000032
:1033C0002041465352203D2020253038580A000025
:1033D000204D4D464152203D20253038580A0000EE
:1033E0002042464152203D2020253038580A000016
:1033F0004D6973630A000000204C522F4558435F0B
:1034000052455455524E3D20253038580A00000090
:103410005B486172644661756C745D0A000000006F
:103420005B4275734661756C745D0A005B55736130
:1034300067654661756C745D0A000000000000005D
:1034400000000000010203040607080957726F6EAE
:103450006720706172616D65746572732076616C4E
:1034600075653A2066696C65202573206F6E206C47
:10347000696E652025640D0A0000000051756575B0
:103480006520436F756C64206E6F742062652063E5
:1034900072656174656420000020202020202020B7
:1034A00020202828282828202020202020202020F4
:1034B0002020202020202020208810101010101004
:1034C0001010101010101010100404040404040450
:1034D00004040410101010101010414141414141EA
:1034E00001010101010101010101010101010101CC
:1034F00001010101101010101010424242424242DC
:10350000020202020202020202020202020202029B
:103510000202020210101010200000000000000043
:10352000000000000000000000000000000000009B
:10353000000000000000000000000000000000008B
:10354000000000000000000000000000000000007B
:10355000000000000000000000000000000000006B
:10356000000000000000000000000000000000005B
:10357000000000000000000000000000000000004B
:10358000000000000000000000000000000000003B
:10359000000000000000000000232D302B200068F8
:1035A0006C4C006566674546470030313233343530
:1035B000363738394142434445460030313233349E
:0C35C00035363738396162636465660097
:0835CC0038E9FF7F0100000057
:1035D4007856341201FFFFFF100000000024F400AD
:1035E400AAAAAAAA0000000003000000E82E0120F5
:1035F4002400002000000000E82E0120502F0120AC
:10360400B82F0120000000000000000000000000AE
:1036140000000000000000000000000000000000A6
:103624000000000000000000000000000000000096
:103634000000000000000000000000000000000086
:0436440032547698EE
:040000050800018965
:00000001FF
