:020000040800F2
:1000000000000220B9020008BF020008C302000875
:1000100035030008390300088103000800000000D0
:100020000000000000000000000000003122000875
:10003000CD03000800000000F1220008552300084D
:10004000E5030008E5030008E5030008E5030008F0
:10005000E5030008E5030008E5030008E5030008E0
:10006000E5030008E5030008E5030008E5030008D0
:10007000E5030008E5030008E5030008E5030008C0
:10008000E5030008E5030008E5030008E5030008B0
:10009000E5030008E5030008E5030008E5030008A0
:1000A000E5030008E5030008E5030008E503000890
:1000B000E5030008E5030008E5030008E503000880
:1000C000E5030008E5030008E5030008E503000870
:1000D000E5030008E5030008E5030008E503000860
:1000E000E5030008E5030008E5030008E503000850
:1000F000E5030008E5030008E5030008E503000840
:10010000E5030008E5030008E5030008E50300082F
:10011000E5030008E5030008E5030008E50300081F
:10012000E5030008E5030008E5030008E50300080F
:10013000E5030008E5030008E5030008E5030008FF
:10014000E5030008E5030008E5030008E5030008EF
:10015000E5030008E5030008E5030008E5030008DF
:10016000E5030008E5030008E5030008E5030008CF
:10017000E5030008E5030008E503000800000000AF
:10018000E5030008E503000800B583B001F0F6F9C7
:10019000384B394A1360394A1360394906E052F83E
:1001A000041B43F8041B9842F9D86146354B994229
:1001B00005D20A684B6801F10C0C8868F3E72E4BF6
:1001C0001A68314B9A4200D0FEE72C4B1A682F4B2D
:1001D0009A42F9D1274B2E4A13602E4A13602E4AB9
:1001E00000E002462D4B9A4209D2104650F8083BD7
:1001F00051689942F5D9002243F8042BF9E7244BC2
:100200001B6813B9234B1B6803B1FEE701F06AFAC0
:10021000694601A800F0CCFE214C224BE41AA41040
:10022000002504E01F4B53F8253098470135AC42B8
:10023000F8DC1D4C1D4BE41AA410002504E01B4BF8
:1002400053F8253098470135AC42F8DC0099019805
:1002500001F010FD0546164C164BE41AA41004E0FC
:10026000013C144B53F824309847002CF8DC284606
:1002700000F03AFEBABADECA00000020A400002056
:10028000E8030008000400087856341232547698C7
:10029000A80000209C310120000400081004000880
:1002A00010040008100400081004000810040008DE
:1002B000100400081004000808B5FFF765FF00BE31
:1002C000FEE71EF0040F0CBFEFF30880EFF3098088
:1002D0007146414A10472DE9F04182B004460D466F
:1002E000124B5F6BD3F838809E6A1B6B13F0020FC2
:1002F00003D00E4BDB6A002B0BDB0D4801F018F826
:10030000009543463A463146204601F04DF800BE7E
:10031000FEE74BF6AB6101F0C1F80028EDD0034BCE
:100320004FF00042DA6202B0BDE8F08100ED00E07B
:100330008454000800BEFEE71EF0040F0CBFEFF36C
:100340000880EFF309807146244A10472DE9F041F7
:1003500082B004460D46084B5F6BD3F838809E6A26
:10036000064800F0E5FF009543463A4631462046F0
:1003700001F01AF800BEFEE700ED00E0945400081A
:100380001EF0040F0CBFEFF30880EFF309807146F5
:10039000134A10472DE9F04182B004460D46084B40
:1003A0005F6BD3F838809E6A064800F0C1FF009565
:1003B00043463A463146204600F0F6FF00BEFEE7CF
:1003C00000ED00E0A054000800BEFEE700BEFEE71E
:1003D00000BEFEE770470000D70200084D0300088A
:0803E0009503000800BEFEE7D2
:1003E8005459000800000020A800002054590008B3
:1003F8000000001000000010A8000020A03101201B
:080408000000001000000010CC
:1004100010B504460E4B1A784FF47A73B3FBF2F31F
:100420000C4A1068B0FBF3F000F0AEF868B90F2C7E
:1004300001D901200AE0002221464FF0FF3000F0F0
:100440007FF8054B1C60002000E0012010BD00BFBC
:10045000040000200C0000200800002008B50B4B11
:100460001A6842F400721A601A6842F480621A60D4
:100470001A6842F480721A60032000F043F80F20DB
:10048000FFF7C6FF01F068FD002008BD003C0240F8
:10049000014B1868704700BFAC000020002808DB43
:1004A0000901C9B200F1604000F5614080F8001315
:1004B000704700F00F000901C9B2014B1954704791
:1004C00014ED00E000B500F00700C0F1070CBCF12E
:1004D000040F28BF4FF0040C031D062B0FD9C31EB9
:1004E0004FF0FF3E0EFA0CF021EA000199400EFA9F
:1004F00003FE22EA0E0241EA02005DF804FB00233B
:10050000EEE7000010B50446C31E042B0FD80A4ABC
:10051000D36823F4E0631B041B0C240204F4E0649E
:10052000234343F0BF6343F40033D36010BD9221F3
:10053000024801F0DFF8EAE700ED00E0AC52000805
:1005400070B506460C4615460F2A0ED80F2C11D84A
:100550000B4BD8682A462146C0F30220FFF7B2FFB2
:1005600001463046FFF79AFF70BDAA21054801F009
:10057000C1F8EBE7AB21034801F0BCF8E8E700BFA6
:1005800000ED00E0AC5200080138B0F1807F0BD2E2
:100590004FF0E0235861054AF02182F82310002033
:1005A000986107221A6170470120704700ED00E052
:1005B00008B5042807D068B94FF0E022136923F08A
:1005C0000403136108BD4FF0E022136943F00403F4
:1005D0001361F7E740F2C911014801F08BF8EBE72E
:1005E000AC520008002800F05B8270B582B004466F
:1005F00003680F2B39D8236813F0010F4DD06368BF
:100600002BB1B3F5803F02D0B3F5A02F32D1804B90
:100610009B6803F00C03042B36D07D4B9B6803F0E2
:100620000C03082B2BD06368B3F5803F5FD0B3F584
:10063000A02F62D0764B1A6822F480321A601A68B2
:1006400022F480221A606368002B60D0FFF720FF3D
:1006500005466F4B1B6813F4003F1ED1FFF718FFD0
:10066000401B6428F5D9032021E2E821694801F004
:1006700041F8C0E7ED21674801F03CF8C7E7644B5B
:100680005B6813F4800FCED0614B1B6813F4003FFE
:1006900003D06368002B00F00582236813F0020F7B
:1006A00066D0E368012B41D823691F2B44D8584BEF
:1006B0009B6813F00C0F4AD0554B9B6803F00C035A
:1006C000082B3FD0E368002B77D0534B01221A60F0
:1006D000FFF7DEFE05464E4B1B6813F0020F63D199
:1006E000FFF7D6FE401B0228F5D90320DFE1484A78
:1006F000136843F480331360A5E7454B1A6842F44E
:1007000080221A601A6842F480321A609BE7FFF771
:10071000BFFE05463E4B1B6813F4003FBDD0FFF7FC
:10072000B7FE401B6428F5D90320C0E140F21F1139
:10073000384800F0DFFFB7E74FF49071354800F01C
:10074000D9FFB4E7324B5B6813F4800FBAD1304B5A
:100750001B6813F0020F03D0E368012B40F0A48163
:100760002B4A136823F0F803216943EAC10313609D
:10077000236813F0080F51D06369012B2FD86369E8
:100780009BB3254B0122C3F8802EFFF781FE05465F
:100790001F4B5B6F13F0020F40D1FFF779FE401B38
:1007A0000228F5D9032082E1194A136823F0F803DF
:1007B000216943EAC1031360DAE7174B00221A608C
:1007C000FFF766FE0546124B1B6813F0020FCFD0F1
:1007D000FFF75EFE401B0228F5D9032067E14FF4C6
:1007E000B0710C4800F086FFC9E70B4B0022C3F83C
:1007F000802EFFF74DFE0546054B5B6F13F0020F91
:100800000CD0FFF745FE401B0228F5D903204EE12E
:1008100000380240E052000800004742236813F00D
:10082000040F7CD0A368012B01D9052B38D1A44B30
:100830001B6C13F0805F39D100230193A04B1A6C1D
:1008400042F080521A641B6C03F080530193019BA9
:1008500001259C4B1B6813F4807F29D0A368012BD2
:100860003AD0052B3ED0964B1A6F22F001021A6740
:100870001A6F22F004021A67A368002B3CD0FFF71E
:1008800007FE06468E4B1B6F13F0020F45D1FFF794
:10089000FFFD801B41F288339842F3D9032006E123
:1008A0004FF4C671884800F025FFC0E70025D0E767
:1008B000844A136843F480731360FFF7E9FD06462A
:1008C000804B1B6813F4807FC8D1FFF7E1FD801BCC
:1008D0000228F5D90320EAE0794A136F43F00103B7
:1008E0001367C9E7764B1A6F42F004021A671A6F52
:1008F00042F001021A67BFE7FFF7CAFD0646704BD8
:100900001B6F13F0020F08D0FFF7C2FD801B41F2EE
:1009100088339842F3D90320C9E0002D3ED1A36962
:10092000022B41D8A369002B00F0C080644A926872
:1009300002F00C02082A00F09380022B7CD1E369BC
:1009400013B1B3F5800F35D1236A3F2B38D8636AD2
:10095000323BB3F5BF7F39D8A36A022B08D0082BEE
:100960003AD84FF4A87222FA03F313F0010F33D0F0
:10097000E36A023B0D2B35D8544B00221A66FFF771
:1009800087FD05464E4B1B6813F0007F30D0FFF704
:100990007FFD401B0228F5D9032088E0484A136CEC
:1009A00023F080531364BAE740F2CF11464800F0B9
:1009B000A1FEB7E74FF4EC71434800F09BFEC3E79C
:1009C00040F2D911404800F095FEC0E74FF4ED71B8
:1009D0003D4800F08FFEBFE740F2DB113A4800F0DF
:1009E00089FEC5E74FF4EE71374800F083FEC3E798
:1009F000E369226A1343626A43EA8213A26A5208D5
:100A0000013A43EA0243E26A43EA02632C4A536032
:100A10002E4B01221A66FFF73BFD0446284B1B684C
:100A200013F0007F06D1FFF733FD001B0228F5D934
:100A300003203CE000203AE0244B00221A66FFF736
:100A400027FD04461E4B1B6813F0007F06D0FFF7FE
:100A50001FFD001B0228F5D9032028E0002026E016
:100A6000012B26D0164B5B6803F48001E2699142AA
:100A700021D103F03F02216A8A421ED1616A47F602
:100A8000C0721A408A4223D103F44032A16A8A42DA
:100A900020D103F07063E26A93421DD1002006E08A
:100AA00001207047012002E0012000E0002002B098
:100AB00070BD0120FBE70120F9E70120F7E700BF47
:100AC0000038024000700040E05200080000474239
:100AD0000120ECE70120EAE70120E8E708B5334B05
:100AE0009B6803F00C03042B5BD0082B5BD12F4BCE
:100AF0005A6802F03F025B6813F4800F2CD02B4B36
:100B00005868C0F388104FEA401CBCEB000C6EEB39
:100B10000E0E4FEA8E1343EA9C634FEA8C11B1EB41
:100B20000C0163EB0E03DB0043EA5173C90011EBC8
:100B3000000C43F10003590200234FEA4C2041EA24
:100B4000DC5102F0D3FF194B5B68C3F3014301335F
:100B50005B00B0FBF3F027E0144B5868C0F388103B
:100B60004FEA401CBCEB000C6EEB0E0E4FEA8E13EE
:100B700043EA9C634FEA8C11B1EB0C0163EB0E036B
:100B8000DB0043EA5173C90011EB000C43F1000391
:100B9000990200234FEA8C2041EA9C5102F0A6FF03
:100BA000D1E7034800E0034808BD00BF0038024019
:100BB00000127A000024F400002800F0FA8070B5DA
:100BC0000D4604460368013B0E2B30D8072D34D860
:100BD0007C4B1B6803F00F03AB4208D2EBB2794A9F
:100BE0001370136803F00F03AB4240F0E4802368F6
:100BF00013F0020F32D013F0040F04D0724A93683E
:100C000043F4E0539360236813F0080F04D06E4A56
:100C1000936843F460439360A368C3B1C02B16D0BC
:100C200049D8A02B13D00ED9B02B10D049E040F2F8
:100C30005121664800F05EFDC8E740F2522163484A
:100C400000F058FDC4E7802B01D0902B39D15E4ACB
:100C5000936823F0F003A1680B439360236813F0BB
:100C6000010F48D06368032B31D86368012B34D05F
:100C70009A1E012A38D9544A126812F0020F00F065
:100C80009C8051498A6822F0030213438B60FFF76E
:100C9000FFFB06464C4B9B6803F00C036268B3EB0A
:100CA000820F28D0FFF7F4FB801B41F28833984273
:100CB000F0D9032070E0E02BC9D0F02BC7D0D02BA7
:100CC000C5D040F27521414800F014FDBFE74FF454
:100CD0001F713E4800F00EFDC7E73B4A126812F450
:100CE000003FCED1012057E0374A126812F0007F52
:100CF000C7D1012050E0334B1B6803F00F03AB4218
:100D000007D9EAB22F4B1A701B6803F00F03AB42EE
:100D100055D1236813F0040F14D0E3685BB1B3F529
:100D2000805F08D0B3F5A05F05D0B3F5C05F02D0F7
:100D3000B3F5E05F31D1244A936823F4E053E168CE
:100D40000B439360236813F0080F15D023695BB140
:100D5000B3F5805F08D0B3F5A05F05D0B3F5C05FF1
:100D600002D0B3F5E05F1ED1174A936823F46043C5
:100D7000216943EAC1039360FFF7B0FE124B9B6801
:100D8000C3F30313124AD35CD840124B1860124BC2
:100D90001868FFF73DFB002070BD40F2BA210B48F8
:100DA00000F0A8FCC7E740F2C121084800F0A2FC0F
:100DB000DAE7012070470120EEE70120ECE701208F
:100DC000EAE700BF003C024000380240E052000861
:100DD000B05400080C00002008000020014B1868E7
:100DE000704700BF0C00002000B583B08C46194648
:100DF00052B11446064B01940093634602460548DF
:100E000000F096FA00F00AF8034B1C46F3E700BF27
:100E10001053000820530008EC54000808B503489C
:100E200000F0A0FA012000F05FF800BF5053000866
:100E300008B503460C4A12685AB10B4A10680333CE
:100E400023F003030344094A934206D8064A136079
:100E500008BD054A06491160EFE703F0EFFA0C23DD
:100E600003604FF0FF30F3E7B000002000FC0120EA
:100E7000A031012030B51324002520462946ABBE01
:100E80000446204630BD38B5044603F0D7FA05467F
:100E9000FFF7F0FF2860204638BDB0F1FF3F00D0DB
:100EA000704708B5FFF7EFFF08BD000010B5044616
:100EB0000B4B186808B143685BB1132C0CD8094B75
:100EC00053F83430B3F1FF3F08D0064800EBC400BC
:100ED00010BD03F07BF8F0E70020F9E70020F7E70A
:100EE000540000203801002000B530B9044D18240A
:100EF00020462946ABBE0446FEE7024DF7E700BF99
:100F000026000200230002002DE9F04184B0234FA7
:100F100001970326039600230293012401AD204686
:100F20002946ABBE80461E4BC3F80080019703964E
:100F30000423029320462946ABBE8046194BC3F8D2
:100F40000080019703960823029320462946ABBEF2
:100F50000446154B1C60B4F1FF3F01D000230AE0AA
:100F6000104B1A68104B1A60F8E7104A4FF0FF3127
:100F700042F833100133132BF7DD0C4B084A12688B
:100F80001A6000225A60074909689960DA600649C8
:100F9000096819615A6104B0BDE8F0816453000822
:100FA00034010020300100202C01002038010020F5
:100FB0002DE9F04383B0814688462A4B00934F23A6
:100FC000019315276C4638462146ABBE0746AFBB9A
:100FD000244B002283F84F20009A3E463C463D4673
:100FE00007E001321E46204B43F82520013501243D
:100FF000013292F90030FBB164B91C49C95600298D
:10100000F6DB092BF4D0082D16DC222BE9D0272B98
:10101000E9D1E6E736B19E42EAD1002313703E469D
:101020003C46E5E71149C956002901DB092BDFD110
:10103000002313703446DBE73DB900E00025094B7F
:1010400000221A70084A13600135074B002243F84A
:101050002520C9F80050C8F80030FFF755FF03B04D
:10106000BDE8F083DC000020B4000020195800081F
:1010700030B585B0019002910392062401AD20465F
:101080002946ABBE04462046FFF707FF05B030BD3A
:1010900070B50D461446FFF709FF68B106462246B3
:1010A00029460068FFF7E4FFB0F1FF3F03D0736803
:1010B000201A0344736070BD03F0C0F90923036074
:1010C0004FF0FF30F7E7F0B583B00C461546FFF759
:1010D000EDFEC0B10646022D1CD8012D21D0022DF7
:1010E00029D03368009301940A256F462846394673
:1010F000ABBE05462846FFF7D0FE00282BDB746008
:10110000204603B0F0BD03F099F9092303604FF0C6
:10111000FF30F6E703F092F9162303604FF0FF303B
:10112000EFE74368E418DCD503F088F91623036081
:101130004FF0FF30E5E7036800930C256F46284623
:101140003946ABBE05462846FFF7A7FEB0F1FF3F84
:10115000D7D00444C5E74FF0FF30D2E708B5FFF71A
:10116000B2FF08BD30B585B001900291039205240D
:1011700001AD20462946ABBE04462046FFF78DFE52
:1011800005B030BD70B50D461446FFF78FFE70B147
:101190000646224629460068FFF7E4FF031E11DBDE
:1011A0007268E01A024472609C4207D070BD03F07E
:1011B00045F9092303604FF0FF30F7E70020FFF700
:1011C00062FEF3E74FF0FF30F0E730B583B00190F7
:1011D000022401AD20462946ABBE04462046FFF757
:1011E0005CFE03B030BD000038B50446FFF75EFE7C
:1011F00080B10546601E012804D80C4B9A681B6913
:101200009A420ED02868FFF7E0FF10B94FF0FF3385
:101210002B6038BD03F012F9092303604FF0FF3053
:10122000F7E74FF0FF332B600020F2E73801002092
:1012300070B50C46FFF73AFEA8B10646636843F462
:10124000005363604FF48063A3640C252846314645
:10125000ABBE05462846FFF720FEB0F1FF3F01D0A8
:101260002061002070BD03F0E9F8092303604FF00E
:10127000FF30F7E738B505460C46582200212046D6
:1012800003F08EF821462846FFF7D2FF38BD38B567
:10129000FFF70CFE80B10546092420462946ABBE67
:1012A00004462046012C06D003F0C8F80446FFF798
:1012B000E1FD2060002038BD03F0C0F80923036081
:1012C0000020F8E72DE9F04385B004460F46435669
:1012D0003BBB042528462146ABBE0546384605B033
:1012E000BDE8F08314F901CB03F110026A4402F85F
:1012F00010CC0133AB42F5D310336B44002203F81A
:10130000102C4FF00408E94640464946ABBE8046E3
:10131000761B002EE2D03546102E28BF1025002364
:10132000E8E70E46F5E708B5FFF7CCFF08BD00007B
:101330000FB400B583B004AB53F8042B01938021A4
:10134000074802F08BFF002804DC03B05DF804EBD3
:1013500004B0704701460248FFF7E5FFF5E700BF1C
:10136000DC01002010B5044603F089F80146204650
:10137000FFF7D9FF01210248FFF7D5FF10BD00BFDD
:1013800098560008BFF34F8F0549CA6802F4E0621F
:10139000044B1343CB60BFF34F8F00BFFDE700BF8B
:1013A00000ED00E00400FA05F8B504460D461746C6
:1013B0001E462748FFF7BCFF21682648FFF7B8FF05
:1013C00061682548FFF7B4FFA1682448FFF7B0FF24
:1013D000E1682348FFF7ACFF21692248FFF7A8FF27
:1013E00061692148FFF7A4FFA1692048FFF7A0FF2A
:1013F000E1691F48FFF79CFF1E48FFF799FF294648
:101400001D48FFF795FF1D4CE16A1D48FFF790FF4F
:10141000216B1C48FFF78CFFE16B1B48FFF788FF2F
:1014200015F0800F0AD115F4004F0CD11748FFF7C3
:101430007FFF06991648FFF77BFFF8BD3946154830
:10144000FFF776FFEFE731461348FFF771FFEDE74F
:101450006853000878530008885300089853000820
:10146000A8530008B8530008C8530008D853000810
:10147000E8530008F85300080454000800ED00E0A9
:10148000145400082454000834540008645400081C
:101490006C540008445400085454000838B583695B
:1014A0001B888B4201D0002038BD04460368456884
:1014B000013B302B5ED8DFE803F03B211C1C53308E
:1014C000332D19195D19191919193619245D1927A0
:1014D0005D395D5D5D5D5D5D5D5D5D5D5D5D5D5D60
:1014E0005D5D5D5D5D5D5D5D5D1919004FF0FF3314
:1014F0000360A3690233A3610120D5E700230360E1
:10150000F7E700230360F4E700232B606B60AB6018
:10151000EB60EEE700230360EBE7AB680360E8E70E
:1015200000230360E5E700230360E2E7FFF72AFFFB
:101530001149286802F08BFF40B96B6813B9012389
:101540002360D6E7042B05D0082B06D04FF0FF33DD
:101550002360CEE702232360CBE703232360C8E7A1
:101560002B68023B012B02D9AB680360C1E7002363
:101570000360BEE7002097E76453000808B500F059
:1015800009F8024A024B9A6008BD00BF000000083B
:1015900000ED00E0024B4FF000629A60704700BF20
:1015A00000ED00E0224B9B6803F00C03042B14D0E9
:1015B000082B16D01BB11F4B1F4A1A6002E01D4BAF
:1015C0001D4A1A601A4B9B68C3F303131B4AD15C74
:1015D000184A1368CB4013607047164B184A1A60BC
:1015E000F0E7134B59685A6802F03F0211F4800F7C
:1015F00013D0134BB3FBF2F30D4A5268C2F38812B7
:1016000002FB03F30A4A5268C2F30142013252005C
:10161000B3FBF2F3074A1360D4E7074BB3FBF2F3D3
:10162000034A5268C2F3881202FB03F3EAE700BFE1
:10163000003802400C0000200024F400B0540008E0
:1016400000127A0030B595B000240194224B1A6C38
:1016500042F080521A641B6C03F080530193019B8B
:1016600002941E4B1A6842F480421A601B6803F40D
:1016700080430293029B012308934FF48033099324
:101680004FF480030F93082310934FF4A873119322
:1016900002251295072313930E9508A8FEF7A2FFC3
:1016A0000F230393049505944FF4A05306934FF42E
:1016B00080530793052103A8FFF77EFAFFF78EFBFF
:1016C000074BA3FB00308009FEF75EFF0420FEF706
:1016D0006FFF15B030BD00BF003802400070004001
:1016E000D34D621008B5FEF7B9FEFFF7ABFFFFF769
:1016F00059FF08BD08B50A4601460248FFF718FE23
:10170000FEE700BFC054000801282ED04FF0500360
:1017100083F31188BFF36F8FBFF34F8FFEE7144A37
:1017200013680133136001F053FC034601AC114A06
:101730003221204602F0F0FC009400234FF0FF32EB
:1017400019460D48006801F05AF90128EBD1002331
:101750001A4669460948006801F027F80128DED0DA
:10176000074A136801331360DDE710B58EB0DAE77E
:10177000B0020020F05400089002002094020020E3
:10178000A402002001282ED04FF0500383F31188CB
:10179000BFF36F8FBFF34F8FFEE7144A1368013317
:1017A000136001F015FC034601AC114A32212046BA
:1017B00002F0B2FC009400234FF0FF3219460D48AE
:1017C000006801F01CF90128EBD100231A46694694
:1017D0000948006800F0E9FF0128DED0074A1368D5
:1017E00001331360DDE710B58EB0DAE7AC020020FC
:1017F000F05400088C02002094020020A002002077
:1018000001282ED04FF0500383F31188BFF36F8F60
:10181000BFF34F8FFEE7144A13680133136001F0E2
:10182000D7FB034601AC114A3221204602F074FC7A
:10183000009400234FF0FF3219460D48006801F074
:10184000DEF80128EBD100231A46694609480068F2
:1018500000F0ABFF0128DED0074A136801331360A4
:10186000DDE710B58EB0DAE7A8020020F0540008DA
:1018700088020020940200209C020020012808D049
:101880004FF0500383F31188BFF36F8FBFF34F8F77
:10189000FEE700B583B000234FF0FF3219460B4836
:1018A000006801F0ACF80128F5D100231A4601A91F
:1018B0000748006801F0A3F80128ECD1054A136835
:1018C00001331360019802F01FFCE4E7840200205A
:1018D000940200209802002038B505460C4602F01C
:1018E000ABFA611B013190FBF1F301FB13002844BB
:1018F00038BD000030B583B00546144B1B68144A50
:1019000052F82310134A52F82300FFF7E5FF124B59
:101910001860124A1368034413604FF47A7303FB90
:1019200000F20F4BA3FB02320024009423469209DD
:101930000421284601F06EFF23462246214609482D
:10194000006800F032FF03B030BD00BF100000207F
:10195000140000202C000020680200205C020020FF
:10196000D34D62108802002030B583B00546144B79
:101970001B68144A52F82310134A52F82300FFF749
:10198000ABFF124B1860124A1368034413604FF404
:101990007A7303FB00F20F4BA3FB02320024009486
:1019A000234692090421284601F034FF23462246AB
:1019B00021460948006800F0F8FE03B030BD00BFC2
:1019C00010000020140000202C0000206C020020D9
:1019D00060020020D34D62108C02002030B583B02D
:1019E0000546144B1B68144A52F82310134A52F848
:1019F0002300FFF771FF124B1860124A136803446B
:101A000013604FF47A7303FB00F20F4BA3FB023217
:101A100000240094234692090421284601F0FAFE8E
:101A20002346224621460948006800F0BEFE03B066
:101A300030BD00BF10000020140000202C0000204A
:101A40007002002064020020D34D6210900200203A
:101A50002DE9F843304B19680131304802F0ECFAB7
:101A6000DFF80C91D9F800102D4802F0E5FADFF804
:101A70000481D8F800102B4802F0DEFA2A4F3968AA
:101A80002A4802F0D9FA2A4E31682A4802F0D4FADC
:101A9000294D2968294802F0CFFA294C21682948A4
:101AA00002F0CAFAD9F800103B6819442B681944AF
:101AB000254802F0C1FA254B1968254802F0BCFA06
:101AC000D8F800103368194423681944214802F0FB
:101AD000B3FAD9F80030D8F8002013441E4A116830
:101AE00091FBF3F11D4802F0A7FA3B6832681344FA
:101AF0001B4A116891FBF3F11A4802F09DFA2B681A
:101B000022681344184A116891FBF3F1174802F058
:101B100093FABDE8F88300BF1000002000550008CC
:101B20003C55000860550008AC02002088550008AC
:101B3000A0020020AC550008A8020020D4550008DF
:101B40009C020020F855000820560008980200204A
:101B50003C5600085C560008640200207C560008D1
:101B6000600200209C5600085C020020BC56000861
:101B7000B0020020A402002000230A4A13600A4A8F
:101B800013600A4A13600A4A13600A4A13600A4A39
:101B900013600A4A13600A4A13600A4A13600A4A29
:101BA00013607047B0020020AC020020A8020020A1
:101BB000A4020020A00200209C0200209802002025
:101BC00064020020600200205C02002010B582B098
:101BD000FFF7D2FF0021154B186800F06FFD144A83
:101BE000136801331360052B01DC02B010BD002423
:101BF00000942346224605210E48006801F00AFEA3
:101C000000942346224605210B48006801F002FE9D
:101C100000942346224605210848006801F0FAFD99
:101C2000074802F071FA01F0B9F9DEE794020020EA
:101C300010000020800200207C020020780200209A
:101C4000DC56000808B500231A4619460748006804
:101C500000F0ABFD064B1B68B3F57A7F00DA08BDD8
:101C6000FFF7F6FEFFF7B2FFF9E700BF840200209E
:101C7000980200202DE9F04F83B0032200210120BB
:101C800000F06FFD8A4B186003220021012000F054
:101C900068FD884B186003220021012000F061FDDF
:101CA000854B186003220021012000F05AFD834B70
:101CB000186001F08DF902F091F800220421032050
:101CC00000F04FFD7E4B1860002800F0EC80FFF71D
:101CD0007DFF00240194012500952B464FF47A7274
:101CE0007849794801F0E8F8019400952B464FF4C3
:101CF0007A727649764801F0DFF801944FF0020BD2
:101D0000CDF800B02B464FF47A727249724801F058
:101D1000D3F80194032300932B464FF47A726F4952
:101D20006F4801F0C9F8DFF80092D9F80030DFF809
:101D3000FC816C4F58F8231057F82300FFF7CCFDB7
:101D4000DFF8ECA1CAF80000D9F8003058F82310E9
:101D500057F82300FFF7C0FD634E3060D9F800301C
:101D600058F8231057F82300FFF7B6FDDFF8C481B9
:101D7000C8F80000DAF800105C4A13680B441360DE
:101D80005B4F3B68326813443B605A4A1368034414
:101D900013604FF47A7909FB01F1574FA7FB01312A
:101DA000564B00932B462A468909554801F018FDE9
:101DB000DFF884A1CAF80000316809FB01F1A7FB34
:101DC0000131504B00935B462A4689094E4801F089
:101DD00007FD4E4E3060D8F8001009FB01F1A7FB5B
:101DE00001714B4B009303232A468909494801F0AE
:101DF000F7FCDFF84881C8F80000474B0093042344
:101E00002A466421454801F0EBFC454F3860DAF87A
:101E1000009001F0DDF8024600942346294648462A
:101E200001F0F8FC2346224621462148006800F0D4
:101E3000E6FD366801F0CCF80246009423462946B8
:101E4000304601F0E7FC2346224621461948006847
:101E500000F0D5FDD8F8006001F0BAF80246009411
:101E600023462946304601F0D5FC2346224621462A
:101E70001148006800F0C3FD3E6801F0A9F8024671
:101E8000009423462946304601F0C4FC23462246EE
:101E900021460A48006800F0B2FD01F03DF800203C
:101EA00003B0BDE8F08F1F4802F02EF9F7E700BF3E
:101EB000900200208C020020880200208402002072
:101EC00094020020E856000809170008F45600089C
:101ED0008517000800570008011800080C57000873
:101EE0007D1800082C0000206C02002064020020F5
:101EF000600200205C020020D34D6210DD19000852
:101F00001857000869190008285700087C020020AB
:101F1000F518000838570008451C00084857000805
:101F20007402002058570008100000201400002000
:101F30007002002068020020800200207802002049
:101F4000FEE7FEE700B583B000F02AF90190019B9F
:101F500003B05DF804FB704770470000124A12F0AE
:101F6000070F1ED0D11D21F00701C1F59633134490
:101F70000A460E480260002141601344083B23F0EA
:101F800007030B48036059601960991A5160136088
:101F9000084B1960084B1960084B4FF000421A605B
:101FA00070474FF49633E4E7CC020020C4020020CF
:101FB000C0020020B8020020BC020020B4020020B1
:101FC000164B1A461B688342FBD3516802EB010C87
:101FD000844509D0416800EB010C634509D00360DA
:101FE000904219D01060704740680144516010461B
:101FF000F0E710B40A4C2468A3420BD05B68194484
:10200000416013681B680360904200D010605DF867
:10201000044B70470460F7E7704700BFC40200201C
:10202000C002002038B5044600F0CAFF3B4B1B68D5
:10203000ABB13B4B1B681C4214D1002C66D004F1A1
:10204000080214F0070F02D022F007020832D2B1C2
:10205000344B1B6893421AD333490C681DE0FFF7D9
:102060007DFFE6E701F04EF80025FFF769FF15F068
:10207000070F51D04FF0500383F31188BFF36F8FD8
:10208000BFF34F8FFEE701F03DF80025EDE701F0CB
:1020900039F80025E9E721461C466368934202D2DD
:1020A0002368002BF7D11D4B1B68A34214D00D6889
:1020B000083523680B6063689B1A102B14D9A0188D
:1020C00010F0070F0CD04FF0500383F31188BFF3CB
:1020D0006F8FBFF34F8FFEE701F014F80025C4E7C0
:1020E00043606260FFF76CFF62680E490B689B1AE1
:1020F0000B600E4909688B4201D20C490B60084BFA
:102100001B68134363600023236000E0002500F098
:10211000F9FF002DABD1A8E7284638BDC00200204A
:10212000B4020020BC020020C4020020B80200203B
:1021300080B338B50446A0F1080550F8043C164AAF
:102140001268134208D14FF0500383F31188BFF394
:102150006F8FBFF34F8FFEE750F8081C41B14FF06F
:10216000500383F31188BFF36F8FBFF34F8FFEE7E8
:1021700023EA020340F8043C00F022FF54F8041C58
:10218000064A13680B4413602846FFF719FF00F056
:10219000B9FF38BD704700BFB4020020BC02002068
:1021A000014B1868704700BFBC0200200B4B1B6836
:1021B000B3F1FF3F08D04FF0500383F31188BFF312
:1021C0006F8FBFF34F8FFEE74FF0500383F31188FB
:1021D000BFF36F8FBFF34F8FFEE700BF44000020B7
:1021E00006480068006880F3088862B661B6BFF3ED
:1021F0004F8FBFF36F8F00DF00BF000008ED00E0DE
:102200004FF0807340F8043C21F0010140F8081CB5
:10221000054B40F80C3C40F8202C6FF0020340F8CE
:10222000243C4438704700BFAD2100080000000086
:10223000074B19680868B0E8F04F80F30988BFF3CE
:102240006F8F4FF0000080F311887047AFF300806C
:1022500014300120074B1B68B3F57A7F08D04FF08C
:10226000500383F31188BFF36F8FBFF34F8FFEE7E7
:10227000704700BF440000204FF0500383F31188E3
:10228000BFF36F8FBFF34F8F0B4A13680133136097
:10229000012B00D070474FF0E023D3F8043D13F03A
:1022A000FF0FF7D04FF0500383F31188BFF36F8F08
:1022B000BFF34F8FFEE700BF44000020094B1B68AF
:1022C00043B94FF0500383F31188BFF36F8FBFF30F
:1022D0004F8FFEE7013B034A13600BB983F311886C
:1022E000704700BF44000020000000000000000014
:1022F000EFF30980BFF36F8F154B1A681EF0100FB4
:1023000008BF20ED108A20E9F04F10604DF8043D21
:102310004FF0500080F31188BFF34F8FBFF36F8FE2
:1023200000F0B2FF4FF0000080F3118808BC19687C
:102330000868B0E8F04F1EF0100F08BFB0EC108A2C
:1023400080F30988BFF36F8F704700BFAFF3008041
:102350001430012008B54FF0500383F31188BFF308
:102360006F8FBFF34F8F00F039FE28B14FF0E0239D
:102370004FF08052C3F8042D002383F3118808BD69
:10238000064B1B68064AA2FB03239B09013B4FF047
:10239000E022536107231361704700BF0C00002047
:1023A000D34D62104FF0E023D3F8002D344B9A4206
:1023B0001CD04FF0E023D3F8002D324B9A421ED0B0
:1023C00010B582B0304B1A78D2B20192FF221A7047
:1023D0001B78DBB28DF803309DF8033003F0500317
:1023E0002A4A13702A4B07221A601BE04FF0500351
:1023F00083F31188BFF36F8FBFF34F8FFEE74FF06A
:10240000500383F31188BFF36F8FBFF34F8FFEE745
:102410001F4A1368013B13609DF803305B00DBB279
:102420008DF803309DF8033013F0800FF0D1184A77
:1024300013681B02136003F4E0631360019BDBB2BB
:10244000114A13704FF0E024D4F8203D43F4700398
:10245000C4F8203DD4F8203D43F07043C4F8203D3B
:10246000FFF78EFF0B4B00221A60D4F8343F43F085
:102470004043C4F8343FFFF7B3FEFFF797FE00BFB9
:1024800071C20F4170C20F4100E400E0D02E012064
:10249000CC2E012044000020EFF305830F2B0FD931
:1024A000114A9B5CDBB2114A12789A4208D94FF06C
:1024B000500383F31188BFF36F8FBFF34F8FFEE795
:1024C0004FF0E023D3F80C3D03F4E063084A1268B0
:1024D000934208D94FF0500383F31188BFF36F8FF5
:1024E000BFF34F8FFEE77047F0E300E0D02E0120EE
:1024F000CC2E012000F1080343604FF0FF328260D0
:10250000C3600361002303607047002303617047C9
:1025100043684B609A688A605160996008610368FB
:1025200001330360704730B40D68B5F1FF3F11D03F
:1025300000F108031C465B681A68AA42FAD963686E
:102540004B6099608C6061600861036801330360CF
:1025500030BC70470469F2E70369416882688A60A9
:10256000416851605A68824205D0002202611868B1
:1025700001381860704782685A60F6E710B5044663
:10258000FFF77AFEA26BE36B9A4204D00024FFF7B8
:1025900095FE204610BD0124F9E710B50446FFF76B
:1025A0006BFEA36B23B90124FFF788FE204610BD04
:1025B0000024F9E770B504461546866B026C5AB9DB
:1025C00003681BB100200136A66370BD406800F0AF
:1025D000F7FF00236360F6E76DB9806801F041FF03
:1025E000A368226C1344A3606268934219D32368E2
:1025F000A3602846E7E7C06801F033FFE368226C78
:1026000051429B1AE3602268934202D263680B44F2
:10261000E360022D01D00020D5E726B1013E002065
:10262000D1E72846CFE70020CDE70346026C6AB128
:1026300010B50846D9681144D9605C68A14201D33D
:102640001968D960D96801F00CFF10BD704738B522
:102650000546FFF711FE95F8454064B201E0013CE4
:1026600064B2002C0ADD6B6A43B105F1240000F06E
:10267000A5FE0028F3D000F03DFFF0E7FF2385F82A
:102680004530FFF71BFEFFF7F7FD95F8444064B2B5
:1026900001E0013C64B2002C0ADD2B6943B105F175
:1026A000100000F08BFE0028F3D000F023FFF0E7CD
:1026B000FF2385F84430FFF701FE38BD38B5E0B19F
:1026C0000D460446FFF7D8FD2368E26B216C01FB41
:1026D000023060600020A063A360013A02FB013376
:1026E000E360FF2384F8443084F84530FDB9236962
:1026F00063B9FFF7E3FD012038BD4FF0500383F3CA
:102700001188BFF36F8FBFF34F8FFEE704F1100006
:1027100000F054FE0028ECD04FF0E0234FF0805240
:10272000C3F8042DBFF34F8FBFF36F8FE1E704F1C0
:102730001000FFF7DFFE04F12400FFF7DBFED8E70F
:1027400038B51D46049C0B4649B92460E0632364F8
:1027500001212046FFF7B2FF84F84C5038BD2260BB
:10276000F4E740B94FF0500383F31188BFF36F8F44
:10277000BFF34F8FFEE7F0B583B00C461546064613
:1027800089B101FB00F05030FFF74CFC074638B12F
:1027900000902B4600F1500221463046FFF7D0FF53
:1027A000384603B0F0BD0846EDE7F0B585B00192BC
:1027B00088B10F461D460446B1B1022D20D1E36B0E
:1027C000012B1DD04FF0500383F31188BFF36F8F9F
:1027D000BFF34F8FFEE74FF0500383F31188BFF331
:1027E0006F8FBFF34F8FFEE7036C002BE5D04FF0E8
:1027F000500383F31188BFF36F8FBFF34F8FFEE752
:1028000000F07EFE064658B9019B002B48D04FF0E1
:10281000500383F31188BFF36F8FBFF34F8FFEE731
:1028200000263DE02A4639462046FFF7C3FE636A8C
:102830007BB948B14FF0E0234FF08052C3F8042D2C
:10284000BFF34F8FBFF36F8FFFF738FD012005B047
:10285000F0BD04F1240000F0B1FD0028F4D04FF0E9
:10286000E0234FF08052C3F8042DBFF34F8FBFF326
:102870006F8FE9E7FFF722FD0020E8E702A800F0EC
:10288000E3FD012619E0002384F8443021E0002311
:1028900084F8453023E02046FFF7D9FE00F032FCF3
:1028A000FFF7EAFCA26BE36B9A42BBD3022DB9D0CF
:1028B000019B002BDED0002EE0D0FFF7FFFC00F0E4
:1028C0007FFBFFF7D9FC94F8442052B2B2F1FF3FEE
:1028D000D9D094F8452052B2B2F1FF3FD7D0FFF7DC
:1028E000EDFC01A902A800F0C5FDD8B92046FFF70C
:1028F00045FE0028CFD0019904F1100000F02AFD18
:102900002046FFF7A4FE00F0FDFB0028C8D14FF0E1
:10291000E0234FF08052C3F8042DBFF34F8FBFF375
:102920006F8FBDE72046FFF792FE00F0EBFB002023
:102930008DE72DE9F84390B10F4616461C46054633
:10294000B1B1022C20D1EB6B012B1DD04FF0500305
:1029500083F31188BFF36F8FBFF34F8FFEE74FF004
:10296000500383F31188BFF36F8FBFF34F8FFEE7E0
:10297000036C002BE5D04FF0500383F31188BFF3B5
:102980006F8FBFF34F8FFEE7FFF786FDEFF31188E0
:102990004FF0500383F31188BFF36F8FBFF34F8F56
:1029A000AA6BEB6B9A4206D3022C04D0002088F36A
:1029B0001188BDE8F88395F845904FFA89F92246C9
:1029C00039462846FFF7F6FDB9F1FF3F06D009F179
:1029D00001035BB285F845300120E8E76B6A0BB96B
:1029E0000120E4E705F1240000F0E8FC18B126B16D
:1029F00001203060DBE70120D9E70120D7E72DE98E
:102A0000F04184B00192A0B10E4698460446C9B187
:102A100000F076FD054608BB019B002B00F0878087
:102A20004FF0500383F31188BFF36F8FBFF34F8FC5
:102A3000FEE74FF0500383F31188BFF36F8FBFF3AE
:102A40004F8FFEE7036C002BE2D04FF0500383F36F
:102A50001188BFF36F8FBFF34F8FFEE7002566E04D
:102A6000E56831462046FFF7E0FDB8F1000F20D1C0
:102A70007B1EA36323683BB123694BB9FFF71EFCA0
:102A8000012004B0BDE8F08100F0F2FD6060F3E7E2
:102A900004F1100000F092FC0028EFD04FF0E0238A
:102AA0004FF08052C3F8042DBFF34F8FBFF36F8FE9
:102AB000E4E7E560636A002BE0D004F1240000F055
:102AC0007DFC0028DAD04FF0E0234FF08052C3F8AD
:102AD000042DBFF34F8FBFF36F8FCFE7FFF7EEFBF0
:102AE0000020CEE702A800F0AFFC012529E000237A
:102AF00084F8443031E0002384F8453033E0FFF7B8
:102B0000BBFB606800F00CFDFFF7D8FB3BE0204604
:102B1000FFF79DFD00F0F6FA09E02046FFF797FD6C
:102B200000F0F0FA2046FFF738FD002842D1FFF709
:102B3000A3FBA76B002F93D1019B002BCED0002DC0
:102B4000D0D0FFF7BBFB00F03BFAFFF795FB94F802
:102B5000442052B2B2F1FF3FC9D094F8452052B29E
:102B6000B2F1FF3FC7D0FFF7A9FB01A902A800F00F
:102B700081FC0028D1D12046FFF70FFD0028C6D0E8
:102B80002368002BBBD0019904F1240000F0E2FB84
:102B90002046FFF75CFD00F0B5FA0028C7D14FF0E2
:102BA000E0234FF08052C3F8042DBFF34F8FBFF3E3
:102BB0006F8FBCE7002064E70023072B0CD8074A7F
:102BC00052F833200AB10133F7E7044A42F83310D0
:102BD00002EBC30250607047704700BFD42E012043
:102BE00070B504460D461646FFF746FB94F8443090
:102BF0005BB2B3F1FF3F0DD094F845305BB2B3F157
:102C0000FF3F0BD0FFF75AFBA36B5BB12046FFF7EA
:102C10001EFD70BD002384F84430EDE7002384F8E6
:102C20004530EFE73246294604F1240000F0AAFBC4
:102C3000ECE70000084B1B681B6823B9074B4FF0FB
:102C4000FF321A607047044B1B68DB68DB685A6808
:102C5000024B1A60704700BF842F01201C2F0120F7
:102C600010B50446006BFFF763FA2046FFF760FAE1
:102C700010BD2DE9F04780460D4617469946089E3F
:102C8000DDF824A00A9C9200A521206B01F088FBAE
:102C9000236B07F18042013A03EB820727F0070715
:102CA0004FF0000CBCF1090F09D815F90C3004EBFA
:102CB0000C0282F8343013B10CF1010CF2E700235E
:102CC00084F83D30042E00D90426E662A66400256F
:102CD000E564201DFFF719FC04F11800FFF715FC4F
:102CE0002461C6F10506A6616462256584F8545026
:102CF0004A4641463846FFF783FA2060BAF1000F92
:102D000001D0CAF80040BDE8F087000038B50024C3
:102D100007E004EB840293000E481844FFF7EAFB37
:102D20000134042CF5D90C4D2846FFF7E3FB0B4C7E
:102D30002046FFF7DFFB0A48FFF7DCFB0948FFF7F7
:102D4000D9FB0948FFF7D6FB084B1D60084B1C60F8
:102D500038BD00BFB02F01209C2F0120882F0120FB
:102D60006C2F0120582F0120402F0120842F01209B
:102D7000802F012010B50446FFF77EFA224A13681F
:102D800001331360214B1B685BB1214B1B686BB98E
:102D90001E4B1B68DA6AE36A9A4207D81B4B1C6019
:102DA00004E01A4B1C601368012B29D0194A1368E0
:102DB000013313602364E06A01238340164A1168DB
:102DC0000B43136000EB8000211D144B03EB8000CC
:102DD000FFF79EFBFFF772FA0D4B1B687BB10B4BA5
:102DE0001B68DA6AE36A9A4209D24FF0E0234FF097
:102DF0008052C3F8042DBFF34F8FBFF36F8F10BD08
:102E0000FFF784FFD2E700BF3C2F012014300120E0
:102E1000302F0120202F0120342F0120B02F01203E
:102E200070B504460D461D4B1E681D4B18680430D6
:102E3000FFF792FB48B91A4B1B68DB6A01229A40E4
:102E400018490B6823EA02030B60B4F1FF3F0DD071
:102E50003444134B1B685C60A64210D9124B1868AF
:102E60000F4B19680431FFF75EFB70BD002DEFD0EA
:102E70000B4B196804310D48FFF74AFBF5E70C4B83
:102E80001868074B19680431FFF74DFB094B1B68A5
:102E9000A342EAD9074B1C60E7E700BF382F0120A7
:102EA00014300120342F0120802F0120402F0120D9
:102EB000842F01201C2F01202DE9F04385B0074607
:102EC0000E4614461D469000FFF7ACF8F8B1814657
:102ED0005820FFF7A7F8804698B1C0F8309000233B
:102EE000039302900D9B01930C9B00932B4622466B
:102EF00031463846FFF7BDFE4046FFF73BFF012055
:102F000007E04846FFF714F94FF0FF3001E04FF0BB
:102F1000FF3005B0BDE8F08300B583B0194B0193D5
:102F200000230093822218491848FFF7C5FF0128A3
:102F300005D0B0F1FF3F1BD003B05DF804FB00F0FB
:102F400027FC0128F5D14FF0500383F31188BFF31C
:102F50006F8FBFF34F8F0E4B4FF0FF321A600D4B48
:102F600001221A600C4B00221A60FFF71BFAE3E7FC
:102F70004FF0500383F31188BFF36F8FBFF34F8F70
:102F8000FEE700BF182F01207457000859320008CF
:102F90001C2F0120302F0120382F012008B54FF0C1
:102FA000500383F31188BFF36F8FBFF34F8F034B31
:102FB00000221A60FFF74EF908BD00BF302F012034
:102FC000024A136801331360704700BF142F0120B9
:102FD000014B1868704700BF382F0120F8B53E4BF1
:102FE0001B68002B6AD13D4B1D6801351D60C5B9BA
:102FF0003B4B1B681B6843B14FF0500383F31188B0
:10300000BFF36F8FBFF34F8FFEE7354A1168354B23
:10301000186810601960344A136801331360FFF7B1
:1030200009FE324B1B68AB423ED90027304B1B6870
:10303000DB6A03EB83039A002E4B9B58012B00D9CC
:1030400001272D4B1B68002B3FD1FEF784FF3CE08E
:103050000127234B1B681B6843B3214B1B68DB68AC
:10306000DC6863689D4226D3261D3046FFF774FA5C
:10307000A36A1BB104F11800FFF76EFAE36A01229C
:103080009A401E49086802430A6003EB83039A00D2
:10309000314618481044FFF73BFAE26A144B1B68AC
:1030A000DB6A9A42D4D2D4E70027D2E70F4B4FF025
:1030B000FF321A60BAE70D4A1360B7E70E4A136889
:1030C00001331360FEF747FF00270D4B1B6803B168
:1030D00001273846F8BD00BF142F0120382F0120EA
:1030E000842F0120802F0120242F01201C2F01205C
:1030F00014300120B02F01202C2F0120342F01206B
:10310000282F012038B5354B1B6843B94FF05003C9
:1031100083F31188BFF36F8FBFF34F8FFEE7FFF785
:10312000ABF82E4B1A68013A1A601B68002B4FD17E
:103130002B4B1B680BB900244BE00024294B1B6868
:103140001BB3284BDB68DC6804F11800FFF704FAB6
:10315000251D2846FFF700FAE06A01238340224A32
:1031600011680B43136000EB800029461F4B03EBF3
:103170008000FFF7CDF9E26A1D4B1B68DB6A9A42BB
:10318000DCD31C4B01221A60D8E70CB1FFF752FDCB
:10319000194B1C6884B9174B1C68D4B14FF0E0235D
:1031A0004FF08052C3F8042DBFF34F8FBFF36F8FE2
:1031B00001240EE0013C07D0FFF710FF0028F9D0F2
:1031C0000C4B01221A60F5E70B4B00221A60E2E774
:1031D0000024FFF773F8204638BD00BF142F0120EC
:1031E0003C2F01206C2F0120342F0120B02F012013
:1031F00014300120282F01202C2F0120134B1B6895
:1032000013B310B5FFF7DCFE114B1C68FFF77AFF14
:1032100024B90E4B1B68002BF4D110BDFFF72CF81E
:103220000B4BDB68DC68201DFFF796F9094A136831
:10323000013B1360054A1368013B1360FFF73EF83A
:103240002046FFF70DFDE4E7704700BF542F012033
:10325000582F01203C2F012008B50BE04FF0E02350
:103260004FF08052C3F8042DBFF34F8FBFF36F8F21
:10327000FEF768FEFFF7C2FF024B1B68012BEDD87B
:10328000F6E700BFB02F012008B52D4B1B681BB11E
:103290002C4B01221A6008BD2A4B00221A602A4BCF
:1032A0001B681B6B1A68B2F1A53F03D15A68B2F1D3
:1032B000A53F1BD0244B186819683431FEF741FE36
:1032C000224B1B68B3FA83F3DBB2C3F11F0303EB9A
:1032D00083018A001E498A588AB94FF0500383F34C
:1032E0001188BFF36F8FBFF34F8FFEE79A68B2F17B
:1032F000A53FDFD1DB68B3F1A53FDBD1E0E71448A0
:1033000003EB83018A00024451684968516003EB72
:10331000830C4FEA8C0208320244914209D003EB3D
:1033200083039A000A4B13445B68DA68064B1A6001
:10333000B1E7486862469100054A0A445060EEE7EA
:10334000142F0120282F012014300120342F0120B8
:10335000B02F012058B110B50C46094A1168183138
:10336000FFF7E1F801212046FFF75AFD10BD4FF0AD
:10337000500383F31188BFF36F8FBFF34F8FFEE7C6
:103380001430012038B570B10D4614460A4A116850
:103390001831FFF7BDF80CB14FF0FF352146284634
:1033A000FFF73EFD38BD4FF0500383F31188BFF3A4
:1033B0006F8FBFF34F8FFEE71430012038B5C3681D
:1033C000DC6824B304F118052846FFF7C5F8184B4C
:1033D0001B682BBB251D2846FFF7BEF8E06A0123BA
:1033E0008340144A11680B43136000EB80002946A8
:1033F000114B03EB8000FFF78BF8E26A0F4B1B6861
:10340000DB6A9A4211D901200D4B186038BD4FF08C
:10341000500383F31188BFF36F8FBFF34F8FFEE725
:1034200029460848FFF774F8E7E70020EEE700BFF9
:10343000142F0120342F0120B02F0120143001203F
:10344000282F01206C2F012030B1084A1268026039
:10345000074A1268426070474FF0500383F31188A7
:10346000BFF36F8FBFF34F8FFEE700BF242F012004
:10347000382F012038B5C0B10C460546F1B1FEF732
:10348000FBFE1A4B1A682368B3F1FF3F27D0286868
:1034900017490968884202D06968914224D969684D
:1034A000501A834213D801241AE04FF0500383F3DB
:1034B0001188BFF36F8FBFF34F8FFEE74FF05003BC
:1034C00083F31188BFF36F8FBFF34F8FFEE7891A25
:1034D0000B4423602846FFF7B7FF002400E00024D8
:1034E000FEF7ECFE204638BD0124F9E7382F012015
:1034F000242F0120014B01221A607047282F012040
:10350000054B1B6833B1054B1B680BB1002070479E
:103510000220704701207047302F0120142F012016
:10352000002845D038B50446C36A224A1268D26AD8
:10353000934214D28269002A05DB1E4A1268D26ABD
:10354000C2F105028261616903EB83031A4A02EB4F
:103550008303994204D0174B1B68DB6AE36238BDD2
:10356000251D2846FEF7F8FF90B1124B1B68D86A5C
:10357000E06201238340114A11680B43136000EBA2
:10358000800029460C4B03EB8000FEF7C1FFE6E705
:10359000E36A03EB8301084A52F82120002AE4D1B0
:1035A00001229A4005490B6823EA02030B60DCE71D
:1035B000704700BF14300120B02F0120342F0120AC
:1035C00000284BD038B50446264B1B68834208D0F0
:1035D0004FF0500383F31188BFF36F8FBFF34F8F0A
:1035E000FEE7C36C43B94FF0500383F31188BFF378
:1035F0006F8FBFF34F8FFEE7013BC364C16A826CDC
:1036000091422DD00BB1002038BD051D2846FEF794
:10361000A3FF68B9E36A03EB8301134A52F8212040
:1036200032B901229A4011490B6823EA02030B6068
:10363000A06CE062C0F10503A361012404FA00F369
:103640000A4A11680B43136000EB80002946064BC1
:1036500003EB8000FEF75CFF2046D5E700207047B3
:103660000020D1E714300120B02F0120342F012099
:10367000054B1B6823B1044B1A68D36C0133D36428
:10368000014B1868704700BF14300120064B1A68C0
:103690001368B3FA83F35B09036013B9D36818683E
:1036A00070470020704700BF2830012008B54160F6
:1036B000006191420CD8D21A83699A4201D3012049
:1036C00008BD011D094B1868FEF72DFF0020F7E724
:1036D0009A4201D2994206D2011D054B1868FEF7A5
:1036E00022FF0020ECE70120EAE700BF24300120A0
:1036F0002830012038B5FEF7BFFD0F4B1B6813B112
:10370000FEF7DCFD38BD0D4D2846FEF7F3FE0C4CF0
:103710002046FEF7EFFE0B4B1D600B4B1C6000229A
:103720000C210A20FFF71DF8034B18600028E7D092
:103730000649FFF741FAE3E720300120403001203D
:103740002C30012028300120243001207C57000833
:103750002DE9F041079F41B94FF0500383F31188E1
:10376000BFF36F8FBFF34F8FFEE7064615461C462B
:1037700088465FB1FFF7BEFF3E60C7F81880FD6165
:103780003C62069B7B62381DFEF7BFFEBDE8F08100
:1037900000B583B0FFF7AEFF0D4B1B685BB10D4B5F
:1037A00001930223009300234FF482720A490B48CD
:1037B000FFF782FB40B94FF0500383F31188BFF34A
:1037C0006F8FBFF34F8FFEE703B05DF804FB00BFC0
:1037D000203001201C30012084570008D53A000811
:1037E0002DE9F04182B00446884615461E462C203D
:1037F000FEF718FC074640B10190089B0093334642
:103800002A4641462046FFF7A3FF384602B0BDE8EE
:10381000F0810000B8B19C4603461848006858B3D0
:1038200000B585B001910292039305291CDCFFF7D6
:1038300067FE022810D000231A4601A90F4800682D
:10384000FEF7B3FF15E04FF0500383F31188BFF389
:103850006F8FBFF34F8FFEE70023069A01A9074839
:103860000068FEF7A2FF04E00023624601A9FFF70B
:1038700060F805B05DF804FB00207047203001209F
:1038800070B582B01A4B1B681A6852B3DB681E68A9
:10389000DC68251D2846FEF75FFE636A20469847D0
:1038A000E369012BEED1A36933449E4207D26360E2
:1038B000246129460E4B1868FEF735FEE2E7002129
:1038C00000910B4632462046FFF7A4FF0028D9D1CD
:1038D0004FF0500383F31188BFF36F8FBFF34F8F07
:1038E000FEE7044A106802490860136002B070BD28
:1038F000283001202430012038B50546FFF768FB49
:103900000446074B1B68834205D800232B60044BF9
:103910001C60204638BDFFF7B3FF01232B60F6E79C
:103920001830012070B582B006460D46144909686A
:10393000C968CC68201DFEF70FFEE169012904D09B
:10394000636A2046984702B070BDA16933462A4693
:1039500031442046FFF7AAFE0028F1D00021009153
:103960000B4632462046FFF755FF0028E8D14FF0BE
:10397000500383F31188BFF36F8FBFF34F8FFEE7C0
:103980002830012070B582B006460C46FFF718FBC0
:1039900001A8FFF7B1FF019B23BB054644B9B04224
:1039A0000CD3FFF7AFFB29463046FFF7BBFF1BE008
:1039B0000E4B1B681C68B4FA84F464092246711B20
:1039C0000B4B1868FFF70CF9FFF79CFB60B94FF041
:1039D000E0234FF08052C3F8042DBFF34F8FBFF3A5
:1039E0006F8F01E0FFF78EFB02B070BD2430012025
:1039F0002030012010B586B000231A4603A93448B0
:103A00000068FEF7FCFF002860D0039B002BF3DB6F
:103A1000059C636913B1201DFEF79EFD02A8FFF708
:103A20006BFF039B092BE7D801A252F823F000BFDC
:103A3000593A0008593A0008593A0008F93900087B
:103A40009F3A0008C53A0008593A0008593A000858
:103A5000F93900089F3A0008049BA16902461944FD
:103A60002046FFF723FE0028C6D0636A2046984709
:103A7000E369012BC0D1A269002100910B46049893
:103A800002442046FFF7C6FE0028B5D14FF0500390
:103A900083F31188BFF36F8FBFF34F8FFEE7049955
:103AA000A16131B10346024601442046FFF7FEFD05
:103AB000A2E74FF0500383F31188BFF36F8FBFF37A
:103AC0004F8FFEE72046FEF733FB95E706B010BDAB
:103AD0002030012000B583B001A8FFF7D7FD019980
:103AE000FFF750FFFFF786FFF6E7000053B94AB92A
:103AF000002908BF00281CBF4FF0FF314FF0FF30F6
:103B000000F06AB9ADF1080C6DE904CE00F006F8DA
:103B1000DDF804E0DDE9022304B070472DE9F04749
:103B2000089D0C46002B4ED194468C458646B2FA31
:103B300082F262D94AB1C2F12003914020FA03F324
:103B40000CFA02FC194300FA02FE4FEA1C471FFA66
:103B50008CF6B1FBF7F44FEA1E4307FB141143EA5E
:103B6000014304FB06F199420AD91CEB030304F15B
:103B7000FF3080F01381994240F21081023C63448F
:103B8000591A1FFA8EF3B1FBF7F007FB101143EA45
:103B9000014300FB06F69E420AD91CEB030300F129
:103BA000FF3180F0FD809E4240F2FA80634402388B
:103BB0009B1B40EA044000211DB1D3400022C5E90F
:103BC0000032BDE8F0878B4205D90DB1C5E900018F
:103BD00000210846F5E7B3FA83F1002946D1A34254
:103BE00002D39042C0F0F180861A64EB03030120F7
:103BF000002DE6D0C5E90063E3E7002A40F091809C
:103C0000A1EB0C044FEA1C481FFA8CF70121B4FB0E
:103C1000F8F64FEA1E4308FB164443EA044307FB49
:103C200006F0984208D91CEB030306F1FF3402D2D8
:103C3000984200F2CE8026461C1A1FFA8EF3B4FB7F
:103C4000F8F008FB104443EA044300FB07F79F42E7
:103C500008D91CEB030300F1FF3402D29F4200F2AB
:103C6000B1802046DB1B40EA0640A5E7C1F12006F3
:103C70008B4022FA06F71F4320FA06FC04FA01F3F0
:103C800043EA0C03F44000FA01F8380C4FEA1349F8
:103C9000B4FBF0FE1FFA87FC00FB1E4449EA044413
:103CA0000EFB0CF9A14502FA01F20AD93C190EF1FA
:103CB000FF3A80F08580A14540F28280AEF1020E8D
:103CC0003C44A4EB09041FFA83F9B4FBF0F300FBB6
:103CD000134449EA044403FB0CFCA44507D93C19EE
:103CE00003F1FF3068D2A44566D9023B3C4443EA65
:103CF0000E40A0FB0293A4EB0C049C42CE469C46D3
:103D000052D34FD055B1B8EB0E0364EB0C0404FA58
:103D100006F6CB40CC401E43C5E900640021BDE857
:103D2000F087C2F1200320FA03F10CFA02FC24FA16
:103D300003F394400C434FEA1C4800FA02FE1FFABA
:103D40008CF7B3FBF8F008FB1031230C43EA014376
:103D500000FB07F1994208D91CEB030300F1FF3681
:103D60002CD299422AD9023863445B1AA4B2B3FB1D
:103D7000F8F108FB113344EA034401FB07F3A342C3
:103D800008D91CEB040401F1FF3613D2A34211D968
:103D900002396444E41A41EA004138E70446EFE698
:103DA000084605E7C845ADD2B9EB020E63EB070C38
:103DB0000138A7E73146EDE7034698E73046D4E7F8
:103DC000D6467EE7634402384CE70646234608465B
:103DD0000EE7023E63442FE7704700BF38B5104B33
:103DE0001D682B6B0446B3B9182000F09BFB0246FC
:103DF000286320B90B4B0C484621FCF7F5FF0B4913
:103E00000B4BC0E900130B4B83600B238381002114
:103E10000120C2E904012B6B00221C615A6138BDEC
:103E2000540000208C570008A35700080E33CDAB78
:103E300034126DE6ECDE0500164B10B51C68236BE2
:103E4000B3B9182000F06EFB0246206320B9124B74
:103E500012485221FCF7C8FF1149124BC0E9001368
:103E6000114B83600B23838100210120C2E90401EF
:103E7000216B0E480B694C690D4A584302FB040044
:103E8000A3FB0232013340EB0200C1E9043020F011
:103E9000004010BD540000208C570008A3570008B4
:103EA0000E33CDAB34126DE6ECDE05002DF4515827
:103EB0002D7F954C002310B50446C0E90033C0E9BE
:103EC0000433836081814366C2818361194608227D
:103ED0005C3000F065FA0D4B63620D4BA3620D4B35
:103EE000E3620D4B23630D4B24629C4206D003F129
:103EF0006802944202D0D0339C4205D104F15800AC
:103F0000BDE8104000F0A0BA10BD00BF814100081C
:103F1000A3410008DB410008FF41000854300120A4
:103F2000024A0349034800F069B800BF4800002076
:103F3000F14F00085800002041680C4B994210B521
:103F4000044601D001F054F8A168094B994202D00F
:103F5000204601F04DF8E168064B994204D0204616
:103F6000BDE8104001F044B810BD00BF543001203E
:103F7000BC3001202431012010B50B4B0B4C0C4AF6
:103F80001A60204600220421FFF794FF04F1680024
:103F900001220921FFF78EFF04F1D0000222BDE8C3
:103FA00010401221FFF786BF8C31012054300120D0
:103FB000213F0008014800F048BA00BF91310120BC
:103FC000014800F043BA00BF9131012010B504460A
:103FD000FFF7F0FF236A1BB1BDE81040FFF7F0BF09
:103FE000044B2362044B1B68002BF5D1FFF7C4FF81
:103FF000F2E700BF393F00088C3101202DE9F8437A
:104000000746884614460026D4E90195B9F101090E
:1040100005D52468002CF7D13046BDE8F883AB897C
:10402000012B07D9B5F90E30013303D029463846A4
:10403000C04706436835E9E70FB407B5064904AB46
:10404000086853F8042B8168019300F09BFC03B0CF
:104050005DF804EB04B0704754000020036A70B5AB
:10406000846805460E460BB9FFF7B0FF636EDB07A9
:1040700005D4A389980502D4A06D00F0E6F9A389C0
:10408000190702D52369002B35D12146284600F0B7
:1040900031F980B34FF0FF35636EDA0705D4A38999
:1040A0009B0502D4A06D00F0D1F9284670BD002B0D
:1040B00015DB23685A1C22601970A36816F8011FCB
:1040C000013BA3600029F2D1002B16DA22460A2117
:1040D000284600F0D1F80130DCD00A25DCE7A269DF
:1040E0009A4201DC0A29E4D12246284600F0C4F8AD
:1040F0000130E2D1CEE7013EDFE723685A1C22609F
:104100000A221A70E9E70000024B01461868FFF71F
:10411000A5BF00BF540000200CB430B5174B0C1ED7
:104120001D689DB008DA8B232B604FF0FF301DB067
:10413000BDE8304002B070474FF40273ADF8143060
:1041400014BF04F1FF332346049307934FF6FF7324
:1041500002900690ADF81630209A21AB02A92846AD
:10416000019300F0E9FA431CBCBF8B232B60002CA9
:10417000DDD0029B00221A70D9E700BF5400002056
:1041800010B50C46B1F90E1000F034F90028ABBFA1
:10419000636DA3891B1823F48053ACBF6365A381AF
:1041A00010BD2DE9F0411F468B89DB0505460C4605
:1041B000164605D5B1F90E100223002200F008F9C9
:1041C000A389B4F90E1023F48053A38132463B46F1
:1041D0002846BDE8F04100F01FB910B50C46B1F912
:1041E0000E1000F0F5F8431CA38915BF606523F499
:1041F000805343F48053A38118BFA38110BDB1F94C
:104200000E1000F0D5B830B51446002C9BB0054612
:104210001A4605DA8B2303604FF0FF301BB030BD28
:104220004FF40273ADF80C3014BF04F1FF33234692
:10423000029305934FF6FF7300910491ADF80E3091
:1042400069461E9B00F078FA431CBCBF8B232B6091
:10425000002CE3D0009B00221A70DFE707B5009323
:1042600013460A46014603480068FFF7CCFF03B037
:104270005DF804FB54000020F8B50E4614460546D0
:1042800018B1036A0BB9FFF7A1FEA369A360A38964
:104290001A0701D5236943B92146284600F02AF8B8
:1042A00018B14FF0FF373846F8BD23682269981AD5
:1042B0006369F6B28342374605DC2146284600F0A2
:1042C00097FE0028EDD1A368013BA36023685A1C28
:1042D00022601E706269431C9A4204D0A389DB07E6
:1042E000E1D50A2EDFD12146284600F081FE0028C4
:1042F000D9D0D6E738B5294B054618680C4618B111
:10430000036A0BB9FFF762FEB4F90C30190722D427
:10431000DA0607D409222A6043F04003A3814FF054
:10432000FF3033E0580712D5616B41B104F144030B
:10433000994202D0284600F0ABF800236363A389BA
:1043400023F02403A3810023636023692360A389EE
:1043500043F00803A38123694BB9A38903F42073B5
:10436000B3F5007F03D02146284600F08FFEB4F954
:104370000C3013F001020AD00022A260626952429E
:10438000A261226942B913F08000C5D138BD9907F6
:1043900058BF6269A260F4E70020F7E754000020EC
:1043A00002440346934200D1704703F8011BF9E72A
:1043B00038B5064D0023044608462B60FCF714FF71
:1043C000431C02D12B6803B1236038BDD801002003
:1043D00038B5074D04460846114600222A601A46A1
:1043E000FCF7BCFE431C02D12B6803B1236038BD2F
:1043F000D801002038B5074D044608461146002272
:104400002A601A46FCF744FE431C02D12B6803B114
:10441000236038BDD801002038B5074D0446084652
:10442000114600222A601A46FCF7ACFE431C02D15A
:104430002B6803B1236038BDD8010020014B1868F8
:10444000704700BF5400002070477047704710F855
:10445000012B11F8013B012A28BF9A42F7D0D01A4C
:1044600070470A44914200F1FF3300D1704710B504
:1044700011F8014B03F8014F9142F9D110BD0346E9
:1044800013F8012B002AFBD1181A013870470000DD
:1044900038B50546002941D051F8043C0C1F002BCB
:1044A000B8BFE41800F0E0F81D4A136833B9636040
:1044B00014602846BDE8384000F0DCB8A34208D9B3
:1044C000206821188B4201BF19685B6809182160B8
:1044D000EDE71A465B680BB1A342FAD91168501890
:1044E000A0420BD120680144501883421160E0D1F2
:1044F00018685B68536008441060DAE702D90C233F
:104500002B60D6E7206821188B4204BF19685B68CE
:10451000636004BF091821605460CAE738BD00BF5A
:1045200098310120024B0146186800F025B800BF01
:104530005400002070B50F4E0C463168054611B985
:1045400000F01CFE30602146284600F017FE431C98
:1045500003D14FF0FF34204670BDC41C24F0030487
:10456000A042F8D0211A284600F008FE0130F2D10E
:10457000EFE700BF943101202DE9F041CD1C25F07B
:10458000030508350C2D38BF0C25002D064601DB30
:10459000A94204D90C2333600020BDE8F081314FDB
:1045A00000F062F83B681C4644BB29463046FFF7E2
:1045B000C1FF431C044650D13C682146002941D12B
:1045C000002C44D02368304604EB030800F0D6FDED
:1045D00080453CD121686D1A29463046FFF7AAFF75
:1045E000013034D023682B4423603B68002B36D045
:1045F0005A68A24229D100225A600EE02268521B5A
:104600001DD40B2A16D96119A342256018BF596021
:10461000636808BF396062514B60304600F02AF889
:1046200004F10B00231D20F00700C21AB5D01B1A9D
:10463000A350B2E7A3426268DED13A60EDE72346B9
:104640006468B1E70C464968B8E71346CEE70C2327
:104650003360304600F00EF89EE70560DDE75B60F2
:10466000FFDE00BF983101200148FFF7EEBE00BF1A
:10467000903101200148FFF7E9BE00BF90310120D1
:104680002DE9F0478E681F46BE420B6882460C46F5
:1046900090462DD8B1F90C2012F4906F26D06569A0
:1046A000096905EB4505A3EB010905EBD5757B1CF5
:1046B0004B446D109D4238BF1D46530527D52946F2
:1046C000FFF75AFF064660B321694A46FFF7C9FE65
:1046D000A38923F4906343F08003A381266165617D
:1046E0004E44A5EB09052660A5603E46BE4200D9B2
:1046F0003E4620683246414600F004FDA3689B1BFD
:10470000A3602368334423600020BDE8F0872A4675
:1047100000F096FD06460028E0D121695046FFF7DB
:10472000B7FE0C23CAF80030A38943F04003A381ED
:104730004FF0FF30E9E700002DE9F04F98468B89F4
:104740001B069DB007460D46144610D50B6973B97C
:104750004021FFF711FF2860286130B90C233B602E
:104760004FF0FF301DB0BDE8F08F40236B61002398
:10477000099320238DF82930CDF80C803023DFF801
:104780009C818DF82A304FF0010923469A4613F890
:10479000012B0AB1252AF9D1BAEB040B0BD05B46E9
:1047A000224629463846FFF76BFF013000F0A7800C
:1047B000099A5A4409929AF80030002B00F09F8021
:1047C00000234FF0FF32CDE905230AF1010A0493DB
:1047D00007938DF853301A935446052214F8011BA1
:1047E0004E4800F0DDFC049AD8B9D00644BF20231F
:1047F0008DF85330110744BF2B238DF853309AF8AE
:1048000000302A2B15D0079A544600204FF00A0C8E
:10481000214611F8013B303B092B4BD9B0B107922F
:1048200014E0A0EB080309FA03F313430493A24630
:10483000D2E7039B191D1B680391002BBBBF5B4292
:1048400042F0020207930793B8BF049223782E2BFD
:104850000AD163782A2B32D1039B1A1D1B6803925D
:1048600043EAE37302340593DFF8C0A02178032202
:10487000504600F095FC38B1049BA0EB0A004022A2
:10488000824013430134049314F8011B24488DF82B
:104890002810062200F084FC002836D0214B1BBBD8
:1048A000039B073323F0070308330393099B334427
:1048B00009936AE70CFB02320C460120A8E70023AB
:1048C0000134059319464FF00A0C204610F8012BCD
:1048D000303A092A03D9002BC6D00591C4E70CFB56
:1048E000012104460123F0E703AB00932A460E4B57
:1048F00004A93846AFF30080421C0646D6D1AB89E6
:104900005B063FF52DAF09982CE703AB00932A46D1
:10491000054B04A9384600F0BBF9EDE7195900082A
:104920002359000800000000814600081F590008B4
:104930009368013B002B10B4936008DA9469A3429A
:1049400001DB0A2903D15DF8044BFFF795BC13681E
:10495000581C1060197008465DF8044B7047F8B594
:1049600006460F461446D518AC4201D1002007E098
:1049700014F8011B3A463046FFF7DAFF431CF3D127
:10498000F8BD00002DE9F04F0D469DB01446984645
:10499000064618B1036A0BB9FFF718FB6B6ED9070F
:1049A00005D4AB899A0502D4A86DFFF74EFDAB89FB
:1049B0001B0701D52B699BB929463046FFF79AFCA6
:1049C00070B16B6EDC0704D54FF0FF301DB0BDE851
:1049D000F08FAB899805F7D4A86DFFF737FDF3E7A3
:1049E0000023099320238DF82930CDF80C80302343
:1049F000DFF8AC818DF82A304FF0010923469A4642
:104A000013F8012B0AB1252AF9D1BAEB040B0BD00C
:104A10005B46224629463046FFF7A1FF013000F0F1
:104A2000A780099A5A4409929AF80030002B00F0A6
:104A30009F8000234FF0FF32CDE905230AF1010AE0
:104A4000049307938DF853301A935446052214F8B3
:104A5000011B534800F0A4FB049AD8B9D10644BF07
:104A600020238DF85330130744BF2B238DF8533088
:104A70009AF800302A2B15D0079A544600204FF0A0
:104A80000A0C214611F8013B303B092B4BD9B0B140
:104A9000079214E0A0EB080309FA03F3134304930D
:104AA000A246D2E7039B191D1B680391002BBBBFD5
:104AB0005B4242F0020207930793B8BF0492237847
:104AC0002E2B0AD163782A2B32D1039B1A1D1B6827
:104AD000039243EAE37302340593DFF8D4A021780C
:104AE0000322504600F05CFB38B1049BA0EB0A00A7
:104AF0004022824013430134049314F8011B2948D7
:104B00008DF82810062200F04BFB00283FD0264BE2
:104B10001BBB039B073323F0070308330393099B55
:104B20003B4409936AE70CFB02320C460120A8E7DC
:104B300000230134059319464FF00A0C204610F863
:104B4000012B303A092A03D9002BC6D00591C4E7BE
:104B50000CFB012104460123F0E703AB00932A4636
:104B6000124B04A93046AFF300800746781CD6D11B
:104B70006B6ED90705D4AB899A0502D4A86DFFF7EF
:104B800065FCAB895B063FF51FAF09981EE703ABD9
:104B900000932A46054B04A9304600F079F8E4E773
:104BA0001959000823590008000000005F49000857
:104BB0001F5900082DE9F047164698468A680B6988
:104BC000DDF820909342B8BF1346336091F843203C
:104BD00007460C460AB1013333602368990642BF89
:104BE000336802333360256815F0060506D104F1F9
:104BF000190AE36832689B1AAB4226DC94F843300A
:104C00002268003B18BF012392062BD404F1430213
:104C100041463846C84701301ED02368226903F058
:104C20000603042B02BFE5683368ED1AA3680CBFC6
:104C300025EAE57500259342C4BF9B1AED180026AE
:104C40001A34B5421AD1002008E0012352464146E9
:104C50003846C847013003D14FF0FF30BDE8F08738
:104C60000135C6E7E1185A1C302081F84300224480
:104C700094F8451082F843100233C7E70123224617
:104C800041463846C8470130E6D00136D9E7000032
:104C90002DE9FF470F7E0C9E782F914680460C46EB
:104CA0009A4601F1430207D8622F0AD8002F00F07C
:104CB000DD80582F00F0C38004F1420684F8427072
:104CC0003AE0A7F16303152BF6D801A151F823F0C0
:104CD000294D00083D4D0008B94C0008B94C0008AA
:104CE000B94C0008B94C00083D4D0008B94C00080B
:104CF000B94C0008B94C0008B94C0008534E0008E4
:104D0000CB4D00080B4E0008B94C0008B94C000808
:104D1000754E0008B94C0008CB4D0008B94C00088E
:104D2000B94C0008134E000833681A1D1B68326026
:104D300004F1420684F842300123A8E03168236878
:104D4000081D30601E0601D50D6803E05D06FBD529
:104D5000B1F900506168002D78DA2D20002984F81F
:104D60004300A1602DDA5E486D420A231646B5FB6A
:104D7000F3F103FB1157C75D06F8017D2F46BB42D7
:104D80000D46F4D9082B0BD12368DF0708D523691A
:104D900061689942DEBF302306F8013C06F1FF3618
:104DA000921B2261CDF800A04B4603AA2146404643
:104DB000FFF700FF01306FD14FF0FF3004B0BDE8C6
:104DC000F08723F004032360CDE7216833680806E9
:104DD00053F8045B02D4490648BFADB26F2F404878
:104DE000336014BF0A230823002184F84310666847
:104DF000A660002EBADB216821F004012160002D9D
:104E0000B4D1002EB2D11646BCE7236843F020038C
:104E100023603448782784F84570236831681F067A
:104E200051F8045B02D45F0648BFADB23160D907C8
:104E300044BF43F0200323601DB11023D4E728486A
:104E4000E9E7236823F020032360F6E724480A23D8
:104E5000CDE7336825686169181D30602E061B6830
:104E600001D5196002E06806FBD519800023236193
:104E7000164697E733681A1D32601E686268002183
:104E8000304600F08DF908B1801B606063682361D3
:104E9000002384F8433085E723693246494640467B
:104EA000D047013088D023689B0714D4E068039B67
:104EB0009842B8BF184681E701233246494640462A
:104EC000D04701303FF478AF0135E36803995B1AAE
:104ED000AB42F1DCEAE7002504F11906F5E700BF73
:104EE0002A5900083B590008B1F90C202DE9F0417E
:104EF000170705460C4656D44B68002B02DC0B6C9A
:104F0000002B3DDDE66A002E3AD0002312F48052D9
:104F10002F68216A2B6025D0626DA389580705D5BB
:104F20006368D21A636B0BB1236CD21A216AE66AEA
:104F300000232846B047411C24D000236360236926
:104F40002360A389DA0400D56065616B2F60B9B175
:104F500004F14403994202D02846FFF799FA00234E
:104F600063630DE001232846B047461C0246D4D1B6
:104F70002B68002BD1D01D2B01D0162B2BD12F60ED
:104F800000202FE02A68B4F90C3042B11D2A01D06C
:104F9000162A22D10023636023692360D5E762606B
:104FA00022692260CEE70F69002FE9D093070E68CF
:104FB00008BF4B690F6018BF0023A6EB07088B6082
:104FC000B8F1000FDCDD216AA66A43463A4628465E
:104FD000B047002808DCB4F90C3043F04003A3814B
:104FE0004FF0FF30BDE8F0810744A8EB0008E7E789
:104FF00038B50B6905460C4613B90025284638BD5F
:1050000018B1036A0BB9FEF7E1FFB4F90C30002BBD
:10501000F3D0626ED00704D4990502D4A06DFFF7D7
:1050200014FA28462146FFF75FFF636EDA0705464C
:10503000E4D4A3899B05E1D4A06DFFF707FADDE76F
:1050400070B50C46B1F90E10002996B015461E46F3
:105050000DDAA38913F0800F4FF0000114BF402335
:105060004FF48063002031602B6016B070BD6A463B
:1050700000F062F80028ECDB019901F47041A1F521
:105080000053594259414FF48063EBE78B89F7B5E0
:105090009D0706460C4607D504F1470323602361AC
:1050A0000123636103B0F0BD01AB6A46FFF7C8FF9F
:1050B000009F054639463046FFF75EFA48B9B4F915
:1050C0000C309A05EED423F0030343F00203A381CE
:1050D000E2E7A389206043F08003A381019BC4E938
:1050E00004075BB1B4F90E10304600F037F828B170
:1050F000A38923F0030343F00103A381A3891D4384
:10510000A581CFE7884210B501EB020402D98442A1
:10511000234607D8431EA14208D011F8012B03F8FB
:10512000012FF8E7024401468A4200D110BD13F86E
:10513000014D02F8014DF7E738B5074D002304464D
:10514000084611462B60FCF795F8431C02D12B68EA
:1051500003B1236038BD00BFD801002038B5064D2B
:105160000023044608462B60FCF791F8431C02D14B
:105170002B6803B1236038BDD801002038B5064D37
:105180000023044608462B60FBF752FE431C02D165
:105190002B6803B1236038BDD80100200000000057
:1051A00001F0FF01102A2BDB10F0070F08D010F8D8
:1051B000013B013A8B422DD010F0070F42B3F6D1DC
:1051C000F0B441EA012141EA014122F007047FF0F5
:1051D00000070023F0E80256083C85EA010586EA4C
:1051E000010685FA47F5A3FA87F586FA47F6A5FA88
:1051F00087F68EB9EED1F0BC01F0FF0102F0070294
:1052000032B110F8013B013A83EA010313B1F8D13E
:105210000020704701387047002D06BF354603381F
:10522000073815F0010F07D1013015F4807F02BF58
:10523000013015F4C03F0130F0BC0138704700BFA9
:105240002DE9F041804615460C4621B9BDE8F041F4
:105250001146FFF791B92AB9FFF71AF90024204641
:10526000BDE8F08100F01AF88542064602D8B5EB99
:10527000500FF4D829464046FFF77EF9074600282C
:10528000ECD0B5422A46214628BF3246FFF7E9F85E
:1052900021464046FFF7FCF83C46E0E751F8043C65
:1052A000181F002BBCBF0B58C01870472E2E2F7331
:1052B000797374656D2F7372632F73746D333266F7
:1052C000342D68616C2F73746D3332663478785F77
:1052D00068616C5F636F727465782E630000000014
:1052E0002E2E2F73797374656D2F7372632F737401
:1052F0006D333266342D68616C2F73746D33326692
:105300003478785F68616C5F7263632E63000000BD
:105310002C2066756E6374696F6E3A200000000081
:10532000617373657274696F6E2022257322206623
:1053300061696C65643A2066696C65202225732278
:105340002C206C696E65202564257325730A000086
:1053500061626F727428292C2065786974696E67A0
:105360002E2E2E003A747400537461636B206672A3
:10537000616D653A0A000000205230203D20202552
:105380003038580A00000000205231203D202025EE
:105390003038580A00000000205232203D202025DD
:1053A0003038580A00000000205233203D202025CC
:1053B0003038580A0000000020523132203D2025AC
:1053C0003038580A00000000204C52203D20202593
:1053D0003038580A00000000205043203D2020258E
:1053E0003038580A0000000020505352203D20253C
:1053F0003038580A000000004653522F4641523AB6
:105400000A0000002043465352203D20202530381A
:10541000580A00002048465352203D2020253038AD
:10542000580A00002044465352203D2020253038A1
:10543000580A00002041465352203D202025303894
:10544000580A0000204D4D464152203D202530385D
:10545000580A00002042464152203D202025303885
:10546000580A00004D6973630A000000204C522F57
:105470004558435F52455455524E3D2025303858CB
:105480000A0000005B486172644661756C745D0AD5
:10549000000000005B4275734661756C745D0A0024
:1054A0005B55736167654661756C745D0A00000049
:1054B00000000000000000000102030406070809C4
:1054C00057726F6E6720706172616D65746572737B
:1054D0002076616C75653A2066696C6520257320BD
:1054E0006F6E206C696E652025640D0A0000000057
:1054F00054696D652069733A20256C7500000000C1
:105500002A2A2A2A2A2A2A2A2A2A2A2A2A2A2A2AFB
:105510002A20497465726174696F6E206E756D62C0
:105520006572202564202A2A2A2A2A2A2A2A2A2A37
:105530002A2A2A2A2A2A2A0A00000000546F7461A3
:105540006C2053656E74204D6573736167657320BD
:105550006F66205461736B20313A202564200A0065
:10556000546F74616C20426C6F636B6564204D6591
:10557000737361676573206F66205461736B2031AC
:105580003A202564200A0000546F74616C20536532
:105590006E74204D65737361676573206F66205468
:1055A00061736B20323A202564200A00546F7461C5
:1055B0006C20426C6F636B6564204D65737361672B
:1055C0006573206F66205461736B20323A20256426
:1055D000200A0000546F74616C2053656E74204D76
:1055E00065737361676573206F66205461736B2008
:1055F000333A202564200A00546F74616C20426C99
:105600006F636B6564204D65737361676573206FAD
:1056100066205461736B20333A202564200A000011
:10562000546F74616C2053656E74204D65737361A3
:105630006765733A202564200A000000546F746186
:105640006C205265636965766564204D657373618E
:105650006765733A202564200A000000546F746166
:105660006C20426C6F636B6564204D65737361677A
:1056700065733A202564200A0000000041766572B7
:105680006167652054696D65206F662053656E649F
:105690006572313A202564200A0000004176657267
:1056A0006167652054696D65206F662053656E647F
:1056B0006572323A202564200A0000004176657246
:1056C0006167652054696D65206F662053656E645F
:1056D0006572333A202564200A00000047616D6539
:1056E000204F76657220000053656E64657220312C
:1056F0000000000053656E646572203200000000F7
:1057000053656E6465722033000000005265636566
:10571000697665720000000053656E646572312021
:1057200054696D657200000053656E6465723220C5
:1057300054696D657200000053656E6465723320B4
:1057400054696D6572000000526563656976657223
:105750002054696D65720000517565756520436F51
:10576000756C64206E6F742062652063726561746D
:105770006564200049444C4500000000546D72519E
:1057800000000000546D7220537663005245454E70
:1057900054206D616C6C6F63207375636365656421
:1057A0006564002F5F5F772F61726D2D6E6F6E6580
:1057B0002D656162692D6763632D787061636B2F5E
:1057C00061726D2D6E6F6E652D656162692D676307
:1057D000632D787061636B2F6275696C642F7769D4
:1057E0006E33322D7836342F736F75726365732F75
:1057F0006E65776C69622D63796777696E2F6E6568
:10580000776C69622F6C6962632F7374646C696270
:105810002F72616E642E6300002020202020202043
:105820002020282828282820202020202020202050
:105830002020202020202020208810101010101060
:1058400010101010101010101004040404040404AC
:105850000404041010101010101041414141414146
:105860000101010101010101010101010101010128
:105870000101010110101010101042424242424238
:1058800002020202020202020202020202020202F8
:1058900002020202101010102000000000000000A0
:1058A00000000000000000000000000000000000F8
:1058B00000000000000000000000000000000000E8
:1058C00000000000000000000000000000000000D8
:1058D00000000000000000000000000000000000C8
:1058E00000000000000000000000000000000000B8
:1058F00000000000000000000000000000000000A8
:105900000000000000000000000000000000000097
:10591000000000000000000000232D302B20006854
:105920006C4C00656667454647003031323334358C
:1059300036373839414243444546003031323334FA
:0C594000353637383961626364656600F3
:08594C00D0E1FF7F0100000023
:105954007856341201FFFFFF100000000024F40009
:10596400FFFFFFFF96000000C8000000FA000000DF
:105974002C0100005E0100009001000032000000D4
:10598400500000006E0000008C000000AA0000001F
:10599400C8000000AAAAAAAA000000000300000090
:1059A4005430012058000020000000005430012031
:1059B400BC30012024310120000000000000000060
:1059C40000000000000000000000000000000000D3
:1059D40000000000000000000000000000000000C3
:1059E40000000000000000000000000000000000B3
:0859F400000000003254769817
:040000050800018965
:00000001FF
