:020000040800F2
:1000000000000220B9020008BF020008C302000875
:1000100035030008390300088103000800000000D0
:10002000000000000000000000000000711B00083C
:10003000CD03000800000000111C0008751C00081A
:10004000E5030008E5030008E5030008E5030008F0
:10005000E5030008E5030008E5030008E5030008E0
:10006000E5030008E5030008E5030008E5030008D0
:10007000E5030008E5030008E5030008E5030008C0
:10008000E5030008E5030008E5030008E5030008B0
:10009000E5030008E5030008E5030008E5030008A0
:1000A000E5030008E5030008E5030008E503000890
:1000B000E5030008E5030008E5030008E503000880
:1000C000E5030008E5030008E5030008E503000870
:1000D000E5030008E5030008E5030008E503000860
:1000E000E5030008E5030008E5030008E503000850
:1000F000E5030008E5030008E5030008E503000840
:10010000E5030008E5030008E5030008E50300082F
:10011000E5030008E5030008E5030008E50300081F
:10012000E5030008E5030008E5030008E50300080F
:10013000E5030008E5030008E5030008E5030008FF
:10014000E5030008E5030008E5030008E5030008EF
:10015000E5030008E5030008E5030008E5030008DF
:10016000E5030008E5030008E5030008E5030008CF
:10017000E5030008E5030008E503000800000000AF
:10018000E5030008E503000800B583B001F0C2F9FB
:10019000384B394A1360394A1360394906E052F83E
:1001A000041B43F8041B9842F9D86146354B994229
:1001B00005D20A684B6801F10C0C8868F3E72E4BF6
:1001C0001A68314B9A4200D0FEE72C4B1A682F4B2D
:1001D0009A42F9D1274B2E4A13602E4A13602E4AB9
:1001E00000E002462D4B9A4209D2104650F8083BD7
:1001F00051689942F5D9002243F8042BF9E7244BC2
:100200001B6813B9234B1B6803B1FEE701F036FAF4
:10021000694601A800F0A8FE214C224BE41AA41064
:10022000002504E01F4B53F8253098470135AC42B8
:10023000F8DC1D4C1D4BE41AA410002504E01B4BF8
:1002400053F8253098470135AC42F8DC0099019805
:1002500001F0A4FA0546164C164BE41AA41004E06B
:10026000013C144B53F824309847002CF8DC284606
:1002700000F016FEBABADECA0000002070000020AE
:10028000E8030008000400087856341232547698C7
:10029000740000201431012000040008100400083C
:1002A00010040008100400081004000810040008DE
:1002B000100400081004000808B5FFF765FF00BE31
:1002C000FEE71EF0040F0CBFEFF30880EFF3098088
:1002D0007146414A10472DE9F04182B004460D466F
:1002E000124B5F6BD3F838809E6A1B6B13F0020FC2
:1002F00003D00E4BDB6A002B0BDB0D4800F0F4FF44
:10030000009543463A463146204601F019F800BEB2
:10031000FEE74BF6AB6101F08DF80028EDD0034B02
:100320004FF00042DA6202B0BDE8F08100ED00E07B
:10033000E04B000800BEFEE71EF0040F0CBFEFF319
:100340000880EFF309807146244A10472DE9F041F7
:1003500082B004460D46084B5F6BD3F838809E6A26
:10036000064800F0C1FF009543463A463146204614
:1003700000F0E6FF00BEFEE700ED00E0F04B0008F5
:100380001EF0040F0CBFEFF30880EFF309807146F5
:10039000134A10472DE9F04182B004460D46084B40
:1003A0005F6BD3F838809E6A064800F09DFF009589
:1003B00043463A463146204600F0C2FF00BEFEE703
:1003C00000ED00E0FC4B000800BEFEE700BEFEE7CB
:1003D00000BEFEE770470000D70200084D0300088A
:0803E0009503000800BEFEE7D2
:1003E8001C4F000800000020740000201C4F00086B
:1003F80000000010000000107400002018310120D7
:080408000000001000000010CC
:1004100010B504460E4B1A784FF47A73B3FBF2F31F
:100420000C4A1068B0FBF3F000F0AEF868B90F2C7E
:1004300001D901200AE0002221464FF0FF3000F0F0
:100440007FF8054B1C60002000E0012010BD00BFBC
:10045000040000200C0000200800002008B50B4B11
:100460001A6842F400721A601A6842F480621A60D4
:100470001A6842F480721A60032000F043F80F20DB
:10048000FFF7C6FF01F006FA002008BD003C02405D
:10049000014B1868704700BF78000020002808DB77
:1004A0000901C9B200F1604000F5614080F8001315
:1004B000704700F00F000901C9B2014B1954704791
:1004C00014ED00E000B500F00700C0F1070CBCF12E
:1004D000040F28BF4FF0040C031D062B0FD9C31EB9
:1004E0004FF0FF3E0EFA0CF021EA000199400EFA9F
:1004F00003FE22EA0E0241EA02005DF804FB00233B
:10050000EEE7000010B50446C31E042B0FD80A4ABC
:10051000D36823F4E0631B041B0C240204F4E0649E
:10052000234343F0BF6343F40033D36010BD9221F3
:10053000024801F0ABF8EAE700ED00E05C4A000891
:1005400070B506460C4615460F2A0ED80F2C11D84A
:100550000B4BD8682A462146C0F30220FFF7B2FFB2
:1005600001463046FFF79AFF70BDAA21054801F009
:100570008DF8EBE7AB21034801F088F8E8E700BF0E
:1005800000ED00E05C4A00080138B0F1807F0BD23A
:100590004FF0E0235861054AF02182F82310002033
:1005A000986107221A6170470120704700ED00E052
:1005B00008B5042807D068B94FF0E022136923F08A
:1005C0000403136108BD4FF0E022136943F00403F4
:1005D0001361F7E740F2C911014801F057F8EBE762
:1005E0005C4A0008002800F05B8270B582B00446C7
:1005F00003680F2B39D8236813F0010F4DD06368BF
:100600002BB1B3F5803F02D0B3F5A02F32D1804B90
:100610009B6803F00C03042B36D07D4B9B6803F0E2
:100620000C03082B2BD06368B3F5803F5FD0B3F584
:10063000A02F62D0764B1A6822F480321A601A68B2
:1006400022F480221A606368002B60D0FFF720FF3D
:1006500005466F4B1B6813F4003F1ED1FFF718FFD0
:10066000401B6428F5D9032021E2E821694801F004
:100670000DF8C0E7ED21674801F008F8C7E7644BC3
:100680005B6813F4800FCED0614B1B6813F4003FFE
:1006900003D06368002B00F00582236813F0020F7B
:1006A00066D0E368012B41D823691F2B44D8584BEF
:1006B0009B6813F00C0F4AD0554B9B6803F00C035A
:1006C000082B3FD0E368002B77D0534B01221A60F0
:1006D000FFF7DEFE05464E4B1B6813F0020F63D199
:1006E000FFF7D6FE401B0228F5D90320DFE1484A78
:1006F000136843F480331360A5E7454B1A6842F44E
:1007000080221A601A6842F480321A609BE7FFF771
:10071000BFFE05463E4B1B6813F4003FBDD0FFF7FC
:10072000B7FE401B6428F5D90320C0E140F21F1139
:10073000384800F0ABFFB7E74FF49071354800F050
:10074000A5FFB4E7324B5B6813F4800FBAD1304B8E
:100750001B6813F0020F03D0E368012B40F0A48163
:100760002B4A136823F0F803216943EAC10313609D
:10077000236813F0080F51D06369012B2FD86369E8
:100780009BB3254B0122C3F8802EFFF781FE05465F
:100790001F4B5B6F13F0020F40D1FFF779FE401B38
:1007A0000228F5D9032082E1194A136823F0F803DF
:1007B000216943EAC1031360DAE7174B00221A608C
:1007C000FFF766FE0546124B1B6813F0020FCFD0F1
:1007D000FFF75EFE401B0228F5D9032067E14FF4C6
:1007E000B0710C4800F052FFC9E70B4B0022C3F870
:1007F000802EFFF74DFE0546054B5B6F13F0020F91
:100800000CD0FFF745FE401B0228F5D903204EE12E
:1008100000380240904A000800004742236813F065
:10082000040F7CD0A368012B01D9052B38D1A44B30
:100830001B6C13F0805F39D100230193A04B1A6C1D
:1008400042F080521A641B6C03F080530193019BA9
:1008500001259C4B1B6813F4807F29D0A368012BD2
:100860003AD0052B3ED0964B1A6F22F001021A6740
:100870001A6F22F004021A67A368002B3CD0FFF71E
:1008800007FE06468E4B1B6F13F0020F45D1FFF794
:10089000FFFD801B41F288339842F3D9032006E123
:1008A0004FF4C671884800F0F1FEC0E70025D0E79C
:1008B000844A136843F480731360FFF7E9FD06462A
:1008C000804B1B6813F4807FC8D1FFF7E1FD801BCC
:1008D0000228F5D90320EAE0794A136F43F00103B7
:1008E0001367C9E7764B1A6F42F004021A671A6F52
:1008F00042F001021A67BFE7FFF7CAFD0646704BD8
:100900001B6F13F0020F08D0FFF7C2FD801B41F2EE
:1009100088339842F3D90320C9E0002D3ED1A36962
:10092000022B41D8A369002B00F0C080644A926872
:1009300002F00C02082A00F09380022B7CD1E369BC
:1009400013B1B3F5800F35D1236A3F2B38D8636AD2
:10095000323BB3F5BF7F39D8A36A022B08D0082BEE
:100960003AD84FF4A87222FA03F313F0010F33D0F0
:10097000E36A023B0D2B35D8544B00221A66FFF771
:1009800087FD05464E4B1B6813F0007F30D0FFF704
:100990007FFD401B0228F5D9032088E0484A136CEC
:1009A00023F080531364BAE740F2CF11464800F0B9
:1009B0006DFEB7E74FF4EC71434800F067FEC3E704
:1009C00040F2D911404800F061FEC0E74FF4ED71EC
:1009D0003D4800F05BFEBFE740F2DB113A4800F013
:1009E00055FEC5E74FF4EE71374800F04FFEC3E700
:1009F000E369226A1343626A43EA8213A26A5208D5
:100A0000013A43EA0243E26A43EA02632C4A536032
:100A10002E4B01221A66FFF73BFD0446284B1B684C
:100A200013F0007F06D1FFF733FD001B0228F5D934
:100A300003203CE000203AE0244B00221A66FFF736
:100A400027FD04461E4B1B6813F0007F06D0FFF7FE
:100A50001FFD001B0228F5D9032028E0002026E016
:100A6000012B26D0164B5B6803F48001E2699142AA
:100A700021D103F03F02216A8A421ED1616A47F602
:100A8000C0721A408A4223D103F44032A16A8A42DA
:100A900020D103F07063E26A93421DD1002006E08A
:100AA00001207047012002E0012000E0002002B098
:100AB00070BD0120FBE70120F9E70120F7E700BF47
:100AC0000038024000700040904A00080000474291
:100AD0000120ECE70120EAE70120E8E708B5334B05
:100AE0009B6803F00C03042B5BD0082B5BD12F4BCE
:100AF0005A6802F03F025B6813F4800F2CD02B4B36
:100B00005868C0F388104FEA401CBCEB000C6EEB39
:100B10000E0E4FEA8E1343EA9C634FEA8C11B1EB41
:100B20000C0163EB0E03DB0043EA5173C90011EBC8
:100B3000000C43F10003590200234FEA4C2041EA24
:100B4000DC5102F017FC194B5B68C3F3014301331E
:100B50005B00B0FBF3F027E0144B5868C0F388103B
:100B60004FEA401CBCEB000C6EEB0E0E4FEA8E13EE
:100B700043EA9C634FEA8C11B1EB0C0163EB0E036B
:100B8000DB0043EA5173C90011EB000C43F1000391
:100B9000990200234FEA8C2041EA9C5102F0EAFBC3
:100BA000D1E7034800E0034808BD00BF0038024019
:100BB00000127A000024F400002800F0FA8070B5DA
:100BC0000D4604460368013B0E2B30D8072D34D860
:100BD0007C4B1B6803F00F03AB4208D2EBB2794A9F
:100BE0001370136803F00F03AB4240F0E4802368F6
:100BF00013F0020F32D013F0040F04D0724A93683E
:100C000043F4E0539360236813F0080F04D06E4A56
:100C1000936843F460439360A368C3B1C02B16D0BC
:100C200049D8A02B13D00ED9B02B10D049E040F2F8
:100C30005121664800F02AFDC8E740F2522163487E
:100C400000F024FDC4E7802B01D0902B39D15E4AFF
:100C5000936823F0F003A1680B439360236813F0BB
:100C6000010F48D06368032B31D86368012B34D05F
:100C70009A1E012A38D9544A126812F0020F00F065
:100C80009C8051498A6822F0030213438B60FFF76E
:100C9000FFFB06464C4B9B6803F00C036268B3EB0A
:100CA000820F28D0FFF7F4FB801B41F28833984273
:100CB000F0D9032070E0E02BC9D0F02BC7D0D02BA7
:100CC000C5D040F27521414800F0E0FCBFE74FF489
:100CD0001F713E4800F0DAFCC7E73B4A126812F485
:100CE000003FCED1012057E0374A126812F0007F52
:100CF000C7D1012050E0334B1B6803F00F03AB4218
:100D000007D9EAB22F4B1A701B6803F00F03AB42EE
:100D100055D1236813F0040F14D0E3685BB1B3F529
:100D2000805F08D0B3F5A05F05D0B3F5C05F02D0F7
:100D3000B3F5E05F31D1244A936823F4E053E168CE
:100D40000B439360236813F0080F15D023695BB140
:100D5000B3F5805F08D0B3F5A05F05D0B3F5C05FF1
:100D600002D0B3F5E05F1ED1174A936823F46043C5
:100D7000216943EAC1039360FFF7B0FE124B9B6801
:100D8000C3F30313124AD35CD840124B1860124BC2
:100D90001868FFF73DFB002070BD40F2BA210B48F8
:100DA00000F074FCC7E740F2C121084800F06EFC77
:100DB000DAE7012070470120EEE70120ECE701208F
:100DC000EAE700BF003C024000380240904A0008B9
:100DD0000C4C00080C00002008000020014B186893
:100DE000704700BF0C00002008B503460C4A12688B
:100DF0005AB10B4A1068033323F003030344094A32
:100E0000934206D8064A136008BD054A0649116098
:100E1000EFE702F0FBFE0C2303604FF0FF30F3E737
:100E20007C00002000FC01201831012030B5132483
:100E3000002520462946ABBE0446204630BD38B5C5
:100E4000044602F0E3FE0546FFF7F0FF2860204667
:100E500038BDB0F1FF3F00D0704708B5FFF7EFFF96
:100E600008BD000010B504460B4B186808B1436874
:100E70005BB1132C0CD8094B53F83430B3F1FF3F5E
:100E800008D0064800EBC40010BD02F077FCF0E784
:100E90000020F9E70020F7E72000002004010020EF
:100EA00000B530B9044D182420462946ABBE04468F
:100EB000FEE7024DF7E700BF260002002300020014
:100EC0002DE9F04184B0234F0197032603960023B8
:100ED0000293012401AD20462946ABBE80461E4B3D
:100EE000C3F8008001970396042302932046294605
:100EF000ABBE8046194BC3F80080019703960823C8
:100F0000029320462946ABBE0446154B1C60B4F143
:100F1000FF3F01D000230AE0104B1A68104B1A6003
:100F2000F8E7104A4FF0FF3142F833100133132B2A
:100F3000F7DD0C4B084A12681A6000225A60074914
:100F400009689960DA600649096819615A6104B054
:100F5000BDE8F081C04A000800010020FC0000202C
:100F6000F8000020040100202DE9F04383B0814601
:100F700088462A4B00934F23019315276C46384629
:100F80002146ABBE0746AFBB244B002283F84F205F
:100F9000009A3E463C463D4607E001321E46204B45
:100FA00043F8252001350124013292F90030FBB1CC
:100FB00064B91C49C9560029F6DB092BF4D0082D69
:100FC00016DC222BE9D0272BE9D1E6E736B19E4289
:100FD000EAD1002313703E463C46E5E71149C95665
:100FE000002901DB092BDFD1002313703446DBE736
:100FF0003DB900E00025094B00221A70084A136031
:101000000135074B002243F82520C9F80050C8F8E5
:101010000030FFF755FF03B0BDE8F083A8000020C3
:1010200080000020E14D000830B585B001900291AC
:101030000392062401AD20462946ABBE0446204655
:10104000FFF707FF05B030BD70B50D461446FFF73A
:1010500009FF68B10646224629460068FFF7E4FF0B
:10106000B0F1FF3F03D07368201A0344736070BD72
:1010700002F0CCFD092303604FF0FF30F7E7F0B535
:1010800083B00C461546FFF7EDFEC0B10646022DB3
:101090001CD8012D21D0022D29D033680093019452
:1010A0000A256F4628463946ABBE05462846FFF757
:1010B000D0FE00282BDB7460204603B0F0BD02F0A8
:1010C000A5FD092303604FF0FF30F6E702F09EFD17
:1010D000162303604FF0FF30EFE74368E418DCD5D8
:1010E00002F094FD162303604FF0FF30E5E703683C
:1010F00000930C256F4628463946ABBE0546284668
:10110000FFF7A7FEB0F1FF3FD7D00444C5E74FF08B
:10111000FF30D2E708B5FFF7B2FF08BD30B585B0A4
:10112000019002910392052401AD20462946ABBEF1
:1011300004462046FFF78DFE05B030BD70B50D4664
:101140001446FFF78FFE70B1064622462946006816
:10115000FFF7E4FF031E11DB7268E01A02447260BD
:101160009C4207D070BD02F051FD092303604FF08F
:10117000FF30F7E70020FFF762FEF3E74FF0FF30A4
:10118000F0E730B583B00190022401AD2046294636
:10119000ABBE04462046FFF75CFE03B030BD000046
:1011A00038B50446FFF75EFE80B10546601E012893
:1011B00004D80C4B9A681B699A420ED02868FFF736
:1011C000E0FF10B94FF0FF332B6038BD02F01EFD79
:1011D000092303604FF0FF30F7E74FF0FF332B6038
:1011E0000020F2E70401002070B50C46FFF73AFE3C
:1011F000A8B10646636843F4005363604FF480630C
:10120000A3640C2528463146ABBE05462846FFF7A9
:1012100020FEB0F1FF3F01D02061002070BD02F040
:10122000F5FC092303604FF0FF30F7E738B50546BA
:101230000C4658220021204602F08AFC214628460E
:10124000FFF7D2FF38BD38B5FFF70CFE80B1054679
:10125000092420462946ABBE04462046012C06D070
:1012600002F0D4FC0446FFF7E1FD2060002038BD09
:1012700002F0CCFC092303600020F8E72DE9F043DD
:1012800085B004460F4643563BBB042528462146FD
:10129000ABBE0546384605B0BDE8F08314F901CB76
:1012A00003F110026A4402F810CC0133AB42F5D3CB
:1012B00010336B44002203F8102C4FF00408E94669
:1012C00040464946ABBE8046761B002EE2D03546EE
:1012D000102E28BF10250023E8E70E46F5E708B5D5
:1012E000FFF7CCFF08BD00000FB400B583B004AB1E
:1012F00053F8042B01938021074802F087FB002854
:1013000004DC03B05DF804EB04B07047014602480A
:10131000FFF7E5FFF5E700BFA8010020BFF34F8FFF
:101320000549CA6802F4E062044B1343CB60BFF383
:101330004F8F00BFFDE700BF00ED00E00400FA059D
:10134000F8B504460D4617461E462748FFF7CCFF62
:1013500021682648FFF7C8FF61682548FFF7C4FFEA
:10136000A1682448FFF7C0FFE1682348FFF7BCFFEE
:1013700021692248FFF7B8FF61692148FFF7B4FFF0
:10138000A1692048FFF7B0FFE1691F48FFF7ACFFF4
:101390001E48FFF7A9FF29461D48FFF7A5FF1D4C72
:1013A000E16A1D48FFF7A0FF216B1C48FFF79CFF77
:1013B000E16B1B48FFF798FF15F0800F0AD115F479
:1013C000004F0CD11748FFF78FFF06991648FFF71B
:1013D0008BFFF8BD39461548FFF786FFEFE731462A
:1013E0001348FFF781FFEDE7C44A0008D44A00081C
:1013F000E44A0008F44A0008044B0008144B0008B3
:10140000244B0008344B0008444B0008544B0008A0
:10141000604B000800ED00E0704B0008804B0008B6
:10142000904B0008C04B0008C84B0008A04B0008B8
:10143000B04B000838B583691B888B4201D000206F
:1014400038BD044603684568013B302B5ED8DFE8B1
:1014500003F03B211C1C5330332D19195D19191948
:1014600019193619245D19275D395D5D5D5D5D5D76
:101470005D5D5D5D5D5D5D5D5D5D5D5D5D5D5D5D9C
:101480005D1919004FF0FF330360A3690233A361B4
:101490000120D5E700230360F7E700230360F4E7AA
:1014A00000232B606B60AB60EB60EEE70023036012
:1014B000EBE7AB680360E8E700230360E5E70023A0
:1014C0000360E2E7FFF72AFF1149286802F0A7FB53
:1014D00040B96B6813B901232360D6E7042B05D00C
:1014E000082B06D04FF0FF332360CEE702232360A2
:1014F000CBE703232360C8E72B68023B012B02D90B
:10150000AB680360C1E700230360BEE7002097E7F4
:10151000C04A000808B500F009F8024A024B9A6078
:1015200008BD00BF0000000800ED00E0024B4FF0D6
:1015300000629A60704700BF00ED00E0224B9B689C
:1015400003F00C03042B14D0082B16D01BB11F4B37
:101550001F4A1A6002E01D4B1D4A1A601A4B9B6815
:10156000C3F303131B4AD15C184A1368CB401360C2
:101570007047164B184A1A60F0E7134B59685A68BF
:1015800002F03F0211F4800F13D0134BB3FBF2F3C0
:101590000D4A5268C2F3881202FB03F30A4A5268EA
:1015A000C2F3014201325200B3FBF2F3074A136067
:1015B000D4E7074BB3FBF2F3034A5268C2F3881235
:1015C00002FB03F3EAE700BF003802400C000020F2
:1015D0000024F4000C4C000800127A0030B595B0DD
:1015E00000240194224B1A6C42F080521A641B6C46
:1015F00003F080530193019B02941E4B1A6842F43E
:1016000080421A601B6803F480430293029B01230B
:1016100008934FF4803309934FF480030F9308230A
:1016200010934FF4A8731193022512950723139377
:101630000E9508A8FEF7D6FF0F2303930495059493
:101640004FF4A05306934FF480530793052103A84A
:10165000FFF7B2FAFFF7C2FB074BA3FB003080098C
:10166000FEF792FF0420FEF7A3FF15B030BD00BFC8
:101670000038024000700040D34D621008B5FEF7FC
:10168000EDFEFFF7ABFFFFF759FF08BD08B50A46AF
:1016900001460248FFF728FEFEE700BF1C4C000889
:1016A000F0B589B0064600252F4606E0013722E056
:1016B0002A4639461C4802F097F81C4A01AB07CA73
:1016C00003C31A7001F002F90346194A10210DEB09
:1016D000010002F0F9F801AC04A9204602F040FA3A
:1016E000009400231A4669461248006800F0EDFC99
:1016F0000128DBD00135012EDAD0022E07D0032ECF
:101700000BD02A4639460C4802F06EF8D5E72A4637
:1017100039460A4802F068F8CFE72A4639460848B1
:1017200002F062F8C9E700BF504C0008EC4C00081A
:101730004C4C000828020020C84C0008784C0008D7
:10174000A04C0008012808D04FF0500383F3118803
:10175000BFF36F8FBFF34F8FFEE710B582B0002449
:1017600002E00B4802F0A8F800234FF47A7201A9B6
:101770000848006800F0D3FD0128F2D10134019837
:1017800002F09AF82146044802F02EF8ECE700BF78
:10179000184D000828020020F84C000800B583B05E
:1017A00000220421032000F06CFC284B1860002864
:1017B00048D000230193012300934FF47A72244907
:1017C000244801F009F801282CD0002301930123BB
:1017D000009302234FF47A721F491E4800F0FCFF69
:1017E000012823D0002301930223009303234FF405
:1017F0007A721A49174800F0EFFF01281AD0002327
:1018000001930323009301234FF47A72144915487E
:1018100000F0E2FF012811D001F00EF8002003B023
:101820005DF804FB104802F047F8CEE70F4802F0DD
:1018300043F8D7E70E4802F03FF8E0E70D4802F022
:101840003BF8E9E70C4802F037F8E7E72802002008
:10185000384D0008A1160008544D0008704D0008CE
:101860008C4D000845170008404D00085C4D0008ED
:10187000784D0008984D0008AC4D0008FEE7FEE7E3
:1018800000B583B000F02AF90190019B03B05DF828
:1018900004FB704770470000124A12F0070F1ED079
:1018A000D11D21F00701C1F5963313440A460E48B5
:1018B0000260002141601344083B23F007030B48FA
:1018C000036059601960991A51601360084B1960E0
:1018D000084B1960084B4FF000421A6070474FF4F4
:1018E0009633E4E7440200203C0200203802002046
:1018F00030020020340200202C020020164B1A4631
:101900001B688342FBD3516802EB010C844509D06C
:10191000416800EB010C634509D00360904219D087
:10192000106070474068014451601046F0E710B401
:101930000A4C2468A3420BD05B68194441601368C9
:101940001B680360904200D010605DF8044B704744
:101950000460F7E7704700BF3C0200203802002017
:1019600038B5044600F0AAFF3B4B1B68ABB13B4BBC
:101970001B681C4214D1002C66D004F1080214F03C
:10198000070F02D022F007020832D2B1344B1B6895
:1019900093421AD333490C681DE0FFF77DFFE6E759
:1019A00001F02EF80025FFF769FF15F0070F51D061
:1019B0004FF0500383F31188BFF36F8FBFF34F8F46
:1019C000FEE701F01DF80025EDE701F019F800250C
:1019D000E9E721461C466368934202D22368002B44
:1019E000F7D11D4B1B68A34214D00D68083523683E
:1019F0000B6063689B1A102B14D9A01810F0070F06
:101A00000CD04FF0500383F31188BFF36F8FBFF3F7
:101A10004F8FFEE700F0F4FF0025C4E743606260EB
:101A2000FFF76CFF62680E490B689B1A0B600E494A
:101A300009688B4201D20C490B60084B1B681343A9
:101A400063600023236000E0002500F0D9FF002D33
:101A5000ABD1A8E7284638BD380200202C02002070
:101A6000340200203C0200203002002080B338B550
:101A70000446A0F1080550F8043C164A12681342C7
:101A800008D14FF0500383F31188BFF36F8FBFF37A
:101A90004F8FFEE750F8081C41B14FF0500383F31D
:101AA0001188BFF36F8FBFF34F8FFEE723EA020366
:101AB00040F8043C00F002FF54F8041C064A136886
:101AC0000B4413602846FFF719FF00F099FF38BD5B
:101AD000704700BF2C02002034020020014B186820
:101AE000704700BF340200200B4B1B68B3F1FF3F6F
:101AF00008D04FF0500383F31188BFF36F8FBFF30B
:101B00004F8FFEE74FF0500383F31188BFF36F8FC1
:101B1000BFF34F8FFEE700BF1000002006480068AB
:101B2000006880F3088862B661B6BFF34F8FBFF3D9
:101B30006F8F00DF00BF000008ED00E04FF0807302
:101B400040F8043C21F0010140F8081C054B40F826
:101B50000C3C40F8202C6FF0020340F8243C443841
:101B6000704700BFE91A00080000000000000000F4
:101B7000074B19680868B0E8F04F80F30988BFF395
:101B80006F8F4FF0000080F311887047AFF3008033
:101B90008C2F01204FF0500383F31188BFF36F8F18
:101BA000BFF34F8F0B4A136801331360012B00D032
:101BB00070474FF0E023D3F8043D13F0FF0FF7D048
:101BC0004FF0500383F31188BFF36F8FBFF34F8F34
:101BD000FEE700BF10000020094B1B6843B94FF01F
:101BE000500383F31188BFF36F8FBFF34F8FFEE76E
:101BF000013B034A13600BB983F31188704700BFA0
:101C000010000020000000000000000000000000A4
:101C1000EFF30980BFF36F8F154B1A681EF0100F9A
:101C200008BF20ED108A20E9F04F10604DF8043D08
:101C30004FF0500080F31188BFF34F8FBFF36F8FC9
:101C400000F0A0FF4FF0000080F3118808BC196875
:101C50000868B0E8F04F1EF0100F08BFB0EC108A13
:101C600080F30988BFF36F8F704700BFAFF3008028
:101C70008C2F012008B54FF0500383F31188BFF378
:101C80006F8FBFF34F8F00F027FE28B14FF0E02396
:101C90004FF08052C3F8042D002383F3118808BD50
:101CA000064B1B68064AA2FB03239B09013B4FF02E
:101CB000E022536107231361704700BF0C0000202E
:101CC000D34D62104FF0E023D3F8002D344B9A42ED
:101CD0001CD04FF0E023D3F8002D324B9A421ED097
:101CE00010B582B0304B1A78D2B20192FF221A702E
:101CF0001B78DBB28DF803309DF8033003F05003FE
:101D00002A4A13702A4B07221A601BE04FF0500337
:101D100083F31188BFF36F8FBFF34F8FFEE74FF050
:101D2000500383F31188BFF36F8FBFF34F8FFEE72C
:101D30001F4A1368013B13609DF803305B00DBB260
:101D40008DF803309DF8033013F0800FF0D1184A5E
:101D500013681B02136003F4E0631360019BDBB2A2
:101D6000114A13704FF0E024D4F8203D43F470037F
:101D7000C4F8203DD4F8203D43F07043C4F8203D22
:101D8000FFF78EFF0B4B00221A60D4F8343F43F06C
:101D90004043C4F8343FFFF7C1FEFFF7A5FE00BF84
:101DA00071C20F4170C20F4100E400E0482E0120D3
:101DB000442E012010000020EFF305830F2B0FD9D4
:101DC000114A9B5CDBB2114A12789A4208D94FF053
:101DD000500383F31188BFF36F8FBFF34F8FFEE77C
:101DE0004FF0E023D3F80C3D03F4E063084A126897
:101DF000934208D94FF0500383F31188BFF36F8FDC
:101E0000BFF34F8FFEE77047F0E300E0482E01205C
:101E1000442E012000F1080343604FF0FF3282603E
:101E2000C3600361002303607047002303617047B0
:101E300043684B609A688A605160996008610368E2
:101E400001330360704730B40D68B5F1FF3F11D026
:101E500000F108031C465B681A68AA42FAD9636855
:101E60004B6099608C6061600861036801330360B6
:101E700030BC70470469F2E70369416882688A6090
:101E8000416851605A68824205D000220261186898
:101E900001381860704782685A60F6E710B504464A
:101EA000FFF778FEA26BE36B9A4204D00024FFF7A1
:101EB00093FE204610BD0124F9E710B50446FFF754
:101EC00069FEA36B23B90124FFF786FE204610BDEF
:101ED0000024F9E770B504461546866B026C5AB9C2
:101EE00003681BB100200136A66370BD406800F096
:101EF000E5FF00236360F6E76DB9806801F099FEA5
:101F0000A368226C1344A3606268934219D32368C8
:101F1000A3602846E7E7C06801F08BFEE368226C07
:101F200051429B1AE3602268934202D263680B44D9
:101F3000E360022D01D00020D5E726B1013E00204C
:101F4000D1E72846CFE70020CDE70346026C6AB10F
:101F500010B50846D9681144D9605C68A14201D324
:101F60001968D960D96801F064FE10BD704738B5B2
:101F70000546FFF70FFE95F8454064B201E0013CCD
:101F800064B2002C0ADD6B6A43B105F1240000F055
:101F900093FE0028F3D000F02BFFF0E7FF2385F835
:101FA0004530FFF719FEFFF7F5FD95F8444064B2A0
:101FB00001E0013C64B2002C0ADD2B6943B105F15C
:101FC000100000F079FE0028F3D000F011FFF0E7D8
:101FD000FF2385F84430FFF7FFFD38BD38B5E0B189
:101FE0000D460446FFF7D6FD2368E26B216C01FB2A
:101FF000023060600020A063A360013A02FB01335D
:10200000E360FF2384F8443084F84530FDB9236948
:1020100063B9FFF7E1FD012038BD4FF0500383F3B2
:102020001188BFF36F8FBFF34F8FFEE704F11000ED
:1020300000F042FE0028ECD04FF0E0234FF0805239
:10204000C3F8042DBFF34F8FBFF36F8FE1E704F1A7
:102050001000FFF7DFFE04F12400FFF7DBFED8E7F6
:1020600038B51D46049C0B4649B92460E0632364DF
:1020700001212046FFF7B2FF84F84C5038BD2260A2
:10208000F4E740B94FF0500383F31188BFF36F8F2B
:10209000BFF34F8FFEE7F0B583B00C4615460646FA
:1020A00089B101FB00F05030FFF75AFC074638B108
:1020B00000902B4600F1500221463046FFF7D0FF3A
:1020C000384603B0F0BD0846EDE7F0B585B00192A3
:1020D00088B10F461D460446B1B1022D20D1E36BF5
:1020E000012B1DD04FF0500383F31188BFF36F8F86
:1020F000BFF34F8FFEE74FF0500383F31188BFF318
:102100006F8FBFF34F8FFEE7036C002BE5D04FF0CE
:10211000500383F31188BFF36F8FBFF34F8FFEE738
:1021200000F06CFE064658B9019B002B48D04FF0DA
:10213000500383F31188BFF36F8FBFF34F8FFEE718
:1021400000263DE02A4639462046FFF7C3FE636A73
:102150007BB948B14FF0E0234FF08052C3F8042D13
:10216000BFF34F8FBFF36F8FFFF736FD012005B030
:10217000F0BD04F1240000F09FFD0028F4D04FF0E2
:10218000E0234FF08052C3F8042DBFF34F8FBFF30D
:102190006F8FE9E7FFF720FD0020E8E702A800F0D5
:1021A000D1FD012619E0002384F8443021E000230A
:1021B00084F8453023E02046FFF7D9FE00F020FCEC
:1021C000FFF7E8FCA26BE36B9A42BBD3022DB9D0B8
:1021D000019B002BDED0002EE0D0FFF7FDFC00F0CD
:1021E0006DFBFFF7D7FC94F8442052B2B2F1FF3FE9
:1021F000D9D094F8452052B2B2F1FF3FD7D0FFF7C3
:10220000EBFC01A902A800F0B3FDD8B92046FFF706
:1022100045FE0028CFD0019904F1100000F018FD10
:102220002046FFF7A4FE00F0EBFB0028C8D14FF0DA
:10223000E0234FF08052C3F8042DBFF34F8FBFF35C
:102240006F8FBDE72046FFF792FE00F0D9FB00201C
:102250008DE72DE9F84390B10F4616461C4605461A
:10226000B1B1022C20D1EB6B012B1DD04FF05003EC
:1022700083F31188BFF36F8FBFF34F8FFEE74FF0EB
:10228000500383F31188BFF36F8FBFF34F8FFEE7C7
:10229000036C002BE5D04FF0500383F31188BFF39C
:1022A0006F8FBFF34F8FFEE7FFF786FDEFF31188C7
:1022B0004FF0500383F31188BFF36F8FBFF34F8F3D
:1022C000AA6BEB6B9A4206D3022C04D0002088F351
:1022D0001188BDE8F88395F845904FFA89F92246B0
:1022E00039462846FFF7F6FDB9F1FF3F06D009F160
:1022F00001035BB285F845300120E8E76B6A0BB952
:102300000120E4E705F1240000F0D6FC18B126B165
:1023100001203060DBE70120D9E70120D7E72DE974
:10232000F04184B00192A0B10E4698460446C9B16E
:1023300000F064FD054608BB019B002B00F0878080
:102340004FF0500383F31188BFF36F8FBFF34F8FAC
:10235000FEE74FF0500383F31188BFF36F8FBFF395
:102360004F8FFEE7036C002BE2D04FF0500383F356
:102370001188BFF36F8FBFF34F8FFEE7002566E034
:10238000E56831462046FFF7E0FDB8F1000F20D1A7
:102390007B1EA36323683BB123694BB9FFF71CFC89
:1023A000012004B0BDE8F08100F0E0FD6060F3E7DB
:1023B00004F1100000F080FC0028EFD04FF0E02383
:1023C0004FF08052C3F8042DBFF34F8FBFF36F8FD0
:1023D000E4E7E560636A002BE0D004F1240000F03C
:1023E0006BFC0028DAD04FF0E0234FF08052C3F8A6
:1023F000042DBFF34F8FBFF36F8FCFE7FFF7ECFBD9
:102400000020CEE702A800F09DFC012529E0002372
:1024100084F8443031E0002384F8453033E0FFF79E
:10242000B9FB606800F0FAFCFFF7D6FB3BE0204602
:10243000FFF79DFD00F0E4FA09E02046FFF797FD65
:1024400000F0DEFA2046FFF738FD002842D1FFF702
:10245000A1FBA76B002F93D1019B002BCED0002DA9
:10246000D0D0FFF7B9FB00F029FAFFF793FB94F8FF
:10247000442052B2B2F1FF3FC9D094F8452052B285
:10248000B2F1FF3FC7D0FFF7A7FB01A902A800F0F8
:102490006FFC0028D1D12046FFF70FFD0028C6D0E1
:1024A0002368002BBBD0019904F1240000F0D0FB7D
:1024B0002046FFF75CFD00F0A3FA0028C7D14FF0DB
:1024C000E0234FF08052C3F8042DBFF34F8FBFF3CA
:1024D0006F8FBCE7002064E70023072B0CD8074A66
:1024E00052F833200AB10133F7E7044A42F83310B7
:1024F00002EBC30250607047704700BF4C2E0120B2
:1025000070B504460D461646FFF744FB94F8443078
:102510005BB2B3F1FF3F0DD094F845305BB2B3F13D
:10252000FF3F0BD0FFF758FBA36B5BB12046FFF7D3
:102530001EFD70BD002384F84430EDE7002384F8CD
:102540004530EFE73246294604F1240000F098FBBD
:10255000ECE70000084B1B681B6823B9074B4FF0E2
:10256000FF321A607047044B1B68DB68DB685A68EF
:10257000024B1A60704700BFFC2E0120942E0120F0
:1025800010B50446006BFFF771FA2046FFF76EFAAC
:1025900010BD2DE9F04780460D4617469946089E26
:1025A000DDF824A00A9C9200A521206B01F0D0FA4E
:1025B000236B07F18042013A03EB820727F00707FC
:1025C0004FF0000CBCF1090F09D815F90C3004EBE1
:1025D0000C0282F8343013B10CF1010CF2E7002345
:1025E00084F83D30042E00D90426E662A664002556
:1025F000E564201DFFF719FC04F11800FFF715FC36
:102600002461C6F10506A6616462256584F854500C
:102610004A4641463846FFF791FA2060BAF1000F6A
:1026200001D0CAF80040BDE8F087000038B50024AA
:1026300007E004EB840293000E481844FFF7EAFB1E
:102640000134042CF5D90C4D2846FFF7E3FB0B4C65
:102650002046FFF7DFFB0A48FFF7DCFB0948FFF7DE
:10266000D9FB0948FFF7D6FB084B1D60084B1C60DF
:1026700038BD00BF282F0120142F0120002F01207A
:10268000E42E0120D02E0120B82E0120FC2E0120A6
:10269000F82E012010B50446FFF77CFA224A136891
:1026A00001331360214B1B685BB1214B1B686BB975
:1026B0001E4B1B68DA6AE36A9A4207D81B4B1C6000
:1026C00004E01A4B1C601368012B29D0194A1368C7
:1026D000013313602364E06A01238340164A1168C2
:1026E0000B43136000EB8000211D144B03EB8000B3
:1026F000FFF79EFBFFF770FA0D4B1B687BB10B4B8E
:102700001B68DA6AE36A9A4209D24FF0E0234FF07D
:102710008052C3F8042DBFF34F8FBFF36F8F10BDEE
:10272000FFF784FFD2E700BFB42E01208C2F0120D9
:10273000A82E0120982E0120AC2E0120282F012048
:1027400070B504460D461D4B1E681D4B18680430BD
:10275000FFF792FB48B91A4B1B68DB6A01229A40CB
:1027600018490B6823EA02030B60B4F1FF3F0DD058
:102770003444134B1B685C60A64210D9124B186896
:102780000F4B19680431FFF75EFB70BD002DEFD0D1
:102790000B4B196804310D48FFF74AFBF5E70C4B6A
:1027A0001868074B19680431FFF74DFB094B1B688C
:1027B000A342EAD9074B1C60E7E700BFB02E012017
:1027C0008C2F0120AC2E0120F82E0120B82E0120E4
:1027D000FC2E0120942E01202DE9F04385B0074600
:1027E0000E4614461D469000FFF7BAF8F8B1814630
:1027F0005820FFF7B5F8804698B1C0F83090002314
:10280000039302900D9B01930C9B00932B46224651
:1028100031463846FFF7BDFE4046FFF73BFF01203B
:1028200007E04846FFF722F94FF0FF3001E04FF094
:10283000FF3005B0BDE8F08300B583B0194B0193BC
:1028400000230093822218491848FFF7C5FF01288A
:1028500005D0B0F1FF3F1BD003B05DF804FB00F0E2
:10286000F5FB0128F5D14FF0500383F31188BFF336
:102870006F8FBFF34F8F0E4B4FF0FF321A600D4B2F
:1028800001221A600C4B00221A60FFF71BFAE3E7E3
:102890004FF0500383F31188BFF36F8FBFF34F8F57
:1028A000FEE700BF902E0120C84D0008552B000800
:1028B000942E0120A82E0120B02E0120024A136878
:1028C00001331360704700BF8C2E0120014B186844
:1028D000704700BFB02E0120F8B53E4B1B68002B9F
:1028E0006AD13D4B1D6801351D60C5B93B4B1B6866
:1028F0001B6843B14FF0500383F31188BFF36F8F10
:10290000BFF34F8FFEE7354A1168354B18681060EA
:102910001960344A136801331360FFF71BFE324B12
:102920001B68AB423ED90027304B1B68DB6A03EBC8
:1029300083039A002E4B9B58012B00D901272D4B66
:102940001B68002B3FD1FEF7A4FF3CE00127234B7F
:102950001B681B6843B3214B1B68DB68DC6863683A
:102960009D4226D3261D3046FFF786FAA36A1BB187
:1029700004F11800FFF780FAE36A01229A401E4929
:10298000086802430A6003EB83039A003146184843
:102990001044FFF74DFAE26A144B1B68DB6A9A4257
:1029A000D4D2D4E70027D2E70F4B4FF0FF321A60A2
:1029B000BAE70D4A1360B7E70E4A13680133136094
:1029C000FEF767FF00270D4B1B6803B10127384650
:1029D000F8BD00BF8C2E0120B02E0120FC2E01205E
:1029E000F82E01209C2E0120942E01208C2F0120F6
:1029F000282F0120A42E0120AC2E0120A02E012082
:102A000038B5354B1B6843B94FF0500383F3118839
:102A1000BFF36F8FBFF34F8FFEE7FFF7BBF82E4B6F
:102A20001A68013A1A601B68002B4FD12B4B1B68A8
:102A30000BB900244BE00024294B1B681BB3284B27
:102A4000DB68DC6804F11800FFF716FA251D28463C
:102A5000FFF712FAE06A01238340224A11680B4310
:102A6000136000EB800029461F4B03EB8000FFF74B
:102A7000DFF9E26A1D4B1B68DB6A9A42DCD31C4B10
:102A800001221A60D8E70CB1FFF764FD194B1C68EE
:102A900084B9174B1C68D4B14FF0E0234FF080523B
:102AA000C3F8042DBFF34F8FBFF36F8F01240EE0E7
:102AB000013C07D0FFF710FF0028F9D00C4B012292
:102AC0001A60F5E70B4B00221A60E2E70024FFF7DB
:102AD00083F8204638BD00BF8C2E0120B42E012083
:102AE000E42E0120AC2E0120282F01208C2F012064
:102AF000A02E0120A42E0120134B1B6813B310B588
:102B0000FFF7DCFE114B1C68FFF77AFF24B90E4B70
:102B10001B68002BF4D110BDFFF73CF80B4BDB68B2
:102B2000DC68201DFFF7A8F9094A1368013B136010
:102B3000054A1368013B1360FFF74EF82046FFF784
:102B40001FFDE4E7704700BFCC2E0120D02E0120EE
:102B5000B42E012008B50BE04FF0E0234FF0805277
:102B6000C3F8042DBFF34F8FBFF36F8FFEF788FEBE
:102B7000FFF7C2FF024B1B68012BEDD8F6E700BF41
:102B8000282F012008B52D4B1B681BB12C4B0122AF
:102B90001A6008BD2A4B00221A602A4B1B681B6B67
:102BA0001A68B2F1A53F03D15A68B2F1A53F1BD014
:102BB000244B186819683431FEF761FE224B1B68FC
:102BC000B3FA83F3DBB2C3F11F0303EB83018A0083
:102BD0001E498A588AB94FF0500383F31188BFF316
:102BE0006F8FBFF34F8FFEE79A68B2F1A53FDFD139
:102BF000DB68B3F1A53FDBD1E0E7144803EB8301C9
:102C00008A00024451684968516003EB830C4FEA23
:102C10008C0208320244914209D003EB83039A00EC
:102C20000A4B13445B68DA68064B1A60B1E74868E0
:102C300062469100054A0A445060EEE78C2E01205E
:102C4000A02E01208C2F0120AC2E0120282F012046
:102C500058B110B50C46094A11681831FFF7F3F85E
:102C600001212046FFF76CFD10BD4FF0500383F3A8
:102C70001188BFF36F8FBFF34F8FFEE78C2F0120BA
:102C800038B570B10D4614460A4A11681831FFF77D
:102C9000CFF80CB14FF0FF3521462846FFF750FD25
:102CA00038BD4FF0500383F31188BFF36F8FBFF32C
:102CB0004F8FFEE78C2F012038B5C368DC6824B342
:102CC00004F118052846FFF7D7F8184B1B682BBBF3
:102CD000251D2846FFF7D0F8E06A01238340144AF7
:102CE00011680B43136000EB80002946114B03EB86
:102CF0008000FFF79DF8E26A0F4B1B68DB6A9A427F
:102D000011D901200D4B186038BD4FF0500383F3EB
:102D10001188BFF36F8FBFF34F8FFEE72946084836
:102D2000FFF786F8E7E70020EEE700BF8C2E0120D2
:102D3000AC2E0120282F01208C2F0120A02E012055
:102D4000E42E012030B1084A12680260074A126876
:102D5000426070474FF0500383F31188BFF36F8FC9
:102D6000BFF34F8FFEE700BF9C2E0120B02E012045
:102D700038B5C0B10C460546F1B1FEF70BFF1A4B52
:102D80001A682368B3F1FF3F27D0286817490968FC
:102D9000884202D06968914224D96968501A8342F6
:102DA00013D801241AE04FF0500383F31188BFF3C6
:102DB0006F8FBFF34F8FFEE74FF0500383F31188FF
:102DC000BFF36F8FBFF34F8FFEE7891A0B44236069
:102DD0002846FFF7B7FF002400E00024FEF7FCFEC2
:102DE000204638BD0124F9E7B02E01209C2E012099
:102DF000014B01221A607047A02E0120054B1B6871
:102E000033B1054B1B680BB100207047022070479F
:102E100001207047A82E01208C2E0120002845D0CB
:102E200038B50446C36A224A1268D26A934214D261
:102E30008269002A05DB1E4A1268D26AC2F10502C5
:102E40008261616903EB83031A4A02EB83039942AF
:102E500004D0174B1B68DB6AE36238BD251D28468A
:102E6000FFF70AF890B1124B1B68D86AE0620123A1
:102E70008340114A11680B43136000EB8000294620
:102E80000C4B03EB8000FEF7D3FFE6E7E36A03EBAE
:102E90008301084A52F82120002AE4D101229A40F5
:102EA00005490B6823EA02030B60DCE7704700BFAB
:102EB0008C2F0120282F0120AC2E012000284BD080
:102EC00038B50446264B1B68834208D04FF05003A8
:102ED00083F31188BFF36F8FBFF34F8FFEE7C36C8F
:102EE00043B94FF0500383F31188BFF36F8FBFF3E3
:102EF0004F8FFEE7013BC364C16A826C91422DD0C3
:102F00000BB1002038BD051D2846FEF7B5FF68B996
:102F1000E36A03EB8301134A52F8212032B90122FC
:102F20009A4011490B6823EA02030B60A06CE0622F
:102F3000C0F10503A361012404FA00F30A4A1168F1
:102F40000B43136000EB80002946064B03EB800027
:102F5000FEF76EFF2046D5E7002070470020D1E73E
:102F60008C2F0120282F0120AC2E0120054B1B683F
:102F700023B1044B1A68D36C0133D364014B186836
:102F8000704700BF8C2F0120064B1A681368B3FAF4
:102F900083F35B09036013B9D36818687047002096
:102FA000704700BFA02F012008B541600061914229
:102FB0000CD8D21A83699A4201D3012008BD011DA1
:102FC000094B1868FEF73FFF0020F7E79A4201D24D
:102FD000994206D2011D054B1868FEF734FF002008
:102FE000ECE70120EAE700BF9C2F0120A02F012081
:102FF00038B5FEF7CFFD0F4B1B6813B1FEF7ECFDA4
:1030000038BD0D4D2846FEF705FF0C4C2046FEF757
:1030100001FF0B4B1D600B4B1C6000220C210A2092
:10302000FFF72FF8034B18600028E7D00649FFF799
:1030300053FAE3E7982F0120B82F0120A42F012095
:10304000A02F01209C2F0120D04D000800B583B097
:10305000FFF7CEFF0D4B1B685BB10D4B01930223B5
:10306000009300234FF482720A490B48FFF7B4FB28
:1030700040B94FF0500383F31188BFF36F8FBFF354
:103080004F8FFEE703B05DF804FB00BF982F0120CF
:10309000942F0120D84D00085D330008B8B19C463C
:1030A00003461848006858B300B585B001910292F4
:1030B000039305291CDCFFF7A1FE022810D0002392
:1030C0001A4601A90F480068FEF7FFFF15E04FF010
:1030D000500383F31188BFF36F8FBFF34F8FFEE769
:1030E0000023069A01A907480068FEF7EEFF04E0F6
:1030F0000023624601A9FFF7ACF805B05DF804FBB8
:1031000000207047982F012070B582B01A4B1B68C1
:103110001A6852B3DB681E68DC68251D2846FEF776
:10312000ABFE636A20469847E369012BEED1A369A1
:1031300033449E4207D26360246129460E4B1868CF
:10314000FEF781FEE2E7002100910B463246204661
:10315000FFF7A4FF0028D9D14FF0500383F3118863
:10316000BFF36F8FBFF34F8FFEE7044A1068024929
:103170000860136002B070BDA02F01209C2F0120B9
:1031800038B50546FFF7A2FB0446074B1B68834290
:1031900005D800232B60044B1C60204638BDFFF788
:1031A000B3FF01232B60F6E7902F012070B582B0AA
:1031B00006460D4614490968C968CC68201DFEF70B
:1031C0005BFEE169012904D0636A2046984702B09A
:1031D00070BDA16933462A4631442046FFF7E4FE1C
:1031E0000028F1D0002100910B4632462046FFF71F
:1031F00055FF0028E8D14FF0500383F31188BFF347
:103200006F8FBFF34F8FFEE7A02F012070B582B004
:1032100006460C46FFF752FB01A8FFF7B1FF019BE2
:1032200023BB054644B9B0420CD3FFF7E9FB29465E
:103230003046FFF7BBFF1BE00E4B1B681C68B4FA5F
:1032400084F464092246711B0B4B1868FFF758F988
:10325000FFF7D6FB60B94FF0E0234FF08052C3F880
:10326000042DBFF34F8FBFF36F8F01E0FFF7C8FB53
:1032700002B070BD9C2F0120982F012010B586B0A0
:1032800000231A4603A934480068FFF748F80028CD
:1032900060D0039B002BF3DB059C636913B1201DF9
:1032A000FEF7EAFD02A8FFF76BFF039B092BE7D8A7
:1032B00001A252F823F000BFE1320008E132000819
:1032C000E132000881320008273300084D3300083E
:1032D000E1320008E132000881320008273300089B
:1032E000049BA169024619442046FFF75DFE0028B1
:1032F000C6D0636A20469847E369012BC0D1A26912
:10330000002100910B46049802442046FFF7C6FEB8
:103310000028B5D14FF0500383F31188BFF36F8FAE
:10332000BFF34F8FFEE70499A16131B10346024616
:1033300001442046FFF738FEA2E74FF0500383F325
:103340001188BFF36F8FBFF34F8FFEE72046FEF764
:103350008DFB95E706B010BD982F012000B583B016
:1033600001A8FFF711FE0199FFF750FFFFF786FF55
:10337000F6E7000053B94AB9002908BF00281CBF6E
:103380004FF0FF314FF0FF3000F06AB9ADF1080C9B
:103390006DE904CE00F006F8DDF804E0DDE9022373
:1033A00004B070472DE9F047089D0C46002B4ED124
:1033B00094468C458646B2FA82F262D94AB1C2F18D
:1033C0002003914020FA03F30CFA02FC194300FA9F
:1033D00002FE4FEA1C471FFA8CF6B1FBF7F44FEAE6
:1033E0001E4307FB141143EA014304FB06F1994213
:1033F0000AD91CEB030304F1FF3080F013819942DA
:1034000040F21081023C6344591A1FFA8EF3B1FB5B
:10341000F7F007FB101143EA014300FB06F69E425A
:103420000AD91CEB030300F1FF3180F0FD809E42BE
:1034300040F2FA80634402389B1B40EA04400021BA
:103440001DB1D3400022C5E90032BDE8F0878B42B0
:1034500005D90DB1C5E9000100210846F5E7B3FA29
:1034600083F1002946D1A34202D39042C0F0F180FB
:10347000861A64EB03030120002DE6D0C5E9006342
:10348000E3E7002A40F09180A1EB0C044FEA1C48CE
:103490001FFA8CF70121B4FBF8F64FEA1E4308FB34
:1034A000164443EA044307FB06F0984208D91CEB94
:1034B000030306F1FF3402D2984200F2CE80264682
:1034C0001C1A1FFA8EF3B4FBF8F008FB104443EA11
:1034D000044300FB07F79F4208D91CEB030300F1EC
:1034E000FF3402D29F4200F2B1802046DB1B40EA4B
:1034F0000640A5E7C1F120068B4022FA06F71F43DC
:1035000020FA06FC04FA01F343EA0C03F44000FA43
:1035100001F8380C4FEA1349B4FBF0FE1FFA87FCA0
:1035200000FB1E4449EA04440EFB0CF9A14502FAD3
:1035300001F20AD93C190EF1FF3A80F08580A145CD
:1035400040F28280AEF1020E3C44A4EB09041FFA63
:1035500083F9B4FBF0F300FB134449EA044403FB92
:103560000CFCA44507D93C1903F1FF3068D2A445EF
:1035700066D9023B3C4443EA0E40A0FB0293A4EB15
:103580000C049C42CE469C4652D34FD055B1B8EB6A
:103590000E0364EB0C0404FA06F6CB40CC401E4349
:1035A000C5E900640021BDE8F087C2F1200320FADC
:1035B00003F10CFA02FC24FA03F394400C434FEAA3
:1035C0001C4800FA02FE1FFA8CF7B3FBF8F008FB68
:1035D0001031230C43EA014300FB07F1994208D95B
:1035E0001CEB030300F1FF362CD299422AD9023892
:1035F00063445B1AA4B2B3FBF8F108FB113344EA4D
:10360000034401FB07F3A34208D91CEB040401F1B6
:10361000FF3613D2A34211D902396444E41A41EAB5
:10362000004138E70446EFE6084605E7C845ADD255
:10363000B9EB020E63EB070C0138A7E73146EDE763
:10364000034698E73046D4E7D6467EE7634402381F
:103650004CE70646234608460EE7023E63442FE742
:10366000704700BF002310B50446C0E90033C0E92D
:103670000433836081814366C281836119460822D5
:103680005C3000F065FA0D4B63620D4BA3620D4B8D
:10369000E3620D4B23630D4B24629C4206D003F181
:1036A0006802944202D0D0339C4205D104F1580004
:1036B000BDE8104000F0B0BA10BD00BF31390008BD
:1036C000533900088B390008AF390008CC2F01208E
:1036D000024A0349034800F069B800BF1400002003
:1036E000A14700082400002041680C4B994210B506
:1036F000044601D001F054F8A168094B994202D068
:10370000204601F04DF8E168064B994204D020466E
:10371000BDE8104001F044B810BD00BFCC2F01201F
:10372000343001209C30012010B50B4B0B4C0C4A5F
:103730001A60204600220421FFF794FF04F168007C
:1037400001220921FFF78EFF04F1D0000222BDE81B
:1037500010401221FFF786BF04310120CC2F012039
:10376000D1360008014800F058BA00BF09310120E5
:10377000014800F053BA00BF0931012010B50446DA
:10378000FFF7F0FF236A1BB1BDE81040FFF7F0BF61
:10379000044B2362044B1B68002BF5D1FFF7C4FFD9
:1037A000F2E700BFE9360008043101202DE9F843B3
:1037B0000746884614460026D4E90195B9F1010967
:1037C00005D52468002CF7D13046BDE8F883AB89D5
:1037D000012B07D9B5F90E30013303D029463846FD
:1037E000C04706436835E9E70FB407B5064904AB9F
:1037F000086853F8042B8168019300F09BFC03B028
:103800005DF804EB04B0704720000020036A70B537
:10381000846805460E460BB9FFF7B0FF636EDB0701
:1038200005D4A389980502D4A06D00F0F6F9A38908
:10383000190702D52369002B35D12146284600F00F
:1038400031F980B34FF0FF35636EDA0705D4A389F1
:103850009B0502D4A06D00F0E1F9284670BD002B55
:1038600015DB23685A1C22601970A36816F8011F23
:10387000013BA3600029F2D1002B16DA22460A216F
:10388000284600F0D1F80130DCD00A25DCE7A26937
:103890009A4201DC0A29E4D12246284600F0C4F805
:1038A0000130E2D1CEE7013EDFE723685A1C2260F7
:1038B0000A221A70E9E70000024B01461868FFF778
:1038C000A5BF00BF200000200CB430B5174B0C1E64
:1038D0001D689DB008DA8B232B604FF0FF301DB0C0
:1038E000BDE8304002B070474FF40273ADF81430B9
:1038F00014BF04F1FF332346049307934FF6FF737D
:1039000002900690ADF81630209A21AB02A9284605
:10391000019300F0E9FA431CBCBF8B232B60002C01
:10392000DDD0029B00221A70D9E700BF20000020E2
:1039300010B50C46B1F90E1000F044F90028ABBFE9
:10394000636DA3891B1823F48053ACBF6365A38107
:1039500010BD2DE9F0411F468B89DB0505460C465D
:10396000164605D5B1F90E100223002200F018F911
:10397000A389B4F90E1023F48053A38132463B4649
:103980002846BDE8F04100F02FB910B50C46B1F95A
:103990000E1000F005F9431CA38915BF606523F4E0
:1039A000805343F48053A38118BFA38110BDB1F9A4
:1039B0000E1000F0E5B830B51446002C9BB005465B
:1039C0001A4605DA8B2303604FF0FF301BB030BD81
:1039D0004FF40273ADF80C3014BF04F1FF332346EB
:1039E000029305934FF6FF7300910491ADF80E30EA
:1039F00069461E9B00F078FA431CBCBF8B232B60EA
:103A0000002CE3D0009B00221A70DFE707B500937B
:103A100013460A46014603480068FFF7CCFF03B08F
:103A20005DF804FB20000020F8B50E46144605465C
:103A300018B1036A0BB9FFF7A1FEA369A360A389BC
:103A40001A0701D5236943B92146284600F02AF810
:103A500018B14FF0FF373846F8BD23682269981A2D
:103A60006369F6B28342374605DC2146284600F0FA
:103A700097FE0028EDD1A368013BA36023685A1C80
:103A800022601E706269431C9A4204D0A389DB073E
:103A9000E1D50A2EDFD12146284600F081FE00281C
:103AA000D9D0D6E738B5294B054618680C4618B169
:103AB000036A0BB9FFF762FEB4F90C30190722D480
:103AC000DA0607D409222A6043F04003A3814FF0AD
:103AD000FF3033E0580712D5616B41B104F1440364
:103AE000994202D0284600F0B3F800236363A3890B
:103AF00023F02403A3810023636023692360A38947
:103B000043F00803A38123694BB9A38903F420730D
:103B1000B3F5007F03D02146284600F08FFEB4F9AC
:103B20000C3013F001020AD00022A26062695242F6
:103B3000A261226942B913F08000C5D138BD99074E
:103B400058BF6269A260F4E70020F7E72000002078
:103B500002440346934200D1704703F8011BF9E782
:103B600010B50246147813460132002CFAD1013BFD
:103B700011F8012B03F8012F002AF9D110BD000024
:103B800038B5064D0023044608462B60FDF708FBB8
:103B9000431C02D12B6803B1236038BDA40100206F
:103BA00038B5074D04460846114600222A601A46D9
:103BB000FDF7B0FA431C02D12B6803B1236038BD76
:103BC000A401002038B5074D0446084611460022DE
:103BD0002A601A46FDF738FA431C02D12B6803B15C
:103BE000236038BDA401002038B5074D04460846BF
:103BF000114600222A601A46FDF7A0FA431C02D1A2
:103C00002B6803B1236038BDA4010020014B186864
:103C1000704700BF2000002070477047704710F8C1
:103C2000012B11F8013B012A28BF9A42F7D0D01A84
:103C300070470A44914200F1FF3300D1704710B53C
:103C400011F8014B03F8014F9142F9D110BD00006A
:103C500038B50546002941D051F8043C0C1F002B13
:103C6000B8BFE41800F0D8F81D4A136833B9636090
:103C700014602846BDE8384000F0D4B8A34208D903
:103C8000206821188B4201BF19685B680918216000
:103C9000EDE71A465B680BB1A342FAD911685018D8
:103CA000A0420BD120680144501883421160E0D13A
:103CB00018685B68536008441060DAE702D90C2387
:103CC0002B60D6E7206821188B4204BF19685B6817
:103CD000636004BF091821605460CAE738BD00BFA3
:103CE0001031012070B50F4E0C463168054611B9F0
:103CF00000F01CFE30602146284600F017FE431CF1
:103D000003D14FF0FF34204670BDC41C24F00304DF
:103D1000A042F8D0211A284600F008FE0130F2D166
:103D2000EFE700BF0C3101202DE9F041CD1C25F05B
:103D3000030508350C2D38BF0C25002D064601DB88
:103D4000A94204D90C2333600020BDE8F081314F33
:103D500000F062F83B681C4644BB29463046FFF73A
:103D6000C1FF431C044650D13C682146002941D183
:103D7000002C44D02368304604EB030800F0D6FD45
:103D800080453CD121686D1A29463046FFF7AAFFCD
:103D9000013034D023682B4423603B68002B36D09D
:103DA0005A68A24229D100225A600EE02268521BB2
:103DB0001DD40B2A16D96119A342256018BF59607A
:103DC000636808BF396062514B60304600F02AF8E2
:103DD00004F10B00231D20F00700C21AB5D01B1AF6
:103DE000A350B2E7A3426268DED13A60EDE7234612
:103DF0006468B1E70C464968B8E71346CEE70C2380
:103E00003360304600F00EF89EE70560DDE75B604A
:103E1000FFDE00BF103101200148FFF7FEBE00BFEA
:103E2000083101200148FFF7F9BE00BF0831012029
:103E30002DE9F0478E681F46BE420B6882460C464D
:103E400090462DD8B1F90C2012F4906F26D06569F8
:103E5000096905EB4505A3EB010905EBD5757B1C4D
:103E60004B446D109D4238BF1D46530527D529464A
:103E7000FFF75AFF064660B321694A46FFF7D9FEAD
:103E8000A38923F4906343F08003A38126616561D5
:103E90004E44A5EB09052660A5603E46BE4200D90A
:103EA0003E4620683246414600F004FDA3689B1B55
:103EB000A3602368334423600020BDE8F0872A46CE
:103EC00000F096FD06460028E0D121695046FFF734
:103ED000BFFE0C23CAF80030A38943F04003A3813E
:103EE0004FF0FF30E9E700002DE9F04F98468B894D
:103EF0001B069DB007460D46144610D50B6973B9D5
:103F00004021FFF711FF2860286130B90C233B6086
:103F10004FF0FF301DB0BDE8F08F40236B610023F0
:103F2000099320238DF82930CDF80C803023DFF859
:103F30009C818DF82A304FF0010923469A4613F8E8
:103F4000012B0AB1252AF9D1BAEB040B0BD05B4641
:103F5000224629463846FFF76BFF013000F0A78064
:103F6000099A5A4409929AF80030002B00F09F8079
:103F700000234FF0FF32CDE905230AF1010A049333
:103F800007938DF853301A935446052214F8011BF9
:103F90004E4800F0DDFC049AD8B9D00644BF202377
:103FA0008DF85330110744BF2B238DF853309AF806
:103FB00000302A2B15D0079A544600204FF00A0CE7
:103FC000214611F8013B303B092B4BD9B0B1079288
:103FD00014E0A0EB080309FA03F313430493A24689
:103FE000D2E7039B191D1B680391002BBBBF5B42EB
:103FF00042F0020207930793B8BF049223782E2B56
:104000000AD163782A2B32D1039B1A1D1B680392B5
:1040100043EAE37302340593DFF8C0A0217803225A
:10402000504600F095FC38B1049BA0EB0A004022FA
:10403000824013430134049314F8011B24488DF883
:104040002810062200F084FC002836D0214B1BBB30
:10405000039B073323F0070308330393099B33447F
:1040600009936AE70CFB02320C460120A8E7002303
:104070000134059319464FF00A0C204610F8012B25
:10408000303A092A03D9002BC6D00591C4E70CFBAE
:10409000012104460123F0E703AB00932A460E4BAF
:1040A00004A93846AFF30080421C0646D6D1AB893E
:1040B0005B063FF52DAF09982CE703AB00932A462A
:1040C000054B04A9384600F0BBF9EDE7E14E0008C6
:1040D000EB4E000800000000313E0008E74E0008EB
:1040E0009368013B002B10B4936008DA9469A342F3
:1040F00001DB0A2903D15DF8044BFFF795BC136877
:10410000581C1060197008465DF8044B7047F8B5EC
:1041100006460F461446D518AC4201D1002007E0F0
:1041200014F8011B3A463046FFF7DAFF431CF3D17F
:10413000F8BD00002DE9F04F0D469DB0144698469D
:10414000064618B1036A0BB9FFF718FB6B6ED90767
:1041500005D4AB899A0502D4A86DFFF75EFDAB8943
:104160001B0701D52B699BB929463046FFF79AFCFE
:1041700070B16B6EDC0704D54FF0FF301DB0BDE8A9
:10418000F08FAB899805F7D4A86DFFF747FDF3E7EB
:104190000023099320238DF82930CDF80C8030239B
:1041A000DFF8AC818DF82A304FF0010923469A469A
:1041B00013F8012B0AB1252AF9D1BAEB040B0BD065
:1041C0005B46224629463046FFF7A1FF013000F04A
:1041D000A780099A5A4409929AF80030002B00F0FF
:1041E0009F8000234FF0FF32CDE905230AF1010A39
:1041F000049307938DF853301A935446052214F80C
:10420000011B534800F0A4FB049AD8B9D10644BF5F
:1042100020238DF85330130744BF2B238DF85330E0
:104220009AF800302A2B15D0079A544600204FF0F8
:104230000A0C214611F8013B303B092B4BD9B0B198
:10424000079214E0A0EB080309FA03F31343049365
:10425000A246D2E7039B191D1B680391002BBBBF2D
:104260005B4242F0020207930793B8BF049223789F
:104270002E2B0AD163782A2B32D1039B1A1D1B687F
:10428000039243EAE37302340593DFF8D4A0217864
:104290000322504600F05CFB38B1049BA0EB0A00FF
:1042A0004022824013430134049314F8011B29482F
:1042B0008DF82810062200F04BFB00283FD0264B3B
:1042C0001BBB039B073323F0070308330393099BAE
:1042D0003B4409936AE70CFB02320C460120A8E735
:1042E00000230134059319464FF00A0C204610F8BC
:1042F000012B303A092A03D9002BC6D00591C4E717
:104300000CFB012104460123F0E703AB00932A468E
:10431000124B04A93046AFF300800746781CD6D173
:104320006B6ED90705D4AB899A0502D4A86DFFF747
:1043300075FCAB895B063FF51FAF09981EE703AB21
:1043400000932A46054B04A9304600F079F8E4E7CB
:10435000E14E0008EB4E0008000000000F4100088D
:10436000E74E00082DE9F047164698468A680B6923
:10437000DDF820909342B8BF1346336091F8432094
:1043800007460C460AB1013333602368990642BFE1
:10439000336802333360256815F0060506D104F151
:1043A000190AE36832689B1AAB4226DC94F8433062
:1043B0002268003B18BF012392062BD404F143026C
:1043C00041463846C84701301ED02368226903F0B1
:1043D0000603042B02BFE5683368ED1AA3680CBF1F
:1043E00025EAE57500259342C4BF9B1AED18002607
:1043F0001A34B5421AD1002008E001235246414642
:104400003846C847013003D14FF0FF30BDE8F08790
:104410000135C6E7E1185A1C302081F843002244D8
:1044200094F8451082F843100233C7E7012322466F
:1044300041463846C8470130E6D00136D9E700008A
:104440002DE9FF470F7E0C9E782F914680460C4643
:104450009A4601F1430207D8622F0AD8002F00F0D4
:10446000DD80582F00F0C38004F1420684F84270CA
:104470003AE0A7F16303152BF6D801A151F823F018
:10448000D9440008ED440008694400086944000864
:104490006944000869440008ED44000869440008C4
:1044A000694400086944000869440008034600089C
:1044B0007B450008BB4500086944000869440008C2
:1044C00025460008694400087B4500086944000847
:1044D00069440008C345000833681A1D1B68326030
:1044E00004F1420684F842300123A8E031682368D1
:1044F000081D30601E0601D50D6803E05D06FBD582
:10450000B1F900506168002D78DA2D20002984F877
:104510004300A1602DDA5E486D420A231646B5FBC2
:10452000F3F103FB1157C75D06F8017D2F46BB422F
:104530000D46F4D9082B0BD12368DF0708D5236972
:1045400061689942DEBF302306F8013C06F1FF3670
:10455000921B2261CDF800A04B4603AA214640469B
:10456000FFF700FF01306FD14FF0FF3004B0BDE81E
:10457000F08723F004032360CDE721683368080641
:1045800053F8045B02D4490648BFADB26F2F4048D0
:10459000336014BF0A230823002184F8431066689F
:1045A000A660002EBADB216821F004012160002DF5
:1045B000B4D1002EB2D11646BCE7236843F02003E5
:1045C00023603448782784F84570236831681F06D3
:1045D00051F8045B02D45F0648BFADB23160D90721
:1045E00044BF43F0200323601DB11023D4E72848C3
:1045F000E9E7236823F020032360F6E724480A2331
:10460000CDE7336825686169181D30602E061B6888
:1046100001D5196002E06806FBD5198000232361EB
:10462000164697E733681A1D32601E6862680021DB
:10463000304600F08DF908B1801B6060636823612B
:10464000002384F8433085E72369324649464046D3
:10465000D047013088D023689B0714D4E068039BBF
:104660009842B8BF184681E7012332464946404682
:10467000D04701303FF478AF0135E36803995B1A06
:10468000AB42F1DCEAE7002504F11906F5E700BFCB
:10469000F24E0008034F0008B1F90C202DE9F0415B
:1046A000170705460C4656D44B68002B02DC0B6CF2
:1046B000002B3DDDE66A002E3AD0002312F4805232
:1046C0002F68216A2B6025D0626DA389580705D514
:1046D0006368D21A636B0BB1236CD21A216AE66A43
:1046E00000232846B047411C24D00023636023697F
:1046F0002360A389DA0400D56065616B2F60B9B1CE
:1047000004F14403994202D02846FFF7A1FA00239E
:1047100063630DE001232846B047461C0246D4D10E
:104720002B68002BD1D01D2B01D0162B2BD12F6045
:1047300000202FE02A68B4F90C3042B11D2A01D0C4
:10474000162A22D10023636023692360D5E76260C3
:1047500022692260CEE70F69002FE9D093070E6827
:1047600008BF4B690F6018BF0023A6EB07088B60DA
:10477000B8F1000FDCDD216AA66A43463A462846B6
:10478000B047002808DCB4F90C3043F04003A381A3
:104790004FF0FF30BDE8F0810744A8EB0008E7E7E1
:1047A00038B50B6905460C4613B90025284638BDB7
:1047B00018B1036A0BB9FEF7E1FFB4F90C30002B16
:1047C000F3D0626ED00704D4990502D4A06DFFF730
:1047D00024FA28462146FFF75FFF636EDA07054695
:1047E000E4D4A3899B05E1D4A06DFFF717FADDE7B8
:1047F00070B50C46B1F90E10002996B015461E464C
:104800000DDAA38913F0800F4FF0000114BF40238D
:104810004FF48063002031602B6016B070BD6A4693
:1048200000F062F80028ECDB019901F47041A1F579
:104830000053594259414FF48063EBE78B89F7B538
:104840009D0706460C4607D504F147032360236104
:104850000123636103B0F0BD01AB6A46FFF7C8FFF7
:10486000009F054639463046FFF75EFA48B9B4F96D
:104870000C309A05EED423F0030343F00203A38126
:10488000E2E7A389206043F08003A381019BC4E990
:1048900004075BB1B4F90E10304600F037F828B1C8
:1048A000A38923F0030343F00103A381A3891D43DC
:1048B000A581CFE7884210B501EB020402D98442FA
:1048C000234607D8431EA14208D011F8012B03F854
:1048D000012FF8E7024401468A4200D110BD13F8C7
:1048E000014D02F8014DF7E738B5074D00230446A6
:1048F000084611462B60FCF799FC431C02D12B683B
:1049000003B1236038BD00BFA401002038B5064DB7
:104910000023044608462B60FCF795FC431C02D19B
:104920002B6803B1236038BDA401002038B5064DC3
:104930000023044608462B60FCF756FA431C02D1BC
:104940002B6803B1236038BDA401002000000000E3
:1049500001F0FF01102A2BDB10F0070F08D010F830
:10496000013B013A8B422DD010F0070F42B3F6D134
:10497000F0B441EA012141EA014122F007047FF04D
:1049800000070023F0E80256083C85EA010586EAA4
:10499000010685FA47F5A3FA87F586FA47F6A5FAE0
:1049A00087F68EB9EED1F0BC01F0FF0102F00702EC
:1049B00032B110F8013B013A83EA010313B1F8D197
:1049C0000020704701387047002D06BF3546033878
:1049D000073815F0010F07D1013015F4807F02BFB1
:1049E000013015F4C03F0130F0BC0138704700BF02
:1049F0002DE9F041804615460C4621B9BDE8F0414D
:104A00001146FFF791B92AB9FFF722F90024204691
:104A1000BDE8F08100F01AF88542064602D8B5EBF1
:104A2000500FF4D829464046FFF77EF90746002884
:104A3000ECD0B5422A46214628BF3246FFF7F9F8A6
:104A400021464046FFF704F93C46E0E751F8043CB4
:104A5000181F002BBCBF0B58C01870472E2E2F7389
:104A6000797374656D2F7372632F73746D3332664F
:104A7000342D68616C2F73746D3332663478785FCF
:104A800068616C5F636F727465782E63000000006C
:104A90002E2E2F73797374656D2F7372632F737459
:104AA0006D333266342D68616C2F73746D333266EA
:104AB0003478785F68616C5F7263632E6300000016
:104AC0003A747400537461636B206672616D653A69
:104AD0000A000000205230203D2020253038580A9E
:104AE00000000000205231203D2020253038580A97
:104AF00000000000205232203D2020253038580A86
:104B000000000000205233203D2020253038580A74
:104B10000000000020523132203D20253038580A54
:104B200000000000204C52203D2020253038580A3B
:104B300000000000205043203D2020253038580A36
:104B40000000000020505352203D20253038580AE4
:104B5000000000004653522F4641523A0A0000001E
:104B60002043465352203D2020253038580A00006B
:104B70002048465352203D2020253038580A000056
:104B80002044465352203D2020253038580A00004A
:104B90002041465352203D2020253038580A00003D
:104BA000204D4D464152203D20253038580A000006
:104BB0002042464152203D2020253038580A00002E
:104BC0004D6973630A000000204C522F4558435F23
:104BD00052455455524E3D20253038580A000000A9
:104BE0005B486172644661756C745D0A0000000088
:104BF0005B4275734661756C745D0A005B55736149
:104C000067654661756C745D0A0000000000000075
:104C100000000000010203040607080957726F6EC6
:104C20006720706172616D65746572732076616C66
:104C300075653A2066696C65202573206F6E206C5F
:104C4000696E652025640D0A00000000256C750062
:104C500053656E74204D73677320313A20256420AC
:104C60000A20426C6F636B6564204D73677320315B
:104C70003A202564200A000053656E74204D736746
:104C80007320323A202564200A20426C6F636B65E2
:104C900064204D73677320323A202564200A000097
:104CA00053656E74204D73677320333A202564205A
:104CB0000A20426C6F636B6564204D736773203309
:104CC0003A202564200A000053656E74204D7367F6
:104CD000733A202564200A20426C6F636B65642060
:104CE0004D7367733A202564200A000054696D658E
:104CF0002069732000000000546F74616C2072659D
:104D0000636569766564206D65737361676573209B
:104D10003D202564200A0000436F756C646E277483
:104D200020726563656976652066726F6D205175C6
:104D3000657565212000000053656E646572310061
:104D400053656E64657231206372656174656421B8
:104D50002000000053656E646572320053656E6416
:104D60006572322063726561746564212000000001
:104D700053656E646572330053656E6465723320EB
:104D8000637265617465642120000000526563658B
:104D900069766572310000005265636569766572F7
:104DA00031206372656174656421200051756575F9
:104DB0006520436F756C64206E6F7420626520639C
:104DC000726561746564200049444C450000000030
:104DD000546D725100000000546D722053766300D0
:104DE00000202020202020202020282828282820BB
:104DF00020202020202020202020202020202020B3
:104E0000208810101010101010101010101010101A
:104E1000100404040404040404040410101010100A
:104E200010104141414141410101010101010101D4
:104E30000101010101010101010101011010101026
:104E400010104242424242420202020202020202A6
:104E500002020202020202020202020210101010FA
:104E60002000000000000000000000000000000022
:104E70000000000000000000000000000000000032
:104E80000000000000000000000000000000000022
:104E90000000000000000000000000000000000012
:104EA0000000000000000000000000000000000002
:104EB00000000000000000000000000000000000F2
:104EC00000000000000000000000000000000000E2
:104ED00000000000000000000000000000000000D2
:104EE00000232D302B2000686C4C0065666745461A
:104EF0004700303132333435363738394142434454
:104F000045460030313233343536373839616263E3
:044F1000646566006E
:084F140090E4FF7F01000000A2
:104F1C007856341201FFFFFF100000000024F4004B
:104F2C00AAAAAAAA0000000003000000CC2F0120AE
:104F3C002400002000000000CC2F01203430012080
:104F4C009C30012000000000000000000000000068
:104F5C000000000000000000000000000000000045
:104F6C000000000000000000000000000000000035
:104F7C000000000000000000000000000000000025
:044F8C00325476988D
:040000050800018965
:00000001FF
